
IDV2_ZigBeeLogic.elf:     file format elf32-littlearm

Sections:
Idx Name          Size      VMA       LMA       File off  Algn
  0 .interfaceLogic 00000020  08010000  08010000  00010000  2**2
                  CONTENTS, ALLOC, LOAD, READONLY, DATA
  1 .text         00001f48  08010080  08010080  00010080  2**7
                  CONTENTS, ALLOC, LOAD, READONLY, CODE
  2 .rodata       000000e4  08011fc8  08011fc8  00011fc8  2**2
                  CONTENTS, ALLOC, LOAD, READONLY, DATA
  3 .ARM.extab    00000000  080120ac  080120ac  0001280c  2**0
                  CONTENTS
  4 .ARM          00000000  080120ac  080120ac  0001280c  2**0
                  CONTENTS
  5 .preinit_array 00000000  080120ac  080120ac  0001280c  2**0
                  CONTENTS, ALLOC, LOAD, DATA
  6 .init_array   00000004  080120ac  080120ac  000120ac  2**2
                  CONTENTS, ALLOC, LOAD, DATA
  7 .fini_array   00000004  080120b0  080120b0  000120b0  2**2
                  CONTENTS, ALLOC, LOAD, DATA
  8 .data         0000000c  20002800  080120b4  00012800  2**2
                  CONTENTS, ALLOC, LOAD, DATA
  9 .bss          0000024c  2000280c  080120c0  0001280c  2**2
                  ALLOC
 10 .ARM.attributes 00000028  00000000  00000000  0001280c  2**0
                  CONTENTS, READONLY
 11 .debug_info   000051a7  00000000  00000000  00012834  2**0
                  CONTENTS, READONLY, DEBUGGING, OCTETS
 12 .debug_abbrev 000014e8  00000000  00000000  000179db  2**0
                  CONTENTS, READONLY, DEBUGGING, OCTETS
 13 .debug_aranges 00000390  00000000  00000000  00018ec3  2**0
                  CONTENTS, READONLY, DEBUGGING, OCTETS
 14 .debug_macro  000013f2  00000000  00000000  00019253  2**0
                  CONTENTS, READONLY, DEBUGGING, OCTETS
 15 .debug_line   00006157  00000000  00000000  0001a645  2**0
                  CONTENTS, READONLY, DEBUGGING, OCTETS
 16 .debug_str    00007a68  00000000  00000000  0002079c  2**0
                  CONTENTS, READONLY, DEBUGGING, OCTETS
 17 .comment      00000053  00000000  00000000  00028204  2**0
                  CONTENTS, READONLY
 18 .debug_ranges 000002c0  00000000  00000000  00028257  2**0
                  CONTENTS, READONLY, DEBUGGING, OCTETS
 19 .debug_frame  000009b4  00000000  00000000  00028518  2**2
                  CONTENTS, READONLY, DEBUGGING, OCTETS

Disassembly of section .text:

08010080 <__do_global_dtors_aux>:
 8010080:	b510      	push	{r4, lr}
 8010082:	4c06      	ldr	r4, [pc, #24]	; (801009c <__do_global_dtors_aux+0x1c>)
 8010084:	7823      	ldrb	r3, [r4, #0]
 8010086:	2b00      	cmp	r3, #0
 8010088:	d107      	bne.n	801009a <__do_global_dtors_aux+0x1a>
 801008a:	4b05      	ldr	r3, [pc, #20]	; (80100a0 <__do_global_dtors_aux+0x20>)
 801008c:	2b00      	cmp	r3, #0
 801008e:	d002      	beq.n	8010096 <__do_global_dtors_aux+0x16>
 8010090:	4804      	ldr	r0, [pc, #16]	; (80100a4 <__do_global_dtors_aux+0x24>)
 8010092:	e000      	b.n	8010096 <__do_global_dtors_aux+0x16>
 8010094:	bf00      	nop
 8010096:	2301      	movs	r3, #1
 8010098:	7023      	strb	r3, [r4, #0]
 801009a:	bd10      	pop	{r4, pc}
 801009c:	2000280c 	.word	0x2000280c
 80100a0:	00000000 	.word	0x00000000
 80100a4:	08011fb0 	.word	0x08011fb0

080100a8 <frame_dummy>:
 80100a8:	4b04      	ldr	r3, [pc, #16]	; (80100bc <frame_dummy+0x14>)
 80100aa:	b510      	push	{r4, lr}
 80100ac:	2b00      	cmp	r3, #0
 80100ae:	d003      	beq.n	80100b8 <frame_dummy+0x10>
 80100b0:	4903      	ldr	r1, [pc, #12]	; (80100c0 <frame_dummy+0x18>)
 80100b2:	4804      	ldr	r0, [pc, #16]	; (80100c4 <frame_dummy+0x1c>)
 80100b4:	e000      	b.n	80100b8 <frame_dummy+0x10>
 80100b6:	bf00      	nop
 80100b8:	bd10      	pop	{r4, pc}
 80100ba:	46c0      	nop			; (mov r8, r8)
 80100bc:	00000000 	.word	0x00000000
 80100c0:	20002810 	.word	0x20002810
 80100c4:	08011fb0 	.word	0x08011fb0

080100c8 <core_init>:
 * the section of the software is entered. The initialisation of variables and the zeroing of variables is done here manually.
 *
 * @return
 */
ILB_HAL_StatusTypeDef core_init(uint8_t* nOfSlowTimers)
{
 80100c8:	b580      	push	{r7, lr}
 80100ca:	b086      	sub	sp, #24
 80100cc:	af00      	add	r7, sp, #0
 80100ce:	6078      	str	r0, [r7, #4]
	//	Variables declared in the logic part of the program are not initialised by the default Reset_Handler() routine.
	//  In order for all variables to be initialised correctly, we need to to this manually. We can use the
	//  locations defined in the linker script.
	//
	// read necessary values from flash to ram
	uint32_t *dataInit = &_sidata;
 80100d0:	4b31      	ldr	r3, [pc, #196]	; (8010198 <core_init+0xd0>)
 80100d2:	617b      	str	r3, [r7, #20]
	uint32_t *dataTrgt = &_sdata;
 80100d4:	4b31      	ldr	r3, [pc, #196]	; (801019c <core_init+0xd4>)
 80100d6:	613b      	str	r3, [r7, #16]
	while (dataTrgt < &_edata)
 80100d8:	e007      	b.n	80100ea <core_init+0x22>
	{
		*dataTrgt++ = *dataInit++;
 80100da:	697a      	ldr	r2, [r7, #20]
 80100dc:	1d13      	adds	r3, r2, #4
 80100de:	617b      	str	r3, [r7, #20]
 80100e0:	693b      	ldr	r3, [r7, #16]
 80100e2:	1d19      	adds	r1, r3, #4
 80100e4:	6139      	str	r1, [r7, #16]
 80100e6:	6812      	ldr	r2, [r2, #0]
 80100e8:	601a      	str	r2, [r3, #0]
	while (dataTrgt < &_edata)
 80100ea:	693a      	ldr	r2, [r7, #16]
 80100ec:	4b2c      	ldr	r3, [pc, #176]	; (80101a0 <core_init+0xd8>)
 80100ee:	429a      	cmp	r2, r3
 80100f0:	d3f3      	bcc.n	80100da <core_init+0x12>
	}

	uint32_t *bss = &_sbss;
 80100f2:	4b2c      	ldr	r3, [pc, #176]	; (80101a4 <core_init+0xdc>)
 80100f4:	60fb      	str	r3, [r7, #12]
	while (bss < &_ebss)
 80100f6:	e004      	b.n	8010102 <core_init+0x3a>
	{
		*bss++ = 0;
 80100f8:	68fb      	ldr	r3, [r7, #12]
 80100fa:	1d1a      	adds	r2, r3, #4
 80100fc:	60fa      	str	r2, [r7, #12]
 80100fe:	2200      	movs	r2, #0
 8010100:	601a      	str	r2, [r3, #0]
	while (bss < &_ebss)
 8010102:	68fa      	ldr	r2, [r7, #12]
 8010104:	4b28      	ldr	r3, [pc, #160]	; (80101a8 <core_init+0xe0>)
 8010106:	429a      	cmp	r2, r3
 8010108:	d3f6      	bcc.n	80100f8 <core_init+0x30>
	}

	// build up the interface to the base software
	// we rely on the check from the base software that the interfaces match
	uint32_t* locationOfInterface = &_interface_location;
 801010a:	4b28      	ldr	r3, [pc, #160]	; (80101ac <core_init+0xe4>)
 801010c:	60bb      	str	r3, [r7, #8]
	interface_base = (BaseSoftwareInterface_t*)(locationOfInterface);
 801010e:	4b28      	ldr	r3, [pc, #160]	; (80101b0 <core_init+0xe8>)
 8010110:	68ba      	ldr	r2, [r7, #8]
 8010112:	601a      	str	r2, [r3, #0]
#else
	// Compiling for unit test use. The unit test code will map the functions to simulated or other implementations
#endif

	// initialise interface functions
	bsw_messaging_sendMessage 		= interface_base->sendMessage;
 8010114:	4b26      	ldr	r3, [pc, #152]	; (80101b0 <core_init+0xe8>)
 8010116:	681b      	ldr	r3, [r3, #0]
 8010118:	689a      	ldr	r2, [r3, #8]
 801011a:	4b26      	ldr	r3, [pc, #152]	; (80101b4 <core_init+0xec>)
 801011c:	601a      	str	r2, [r3, #0]
	bsw_messaging_respondCode 		= interface_base->sendResponseCode;
 801011e:	4b24      	ldr	r3, [pc, #144]	; (80101b0 <core_init+0xe8>)
 8010120:	681b      	ldr	r3, [r3, #0]
 8010122:	68da      	ldr	r2, [r3, #12]
 8010124:	4b24      	ldr	r3, [pc, #144]	; (80101b8 <core_init+0xf0>)
 8010126:	601a      	str	r2, [r3, #0]
	bsw_timer_scheduleTask	 		= interface_base->scheduleSystemTask;
 8010128:	4b21      	ldr	r3, [pc, #132]	; (80101b0 <core_init+0xe8>)
 801012a:	681b      	ldr	r3, [r3, #0]
 801012c:	691a      	ldr	r2, [r3, #16]
 801012e:	4b23      	ldr	r3, [pc, #140]	; (80101bc <core_init+0xf4>)
 8010130:	601a      	str	r2, [r3, #0]
	bsw_timer_scheduleSlowTask 		= interface_base->scheduleSlowTask;
 8010132:	4b1f      	ldr	r3, [pc, #124]	; (80101b0 <core_init+0xe8>)
 8010134:	681b      	ldr	r3, [r3, #0]
 8010136:	695a      	ldr	r2, [r3, #20]
 8010138:	4b21      	ldr	r3, [pc, #132]	; (80101c0 <core_init+0xf8>)
 801013a:	601a      	str	r2, [r3, #0]
	bsw_getTick    	 				= interface_base->getTick;
 801013c:	4b1c      	ldr	r3, [pc, #112]	; (80101b0 <core_init+0xe8>)
 801013e:	681b      	ldr	r3, [r3, #0]
 8010140:	699a      	ldr	r2, [r3, #24]
 8010142:	4b20      	ldr	r3, [pc, #128]	; (80101c4 <core_init+0xfc>)
 8010144:	601a      	str	r2, [r3, #0]
	bsw_delay			 			= interface_base->delay;
 8010146:	4b1a      	ldr	r3, [pc, #104]	; (80101b0 <core_init+0xe8>)
 8010148:	681b      	ldr	r3, [r3, #0]
 801014a:	69da      	ldr	r2, [r3, #28]
 801014c:	4b1e      	ldr	r3, [pc, #120]	; (80101c8 <core_init+0x100>)
 801014e:	601a      	str	r2, [r3, #0]
	bsw_getRandomNumber 			= interface_base->getRandomNumber;
 8010150:	4b17      	ldr	r3, [pc, #92]	; (80101b0 <core_init+0xe8>)
 8010152:	681b      	ldr	r3, [r3, #0]
 8010154:	6a1a      	ldr	r2, [r3, #32]
 8010156:	4b1d      	ldr	r3, [pc, #116]	; (80101cc <core_init+0x104>)
 8010158:	601a      	str	r2, [r3, #0]
	bsw_lightEngine_getStatus		= interface_base->getLightEngineStatus;
 801015a:	4b15      	ldr	r3, [pc, #84]	; (80101b0 <core_init+0xe8>)
 801015c:	681b      	ldr	r3, [r3, #0]
 801015e:	6a9a      	ldr	r2, [r3, #40]	; 0x28
 8010160:	4b1b      	ldr	r3, [pc, #108]	; (80101d0 <core_init+0x108>)
 8010162:	601a      	str	r2, [r3, #0]
	bsw_lightEngine_startFade		= interface_base->startLightEngineFade;
 8010164:	4b12      	ldr	r3, [pc, #72]	; (80101b0 <core_init+0xe8>)
 8010166:	681b      	ldr	r3, [r3, #0]
 8010168:	6ada      	ldr	r2, [r3, #44]	; 0x2c
 801016a:	4b1a      	ldr	r3, [pc, #104]	; (80101d4 <core_init+0x10c>)
 801016c:	601a      	str	r2, [r3, #0]
	bsw_EEPROMInterface 			= interface_base->eepromInterface;
 801016e:	4b10      	ldr	r3, [pc, #64]	; (80101b0 <core_init+0xe8>)
 8010170:	681b      	ldr	r3, [r3, #0]
 8010172:	6b1a      	ldr	r2, [r3, #48]	; 0x30
 8010174:	4b18      	ldr	r3, [pc, #96]	; (80101d8 <core_init+0x110>)
 8010176:	601a      	str	r2, [r3, #0]
	bsw_telemetryInterface 			= interface_base->telemetryInterface;
 8010178:	4b0d      	ldr	r3, [pc, #52]	; (80101b0 <core_init+0xe8>)
 801017a:	681b      	ldr	r3, [r3, #0]
 801017c:	6b5a      	ldr	r2, [r3, #52]	; 0x34
 801017e:	4b17      	ldr	r3, [pc, #92]	; (80101dc <core_init+0x114>)
 8010180:	601a      	str	r2, [r3, #0]

	// communicate number of slow timers
	*nOfSlowTimers = logic_networkLayout.numberOfSlowTimers + CORE_BASE_TIME_NUMBER_OF;
 8010182:	4b17      	ldr	r3, [pc, #92]	; (80101e0 <core_init+0x118>)
 8010184:	785b      	ldrb	r3, [r3, #1]
 8010186:	3302      	adds	r3, #2
 8010188:	b2da      	uxtb	r2, r3
 801018a:	687b      	ldr	r3, [r7, #4]
 801018c:	701a      	strb	r2, [r3, #0]

	return ILB_HAL_OK;
 801018e:	2300      	movs	r3, #0
}
 8010190:	0018      	movs	r0, r3
 8010192:	46bd      	mov	sp, r7
 8010194:	b006      	add	sp, #24
 8010196:	bd80      	pop	{r7, pc}
 8010198:	080120b4 	.word	0x080120b4
 801019c:	20002800 	.word	0x20002800
 80101a0:	2000280c 	.word	0x2000280c
 80101a4:	2000280c 	.word	0x2000280c
 80101a8:	20002a58 	.word	0x20002a58
 80101ac:	0800ffb0 	.word	0x0800ffb0
 80101b0:	2000282c 	.word	0x2000282c
 80101b4:	20002a2c 	.word	0x20002a2c
 80101b8:	20002a30 	.word	0x20002a30
 80101bc:	20002a3c 	.word	0x20002a3c
 80101c0:	20002a54 	.word	0x20002a54
 80101c4:	20002a48 	.word	0x20002a48
 80101c8:	20002a34 	.word	0x20002a34
 80101cc:	20002a50 	.word	0x20002a50
 80101d0:	20002a4c 	.word	0x20002a4c
 80101d4:	20002a38 	.word	0x20002a38
 80101d8:	20002a44 	.word	0x20002a44
 80101dc:	20002a40 	.word	0x20002a40
 80101e0:	0801208c 	.word	0x0801208c

080101e4 <core_logic>:
/**
 * Primary routine for core
 * @return
 */
uint8_t core_logic(void)
{
 80101e4:	b590      	push	{r4, r7, lr}
 80101e6:	b083      	sub	sp, #12
 80101e8:	af00      	add	r7, sp, #0
	// handle change of state
	CoreStatus_t nextCoreStatus = coreStatus;
 80101ea:	1dfb      	adds	r3, r7, #7
 80101ec:	4a6d      	ldr	r2, [pc, #436]	; (80103a4 <core_logic+0x1c0>)
 80101ee:	7812      	ldrb	r2, [r2, #0]
 80101f0:	701a      	strb	r2, [r3, #0]

	switch (coreStatus)
 80101f2:	4b6c      	ldr	r3, [pc, #432]	; (80103a4 <core_logic+0x1c0>)
 80101f4:	781b      	ldrb	r3, [r3, #0]
 80101f6:	2b09      	cmp	r3, #9
 80101f8:	d900      	bls.n	80101fc <core_logic+0x18>
 80101fa:	e0b6      	b.n	801036a <core_logic+0x186>
 80101fc:	009a      	lsls	r2, r3, #2
 80101fe:	4b6a      	ldr	r3, [pc, #424]	; (80103a8 <core_logic+0x1c4>)
 8010200:	18d3      	adds	r3, r2, r3
 8010202:	681b      	ldr	r3, [r3, #0]
 8010204:	469f      	mov	pc, r3
	{
	case CORE_UNINITIALISED:
	{
		// before we do anything, allow peripherals to boot
		bsw_delay(SETTING_PERIPHERAL_BOOT_ALLOWANCE_MS);
 8010206:	4b69      	ldr	r3, [pc, #420]	; (80103ac <core_logic+0x1c8>)
 8010208:	681b      	ldr	r3, [r3, #0]
 801020a:	2296      	movs	r2, #150	; 0x96
 801020c:	0052      	lsls	r2, r2, #1
 801020e:	0010      	movs	r0, r2
 8010210:	4798      	blx	r3
		// check that we are dealing with a compatible logic interface
		// this check should not be necessary since we are checking from "the other side" as well
		// and this routine should only be called if the versions match. However, just to make sure...

		// start broadcast messages. We also need them to inicate logic or other errors
		broadcast_startBroadcastMessages();
 8010212:	f000 fff3 	bl	80111fc <broadcast_startBroadcastMessages>
		// TODO: check logic interface

		// TODO: special case, no peripherals. Jump straight to initialised case

		// check if we have configured a network previously
		nOfStoredPeripherals = adressing_recoverAddressTable();
 8010216:	f000 fd8b 	bl	8010d30 <adressing_recoverAddressTable>
 801021a:	0003      	movs	r3, r0
 801021c:	001a      	movs	r2, r3
 801021e:	4b64      	ldr	r3, [pc, #400]	; (80103b0 <core_logic+0x1cc>)
 8010220:	701a      	strb	r2, [r3, #0]
		// check for logic errors
		if (nOfStoredPeripherals < 0)
 8010222:	4b63      	ldr	r3, [pc, #396]	; (80103b0 <core_logic+0x1cc>)
 8010224:	781b      	ldrb	r3, [r3, #0]
 8010226:	b25b      	sxtb	r3, r3
 8010228:	2b00      	cmp	r3, #0
 801022a:	da03      	bge.n	8010234 <core_logic+0x50>
		{
			nextCoreStatus = CORE_LOGIC_ERROR;
 801022c:	1dfb      	adds	r3, r7, #7
 801022e:	220c      	movs	r2, #12
 8010230:	701a      	strb	r2, [r3, #0]
			break;
 8010232:	e09f      	b.n	8010374 <core_logic+0x190>
		}

		// number of entries in table matches. We must assume that this is ok
		if (nOfStoredPeripherals != 0)
 8010234:	4b5e      	ldr	r3, [pc, #376]	; (80103b0 <core_logic+0x1cc>)
 8010236:	781b      	ldrb	r3, [r3, #0]
 8010238:	b25b      	sxtb	r3, r3
 801023a:	2b00      	cmp	r3, #0
 801023c:	d00f      	beq.n	801025e <core_logic+0x7a>
		{
			// double check number match
			if (nOfStoredPeripherals != logic_networkLayout.totalNumberOfPeripherals)
 801023e:	4b5c      	ldr	r3, [pc, #368]	; (80103b0 <core_logic+0x1cc>)
 8010240:	781b      	ldrb	r3, [r3, #0]
 8010242:	b25b      	sxtb	r3, r3
 8010244:	001a      	movs	r2, r3
 8010246:	4b5b      	ldr	r3, [pc, #364]	; (80103b4 <core_logic+0x1d0>)
 8010248:	781b      	ldrb	r3, [r3, #0]
 801024a:	429a      	cmp	r2, r3
 801024c:	d003      	beq.n	8010256 <core_logic+0x72>
			{
				nextCoreStatus = CORE_ERROR_PERIPHERAL_MISSING;
 801024e:	1dfb      	adds	r3, r7, #7
 8010250:	220f      	movs	r2, #15
 8010252:	701a      	strb	r2, [r3, #0]
				break;
 8010254:	e08e      	b.n	8010374 <core_logic+0x190>
			}
			// we need to check the addresses that have been loaded
			nextCoreStatus = CORE_CHECK_PERIPHERALS;
 8010256:	1dfb      	adds	r3, r7, #7
 8010258:	2207      	movs	r2, #7
 801025a:	701a      	strb	r2, [r3, #0]
			break;
 801025c:	e08a      	b.n	8010374 <core_logic+0x190>
		}

		// if we reached here, no address table entries have been found in the memory. Start network discover
		nextCoreStatus = CORE_WAITING_FOR_PERIPHERAL_UID;
 801025e:	1dfb      	adds	r3, r7, #7
 8010260:	2204      	movs	r2, #4
 8010262:	701a      	strb	r2, [r3, #0]
		discovery_startNetworkDiscovery();
 8010264:	f001 f840 	bl	80112e8 <discovery_startNetworkDiscovery>
		break;
 8010268:	e084      	b.n	8010374 <core_logic+0x190>
	}

	// we are waiting for the peripherals to report their UID as part of the network discovery process.
	// the starting routine manages the state of the core
	case CORE_WAITING_FOR_PERIPHERAL_UID:
		switch(discovery_getState())
 801026a:	f001 f887 	bl	801137c <discovery_getState>
 801026e:	0003      	movs	r3, r0
 8010270:	2b04      	cmp	r3, #4
 8010272:	d008      	beq.n	8010286 <core_logic+0xa2>
 8010274:	dc11      	bgt.n	801029a <core_logic+0xb6>
 8010276:	2b00      	cmp	r3, #0
 8010278:	d009      	beq.n	801028e <core_logic+0xaa>
 801027a:	2b01      	cmp	r3, #1
 801027c:	d10d      	bne.n	801029a <core_logic+0xb6>
		{
		case ILB_HAL_ERROR:
			nextCoreStatus = CORE_INITIALISATION_ERROR;
 801027e:	1dfb      	adds	r3, r7, #7
 8010280:	2209      	movs	r2, #9
 8010282:	701a      	strb	r2, [r3, #0]
			break;
 8010284:	e00a      	b.n	801029c <core_logic+0xb8>

		case ILB_HAL_INVALID:
			nextCoreStatus = CORE_INITIALISATION_ERROR_NUMBER_MISMATCH;
 8010286:	1dfb      	adds	r3, r7, #7
 8010288:	220a      	movs	r2, #10
 801028a:	701a      	strb	r2, [r3, #0]
			break;
 801028c:	e006      	b.n	801029c <core_logic+0xb8>

		case ILB_HAL_OK:
			// process is done. Start the configuration
			discovery_startPeripheralCofiguration();
 801028e:	f001 fa79 	bl	8011784 <discovery_startPeripheralCofiguration>
			nextCoreStatus = CORE_CONFIGURING_PERIPHERALS;
 8010292:	1dfb      	adds	r3, r7, #7
 8010294:	2205      	movs	r2, #5
 8010296:	701a      	strb	r2, [r3, #0]
			break;
 8010298:	e000      	b.n	801029c <core_logic+0xb8>

		default:
			break;
 801029a:	46c0      	nop			; (mov r8, r8)
		}
		break;
 801029c:	e06a      	b.n	8010374 <core_logic+0x190>

	// we are in the peripheral configuration process
	case CORE_CONFIGURING_PERIPHERALS:
		// check the status of the configuration process
		// the re-entrant function discovery_configurePeripherals() will manage the core state in case of an error
		switch (discovery_configurePeripherals())
 801029e:	f001 fa81 	bl	80117a4 <discovery_configurePeripherals>
 80102a2:	0003      	movs	r3, r0
 80102a4:	2b02      	cmp	r3, #2
 80102a6:	d018      	beq.n	80102da <core_logic+0xf6>
 80102a8:	dc13      	bgt.n	80102d2 <core_logic+0xee>
 80102aa:	2b00      	cmp	r3, #0
 80102ac:	d002      	beq.n	80102b4 <core_logic+0xd0>
 80102ae:	2b01      	cmp	r3, #1
 80102b0:	d00b      	beq.n	80102ca <core_logic+0xe6>
 80102b2:	e00e      	b.n	80102d2 <core_logic+0xee>
		{
		case ILB_HAL_OK:
			// store address table
			if (addressing_storeAddressTableInMemory(logic_networkLayout.totalNumberOfPeripherals) == ILB_HAL_OK)
 80102b4:	4b3f      	ldr	r3, [pc, #252]	; (80103b4 <core_logic+0x1d0>)
 80102b6:	781b      	ldrb	r3, [r3, #0]
 80102b8:	0018      	movs	r0, r3
 80102ba:	f000 fe0f 	bl	8010edc <addressing_storeAddressTableInMemory>
 80102be:	1e03      	subs	r3, r0, #0
 80102c0:	d10b      	bne.n	80102da <core_logic+0xf6>
			{
				nextCoreStatus = CORE_INITIALISED;
 80102c2:	1dfb      	adds	r3, r7, #7
 80102c4:	2208      	movs	r2, #8
 80102c6:	701a      	strb	r2, [r3, #0]
				break;
 80102c8:	e008      	b.n	80102dc <core_logic+0xf8>
			// nothing to do. We are waiting for an answer
			break;

		case ILB_HAL_ERROR:
			// initialisation error
			nextCoreStatus = CORE_INITIALISATION_ERROR;
 80102ca:	1dfb      	adds	r3, r7, #7
 80102cc:	2209      	movs	r2, #9
 80102ce:	701a      	strb	r2, [r3, #0]
			break;
 80102d0:	e004      	b.n	80102dc <core_logic+0xf8>

		default:
			// error state
			nextCoreStatus = CORE_INITIALISATION_ERROR;
 80102d2:	1dfb      	adds	r3, r7, #7
 80102d4:	2209      	movs	r2, #9
 80102d6:	701a      	strb	r2, [r3, #0]
		}
		break;
 80102d8:	e04c      	b.n	8010374 <core_logic+0x190>
			break;
 80102da:	46c0      	nop			; (mov r8, r8)
		break;
 80102dc:	e04a      	b.n	8010374 <core_logic+0x190>
		break;

	// check the peripherals
	case CORE_CHECK_PERIPHERALS:
	{
		ILB_HAL_StatusTypeDef networkCheckStatus = networkCheck_confirmUIDOfPeripherals();
 80102de:	1dbc      	adds	r4, r7, #6
 80102e0:	f000 f972 	bl	80105c8 <networkCheck_confirmUIDOfPeripherals>
 80102e4:	0003      	movs	r3, r0
 80102e6:	7023      	strb	r3, [r4, #0]
		// check if process is ongoing
		if (networkCheckStatus == ILB_HAL_BUSY)
 80102e8:	1dbb      	adds	r3, r7, #6
 80102ea:	781b      	ldrb	r3, [r3, #0]
 80102ec:	2b02      	cmp	r3, #2
 80102ee:	d03e      	beq.n	801036e <core_logic+0x18a>
		{
			// nothing to do. process is still ongoing. We are probably waiting for an answer
			break;
		}
		// check if an error occured
		else if (networkCheckStatus == ILB_HAL_ERROR)
 80102f0:	1dbb      	adds	r3, r7, #6
 80102f2:	781b      	ldrb	r3, [r3, #0]
 80102f4:	2b01      	cmp	r3, #1
 80102f6:	d103      	bne.n	8010300 <core_logic+0x11c>
		{
			nextCoreStatus = CORE_INITIALISATION_ERROR;
 80102f8:	1dfb      	adds	r3, r7, #7
 80102fa:	2209      	movs	r2, #9
 80102fc:	701a      	strb	r2, [r3, #0]
			break;
 80102fe:	e039      	b.n	8010374 <core_logic+0x190>
		}
		// check for wrong peripherals
		else if (networkCheckStatus == ILB_HAL_INVALID)
 8010300:	1dbb      	adds	r3, r7, #6
 8010302:	781b      	ldrb	r3, [r3, #0]
 8010304:	2b04      	cmp	r3, #4
 8010306:	d106      	bne.n	8010316 <core_logic+0x132>
		{
			nextCoreStatus = CORE_ERROR_PERIPHERAL_MISSING;
 8010308:	1dfb      	adds	r3, r7, #7
 801030a:	220f      	movs	r2, #15
 801030c:	701a      	strb	r2, [r3, #0]
			core_setStatus(CORE_ERROR_PERIPHERAL_MISSING);
 801030e:	200f      	movs	r0, #15
 8010310:	f000 f856 	bl	80103c0 <core_setStatus>
			// process has terminated as intended
			nextCoreStatus = CORE_INITIALISED;
			break;
		}
	}
		break;
 8010314:	e02d      	b.n	8010372 <core_logic+0x18e>
		else if (networkCheckStatus == ILB_HAL_OK)
 8010316:	1dbb      	adds	r3, r7, #6
 8010318:	781b      	ldrb	r3, [r3, #0]
 801031a:	2b00      	cmp	r3, #0
 801031c:	d129      	bne.n	8010372 <core_logic+0x18e>
			nextCoreStatus = CORE_INITIALISED;
 801031e:	1dfb      	adds	r3, r7, #7
 8010320:	2208      	movs	r2, #8
 8010322:	701a      	strb	r2, [r3, #0]
			break;
 8010324:	e026      	b.n	8010374 <core_logic+0x190>

	// core running normally
	case CORE_INITIALISED:
		// check if we entered this case. If so, we need to do some initialisation tasks
		if (lastCoreStatus != CORE_INITIALISED)
 8010326:	4b24      	ldr	r3, [pc, #144]	; (80103b8 <core_logic+0x1d4>)
 8010328:	781b      	ldrb	r3, [r3, #0]
 801032a:	2b08      	cmp	r3, #8
 801032c:	d01a      	beq.n	8010364 <core_logic+0x180>
		{
			// start the periodic network check
			networkCheck_startPeriodicNetworkCheck();
 801032e:	f000 fa49 	bl	80107c4 <networkCheck_startPeriodicNetworkCheck>

			// emit start operation
			messaging_sendStartOperation();
 8010332:	f000 f913 	bl	801055c <messaging_sendStartOperation>

			// start managing the light engines
			if (lightEngine_initManager() != ILB_HAL_OK)
 8010336:	f001 fbcb 	bl	8011ad0 <lightEngine_initManager>
 801033a:	1e03      	subs	r3, r0, #0
 801033c:	d003      	beq.n	8010346 <core_logic+0x162>
			{
				nextCoreStatus = CORE_INITIALISATION_ERROR;
 801033e:	1dfb      	adds	r3, r7, #7
 8010340:	2209      	movs	r2, #9
 8010342:	701a      	strb	r2, [r3, #0]
				break;
 8010344:	e016      	b.n	8010374 <core_logic+0x190>
			}

			// indicate that we are done
			interface_base->setIndicator(DEVICE_GREEN_INDICATOR | DEVICE_GREEN_ONESHOT, 0xFF, 0x00);
 8010346:	4b1d      	ldr	r3, [pc, #116]	; (80103bc <core_logic+0x1d8>)
 8010348:	681b      	ldr	r3, [r3, #0]
 801034a:	6a5b      	ldr	r3, [r3, #36]	; 0x24
 801034c:	2200      	movs	r2, #0
 801034e:	21ff      	movs	r1, #255	; 0xff
 8010350:	2041      	movs	r0, #65	; 0x41
 8010352:	4798      	blx	r3

			// prepare persistent variables interface
			persistentVariables_init();
 8010354:	f000 fc72 	bl	8010c3c <persistentVariables_init>

			// start the logic
			logic_start();
 8010358:	f001 fda2 	bl	8011ea0 <logic_start>

			// send a broadcast message
			broadcast_queueBroadcastMessage();
 801035c:	f000 ffac 	bl	80112b8 <broadcast_queueBroadcastMessage>

			// start pushing status information
			informationDistribution_start();
 8010360:	f000 fbb8 	bl	8010ad4 <informationDistribution_start>
		}
		// execute the main event loop
		logic_eventLoop();
 8010364:	f001 fda1 	bl	8011eaa <logic_eventLoop>

		break;
 8010368:	e004      	b.n	8010374 <core_logic+0x190>
	case CORE_INITIALISATION_ERROR:
		// nothing to do here.
		break;

	default:
		break;
 801036a:	46c0      	nop			; (mov r8, r8)
 801036c:	e002      	b.n	8010374 <core_logic+0x190>
			break;
 801036e:	46c0      	nop			; (mov r8, r8)
 8010370:	e000      	b.n	8010374 <core_logic+0x190>
		break;
 8010372:	46c0      	nop			; (mov r8, r8)
	}

	// track changes
	lastCoreStatus = coreStatus;
 8010374:	4b0b      	ldr	r3, [pc, #44]	; (80103a4 <core_logic+0x1c0>)
 8010376:	781a      	ldrb	r2, [r3, #0]
 8010378:	4b0f      	ldr	r3, [pc, #60]	; (80103b8 <core_logic+0x1d4>)
 801037a:	701a      	strb	r2, [r3, #0]

	// check if a change is required
	if (coreStatus != nextCoreStatus)
 801037c:	4b09      	ldr	r3, [pc, #36]	; (80103a4 <core_logic+0x1c0>)
 801037e:	781b      	ldrb	r3, [r3, #0]
 8010380:	1dfa      	adds	r2, r7, #7
 8010382:	7812      	ldrb	r2, [r2, #0]
 8010384:	429a      	cmp	r2, r3
 8010386:	d004      	beq.n	8010392 <core_logic+0x1ae>
	{
		core_setStatus(nextCoreStatus);
 8010388:	1dfb      	adds	r3, r7, #7
 801038a:	781b      	ldrb	r3, [r3, #0]
 801038c:	0018      	movs	r0, r3
 801038e:	f000 f817 	bl	80103c0 <core_setStatus>
	}

	// handle broadcast messages
	broadcast_handle();
 8010392:	f000 ff45 	bl	8011220 <broadcast_handle>

	return coreStatus;
 8010396:	4b03      	ldr	r3, [pc, #12]	; (80103a4 <core_logic+0x1c0>)
 8010398:	781b      	ldrb	r3, [r3, #0]
}
 801039a:	0018      	movs	r0, r3
 801039c:	46bd      	mov	sp, r7
 801039e:	b003      	add	sp, #12
 80103a0:	bd90      	pop	{r4, r7, pc}
 80103a2:	46c0      	nop			; (mov r8, r8)
 80103a4:	20002828 	.word	0x20002828
 80103a8:	08011fc8 	.word	0x08011fc8
 80103ac:	20002a34 	.word	0x20002a34
 80103b0:	20002830 	.word	0x20002830
 80103b4:	0801208c 	.word	0x0801208c
 80103b8:	20002829 	.word	0x20002829
 80103bc:	2000282c 	.word	0x2000282c

080103c0 <core_setStatus>:
 * Handles eventual indication patterns and other tasks.
 *
 * @param status
 */
void core_setStatus(CoreStatus_t status)
{
 80103c0:	b580      	push	{r7, lr}
 80103c2:	b082      	sub	sp, #8
 80103c4:	af00      	add	r7, sp, #0
 80103c6:	0002      	movs	r2, r0
 80103c8:	1dfb      	adds	r3, r7, #7
 80103ca:	701a      	strb	r2, [r3, #0]
	// prevent change back from factory reset state
	if (coreStatus == CORE_EXECUTE_FACTORY_RESET) {
 80103cc:	4b49      	ldr	r3, [pc, #292]	; (80104f4 <core_setStatus+0x134>)
 80103ce:	781b      	ldrb	r3, [r3, #0]
 80103d0:	2b03      	cmp	r3, #3
 80103d2:	d100      	bne.n	80103d6 <core_setStatus+0x16>
 80103d4:	e089      	b.n	80104ea <core_setStatus+0x12a>
		return;
	}

	/// The core is set to the following states
	switch (status) {
 80103d6:	1dfb      	adds	r3, r7, #7
 80103d8:	781b      	ldrb	r3, [r3, #0]
 80103da:	2b12      	cmp	r3, #18
 80103dc:	d900      	bls.n	80103e0 <core_setStatus+0x20>
 80103de:	e079      	b.n	80104d4 <core_setStatus+0x114>
 80103e0:	009a      	lsls	r2, r3, #2
 80103e2:	4b45      	ldr	r3, [pc, #276]	; (80104f8 <core_setStatus+0x138>)
 80103e4:	18d3      	adds	r3, r2, r3
 80103e6:	681b      	ldr	r3, [r3, #0]
 80103e8:	469f      	mov	pc, r3
		/// - ::CORE_INITIALISED: The core is fully initialised. This is the normal operation state
	case CORE_INITIALISED:
		break;
		/// - ::CORE_INITIALISATION_ERROR: An unspecified error occurred during the initialisation. The system needs to be reset or power cycled
	case CORE_INITIALISATION_ERROR:
		interface_base->setIndicator(DEVICE_GREEN_INDICATOR | DEVICE_RED_INDICATOR, BLINK_PATTERN_INITIALISATION_ERROR_GREEN, BLINK_PATTERN_INITIALISATION_ERROR_RED);
 80103ea:	4b44      	ldr	r3, [pc, #272]	; (80104fc <core_setStatus+0x13c>)
 80103ec:	681b      	ldr	r3, [r3, #0]
 80103ee:	6a5b      	ldr	r3, [r3, #36]	; 0x24
 80103f0:	22a8      	movs	r2, #168	; 0xa8
 80103f2:	2100      	movs	r1, #0
 80103f4:	2003      	movs	r0, #3
 80103f6:	4798      	blx	r3
		lightEngine_setSaveState(BLINK_ATTACHED_LIGHT_ENGINE);
 80103f8:	2001      	movs	r0, #1
 80103fa:	f001 fc71 	bl	8011ce0 <lightEngine_setSaveState>
		broadcast_queueBroadcastMessage();
 80103fe:	f000 ff5b 	bl	80112b8 <broadcast_queueBroadcastMessage>
		break;
 8010402:	e068      	b.n	80104d6 <core_setStatus+0x116>
		/// - ::CORE_INITIALISATION_ERROR_NUMBER_MISMATCH: During initialisation it was found that the ILB network does not contain the expected number of peripherals
	case CORE_INITIALISATION_ERROR_NUMBER_MISMATCH:
		interface_base->setIndicator(DEVICE_GREEN_INDICATOR | DEVICE_RED_INDICATOR, BLINK_PATTERN_ERROR_NUMBER_MISMATCH_GREEN, BLINK_PATTERN_ERROR_NUMBER_MISMATCH_RED);
 8010404:	4b3d      	ldr	r3, [pc, #244]	; (80104fc <core_setStatus+0x13c>)
 8010406:	681b      	ldr	r3, [r3, #0]
 8010408:	6a5b      	ldr	r3, [r3, #36]	; 0x24
 801040a:	2280      	movs	r2, #128	; 0x80
 801040c:	2100      	movs	r1, #0
 801040e:	2003      	movs	r0, #3
 8010410:	4798      	blx	r3
		lightEngine_setSaveState(BLINK_ATTACHED_LIGHT_ENGINE);
 8010412:	2001      	movs	r0, #1
 8010414:	f001 fc64 	bl	8011ce0 <lightEngine_setSaveState>
		broadcast_queueBroadcastMessage();
 8010418:	f000 ff4e 	bl	80112b8 <broadcast_queueBroadcastMessage>
		break;
 801041c:	e05b      	b.n	80104d6 <core_setStatus+0x116>
		/// - ::CORE_INITIALISATION_ERROR_WRONG_PERIPHERALS: During initialisation it was found that the wrong types of peripherals were found
	case CORE_INITIALISATION_ERROR_WRONG_PERIPHERALS:
		interface_base->setIndicator(DEVICE_GREEN_INDICATOR | DEVICE_RED_INDICATOR, BLINK_PATTERN_ERROR_PERIPHERAL_TYPE_MISMATCH_GREEN, BLINK_PATTERN_ERROR_PERIPHERAL_TYPE_MISMATCH_RED);
 801041e:	4b37      	ldr	r3, [pc, #220]	; (80104fc <core_setStatus+0x13c>)
 8010420:	681b      	ldr	r3, [r3, #0]
 8010422:	6a5b      	ldr	r3, [r3, #36]	; 0x24
 8010424:	22a0      	movs	r2, #160	; 0xa0
 8010426:	2100      	movs	r1, #0
 8010428:	2003      	movs	r0, #3
 801042a:	4798      	blx	r3
		lightEngine_setSaveState(BLINK_ATTACHED_LIGHT_ENGINE);
 801042c:	2001      	movs	r0, #1
 801042e:	f001 fc57 	bl	8011ce0 <lightEngine_setSaveState>
		broadcast_queueBroadcastMessage();
 8010432:	f000 ff41 	bl	80112b8 <broadcast_queueBroadcastMessage>
		break;
 8010436:	e04e      	b.n	80104d6 <core_setStatus+0x116>
		/// - ::CORE_LOGIC_ERROR: An unspecified error occurred in the logic that caused the core to leave the normal logic loop
	case CORE_LOGIC_ERROR:
		break;
		/// - ::CORE_ERROR_PERIPHERAL_TRACKING: An error occurred while regularly checking if the same peripherals are still in the network.
	case CORE_ERROR_PERIPHERAL_TRACKING:
		interface_base->setIndicator(DEVICE_GREEN_INDICATOR | DEVICE_RED_INDICATOR, BLINK_PATTERN_ERROR_PERIPHERAL_TRACKING_GREEN, BLINK_PATTERN_ERROR_PERIPHERAL_TRACKING_RED);
 8010438:	4b30      	ldr	r3, [pc, #192]	; (80104fc <core_setStatus+0x13c>)
 801043a:	681b      	ldr	r3, [r3, #0]
 801043c:	6a5b      	ldr	r3, [r3, #36]	; 0x24
 801043e:	220f      	movs	r2, #15
 8010440:	21f0      	movs	r1, #240	; 0xf0
 8010442:	2003      	movs	r0, #3
 8010444:	4798      	blx	r3
		lightEngine_setSaveState(BLINK_ATTACHED_LIGHT_ENGINE);
 8010446:	2001      	movs	r0, #1
 8010448:	f001 fc4a 	bl	8011ce0 <lightEngine_setSaveState>
		// notify network
		broadcast_queueBroadcastMessage();
 801044c:	f000 ff34 	bl	80112b8 <broadcast_queueBroadcastMessage>
		break;
 8010450:	e041      	b.n	80104d6 <core_setStatus+0x116>
		/// - ::CORE_ERROR_PERIPHERAL_DOUBLE_ADDRESS: An error occurred during the network re-establisation where multiple peripherals seem to answer to the same address
	case CORE_ERROR_PERIPHERAL_DOUBLE_ADDRESS:
		interface_base->setIndicator(DEVICE_GREEN_INDICATOR | DEVICE_RED_INDICATOR, BLINK_PATTERN_ERROR_PERIPHERAL_TRACKING_GREEN, BLINK_PATTERN_ERROR_PERIPHERAL_TRACKING_RED);
 8010452:	4b2a      	ldr	r3, [pc, #168]	; (80104fc <core_setStatus+0x13c>)
 8010454:	681b      	ldr	r3, [r3, #0]
 8010456:	6a5b      	ldr	r3, [r3, #36]	; 0x24
 8010458:	220f      	movs	r2, #15
 801045a:	21f0      	movs	r1, #240	; 0xf0
 801045c:	2003      	movs	r0, #3
 801045e:	4798      	blx	r3
		lightEngine_setSaveState(BLINK_ATTACHED_LIGHT_ENGINE);
 8010460:	2001      	movs	r0, #1
 8010462:	f001 fc3d 	bl	8011ce0 <lightEngine_setSaveState>
		// notify network
		broadcast_queueBroadcastMessage();
 8010466:	f000 ff27 	bl	80112b8 <broadcast_queueBroadcastMessage>
		break;
 801046a:	e034      	b.n	80104d6 <core_setStatus+0x116>
		/// - ::CORE_ERROR_PERIPHERAL_MISSING: An error occurred during initial or periodic network check. An expected peripheral was not found
	case CORE_ERROR_PERIPHERAL_MISSING:
		interface_base->setIndicator(DEVICE_GREEN_INDICATOR | DEVICE_RED_INDICATOR, BLINK_PATTERN_ERROR_PERIPHERAL_MISSING_GREEN, BLINK_PATTERN_ERROR_PERIPHERAL_MISSING_RED);
 801046c:	4b23      	ldr	r3, [pc, #140]	; (80104fc <core_setStatus+0x13c>)
 801046e:	681b      	ldr	r3, [r3, #0]
 8010470:	6a5b      	ldr	r3, [r3, #36]	; 0x24
 8010472:	2202      	movs	r2, #2
 8010474:	21a8      	movs	r1, #168	; 0xa8
 8010476:	2003      	movs	r0, #3
 8010478:	4798      	blx	r3
		lightEngine_setSaveState(BLINK_ATTACHED_LIGHT_ENGINE);
 801047a:	2001      	movs	r0, #1
 801047c:	f001 fc30 	bl	8011ce0 <lightEngine_setSaveState>
		// notify network
		broadcast_queueBroadcastMessage();
 8010480:	f000 ff1a 	bl	80112b8 <broadcast_queueBroadcastMessage>
		break;
 8010484:	e027      	b.n	80104d6 <core_setStatus+0x116>
		/// - ::CORE_ERROR_PERIPHERAL_CHECK: An error occurred while checking for the peripherals in the network.
	case CORE_ERROR_PERIPHERAL_CHECK:
		interface_base->setIndicator(DEVICE_GREEN_INDICATOR | DEVICE_RED_INDICATOR, BLINK_PATTERN_ERROR_PERIPHERAL_CHECK_GREEN, BLINK_PATTERN_ERROR_PERIPHERAL_CHECK_RED);
 8010486:	4b1d      	ldr	r3, [pc, #116]	; (80104fc <core_setStatus+0x13c>)
 8010488:	681b      	ldr	r3, [r3, #0]
 801048a:	6a5b      	ldr	r3, [r3, #36]	; 0x24
 801048c:	2240      	movs	r2, #64	; 0x40
 801048e:	2180      	movs	r1, #128	; 0x80
 8010490:	2003      	movs	r0, #3
 8010492:	4798      	blx	r3
		lightEngine_setSaveState(BLINK_ATTACHED_LIGHT_ENGINE);
 8010494:	2001      	movs	r0, #1
 8010496:	f001 fc23 	bl	8011ce0 <lightEngine_setSaveState>
		// notify network
		broadcast_queueBroadcastMessage();
 801049a:	f000 ff0d 	bl	80112b8 <broadcast_queueBroadcastMessage>
		break;
 801049e:	e01a      	b.n	80104d6 <core_setStatus+0x116>
		break;
		/// - ::CORE_ERROR_OPEN_CIRCUIT: The core has detected an open circuit on the attached light engine
	case CORE_ERROR_OPEN_CIRCUIT:
		// open circuit detected
		// set the status byte
		register_core_setSystemFlag(ILB_SYSTEM_REPORT_LAMP_ERROR_FLAG);
 80104a0:	2008      	movs	r0, #8
 80104a2:	f000 fc13 	bl	8010ccc <register_core_setSystemFlag>
		// publish
		broadcast_queueBroadcastMessage();
 80104a6:	f000 ff07 	bl	80112b8 <broadcast_queueBroadcastMessage>
		// set indicator
		interface_base->setIndicator(DEVICE_GREEN_INDICATOR | DEVICE_RED_INDICATOR, BLINK_PATTERN_ERROR_OPEN_CIRCUIT_GREEN, BLINK_PATTERN_ERROR_OPEN_CIRCUIT_RED);
 80104aa:	4b14      	ldr	r3, [pc, #80]	; (80104fc <core_setStatus+0x13c>)
 80104ac:	681b      	ldr	r3, [r3, #0]
 80104ae:	6a5b      	ldr	r3, [r3, #36]	; 0x24
 80104b0:	22e0      	movs	r2, #224	; 0xe0
 80104b2:	2110      	movs	r1, #16
 80104b4:	2003      	movs	r0, #3
 80104b6:	4798      	blx	r3
		break;
 80104b8:	e00d      	b.n	80104d6 <core_setStatus+0x116>

		/// - ::CORE_ERROR_SHORT_CIRCUIT: The core has detected a short circuit on the attached light engine
	case CORE_ERROR_SHORT_CIRCUIT:
		// short circuit detected
		// set the status bit
		register_core_setSystemFlag(ILB_SYSTEM_REPORT_LAMP_FAILURE_FLAG);
 80104ba:	2002      	movs	r0, #2
 80104bc:	f000 fc06 	bl	8010ccc <register_core_setSystemFlag>
		// publish
		broadcast_queueBroadcastMessage();
 80104c0:	f000 fefa 	bl	80112b8 <broadcast_queueBroadcastMessage>
		// set indicator
		interface_base->setIndicator(DEVICE_GREEN_INDICATOR | DEVICE_RED_INDICATOR, BLINK_PATTERN_ERROR_SHORT_CIRCUIT_GREEN, BLINK_PATTERN_ERROR_SHORT_CIRCUIT_RED);
 80104c4:	4b0d      	ldr	r3, [pc, #52]	; (80104fc <core_setStatus+0x13c>)
 80104c6:	681b      	ldr	r3, [r3, #0]
 80104c8:	6a5b      	ldr	r3, [r3, #36]	; 0x24
 80104ca:	22e0      	movs	r2, #224	; 0xe0
 80104cc:	2114      	movs	r1, #20
 80104ce:	2003      	movs	r0, #3
 80104d0:	4798      	blx	r3
		break;
 80104d2:	e000      	b.n	80104d6 <core_setStatus+0x116>

	default:
		break;
 80104d4:	46c0      	nop			; (mov r8, r8)
	}

	// set the status
	coreStatus = status;
 80104d6:	4b07      	ldr	r3, [pc, #28]	; (80104f4 <core_setStatus+0x134>)
 80104d8:	1dfa      	adds	r2, r7, #7
 80104da:	7812      	ldrb	r2, [r2, #0]
 80104dc:	701a      	strb	r2, [r3, #0]

	// set the register
	register_core_setSystemStatus(status);
 80104de:	1dfb      	adds	r3, r7, #7
 80104e0:	781b      	ldrb	r3, [r3, #0]
 80104e2:	0018      	movs	r0, r3
 80104e4:	f000 fbe8 	bl	8010cb8 <register_core_setSystemStatus>
 80104e8:	e000      	b.n	80104ec <core_setStatus+0x12c>
		return;
 80104ea:	46c0      	nop			; (mov r8, r8)
}
 80104ec:	46bd      	mov	sp, r7
 80104ee:	b002      	add	sp, #8
 80104f0:	bd80      	pop	{r7, pc}
 80104f2:	46c0      	nop			; (mov r8, r8)
 80104f4:	20002828 	.word	0x20002828
 80104f8:	08011ff0 	.word	0x08011ff0
 80104fc:	2000282c 	.word	0x2000282c

08010500 <core_getStatus>:
/**
 * Accessor to status of core
 * @return
 */
CoreStatus_t core_getStatus(void)
{
 8010500:	b580      	push	{r7, lr}
 8010502:	af00      	add	r7, sp, #0
	return coreStatus;
 8010504:	4b02      	ldr	r3, [pc, #8]	; (8010510 <core_getStatus+0x10>)
 8010506:	781b      	ldrb	r3, [r3, #0]
}
 8010508:	0018      	movs	r0, r3
 801050a:	46bd      	mov	sp, r7
 801050c:	bd80      	pop	{r7, pc}
 801050e:	46c0      	nop			; (mov r8, r8)
 8010510:	20002828 	.word	0x20002828

08010514 <core_commandHandler>:

// logic handler defined in logic library
extern void logic_handleCommand(ILBMessageStruct* m, uint8_t addressIndex);

void core_commandHandler(ILBMessageStruct *m)
{
 8010514:	b580      	push	{r7, lr}
 8010516:	b082      	sub	sp, #8
 8010518:	af00      	add	r7, sp, #0
 801051a:	6078      	str	r0, [r7, #4]
	// forward to logic
	logic_handleCommand(m, addressing_getIndexOfAddress(m->address));
 801051c:	687b      	ldr	r3, [r7, #4]
 801051e:	781b      	ldrb	r3, [r3, #0]
 8010520:	0018      	movs	r0, r3
 8010522:	f000 fdc3 	bl	80110ac <addressing_getIndexOfAddress>
 8010526:	0003      	movs	r3, r0
 8010528:	001a      	movs	r2, r3
 801052a:	687b      	ldr	r3, [r7, #4]
 801052c:	0011      	movs	r1, r2
 801052e:	0018      	movs	r0, r3
 8010530:	f001 fcc2 	bl	8011eb8 <logic_handleCommand>
}
 8010534:	46c0      	nop			; (mov r8, r8)
 8010536:	46bd      	mov	sp, r7
 8010538:	b002      	add	sp, #8
 801053a:	bd80      	pop	{r7, pc}

0801053c <core_readHandler>:

void core_readHandler(ILBMessageStruct *m)
{
 801053c:	b580      	push	{r7, lr}
 801053e:	b082      	sub	sp, #8
 8010540:	af00      	add	r7, sp, #0
 8010542:	6078      	str	r0, [r7, #4]

}
 8010544:	46c0      	nop			; (mov r8, r8)
 8010546:	46bd      	mov	sp, r7
 8010548:	b002      	add	sp, #8
 801054a:	bd80      	pop	{r7, pc}

0801054c <core_writeHandler>:

void core_writeHandler(ILBMessageStruct *m)
{
 801054c:	b580      	push	{r7, lr}
 801054e:	b082      	sub	sp, #8
 8010550:	af00      	add	r7, sp, #0
 8010552:	6078      	str	r0, [r7, #4]

}
 8010554:	46c0      	nop			; (mov r8, r8)
 8010556:	46bd      	mov	sp, r7
 8010558:	b002      	add	sp, #8
 801055a:	bd80      	pop	{r7, pc}

0801055c <messaging_sendStartOperation>:

/**
 * Send the start operation message
 */
void messaging_sendStartOperation(void)
{
 801055c:	b590      	push	{r4, r7, lr}
 801055e:	b093      	sub	sp, #76	; 0x4c
 8010560:	af00      	add	r7, sp, #0
	ILBMessageStruct msg;
	msg.address = ILB_MESSAGE_BROADCAST_ADDRESS;
 8010562:	1d3b      	adds	r3, r7, #4
 8010564:	2200      	movs	r2, #0
 8010566:	701a      	strb	r2, [r3, #0]
	msg.identifier = ILB_GENERATE_IDENTIFIER;
 8010568:	1d3b      	adds	r3, r7, #4
 801056a:	22ff      	movs	r2, #255	; 0xff
 801056c:	709a      	strb	r2, [r3, #2]
	msg.messageType = ILB_MESSAGE_COMMAND;
 801056e:	1d3b      	adds	r3, r7, #4
 8010570:	22c0      	movs	r2, #192	; 0xc0
 8010572:	705a      	strb	r2, [r3, #1]
	msg.payloadSize = 1;
 8010574:	1d3b      	adds	r3, r7, #4
 8010576:	2201      	movs	r2, #1
 8010578:	70da      	strb	r2, [r3, #3]
	msg.payload[0] = ILB_START_OPERATION;
 801057a:	1d3b      	adds	r3, r7, #4
 801057c:	2210      	movs	r2, #16
 801057e:	711a      	strb	r2, [r3, #4]
	bsw_messaging_sendMessage(&msg, NULL, 0, NULL);
 8010580:	4b05      	ldr	r3, [pc, #20]	; (8010598 <messaging_sendStartOperation+0x3c>)
 8010582:	681c      	ldr	r4, [r3, #0]
 8010584:	1d38      	adds	r0, r7, #4
 8010586:	2300      	movs	r3, #0
 8010588:	2200      	movs	r2, #0
 801058a:	2100      	movs	r1, #0
 801058c:	47a0      	blx	r4
}
 801058e:	46c0      	nop			; (mov r8, r8)
 8010590:	46bd      	mov	sp, r7
 8010592:	b013      	add	sp, #76	; 0x4c
 8010594:	bd90      	pop	{r4, r7, pc}
 8010596:	46c0      	nop			; (mov r8, r8)
 8010598:	20002a2c 	.word	0x20002a2c

0801059c <coreLib_respondWithCode>:
 * @param msg
 * @param code
 * @return
 */
ILB_HAL_StatusTypeDef coreLib_respondWithCode(ILBMessageStruct* msg, ILBErrorTypeDef code)
{
 801059c:	b580      	push	{r7, lr}
 801059e:	b082      	sub	sp, #8
 80105a0:	af00      	add	r7, sp, #0
 80105a2:	6078      	str	r0, [r7, #4]
 80105a4:	000a      	movs	r2, r1
 80105a6:	1cfb      	adds	r3, r7, #3
 80105a8:	701a      	strb	r2, [r3, #0]
	return bsw_messaging_respondCode(msg, code);
 80105aa:	4b06      	ldr	r3, [pc, #24]	; (80105c4 <coreLib_respondWithCode+0x28>)
 80105ac:	681b      	ldr	r3, [r3, #0]
 80105ae:	1cfa      	adds	r2, r7, #3
 80105b0:	7811      	ldrb	r1, [r2, #0]
 80105b2:	687a      	ldr	r2, [r7, #4]
 80105b4:	0010      	movs	r0, r2
 80105b6:	4798      	blx	r3
 80105b8:	0003      	movs	r3, r0
}
 80105ba:	0018      	movs	r0, r3
 80105bc:	46bd      	mov	sp, r7
 80105be:	b002      	add	sp, #8
 80105c0:	bd80      	pop	{r7, pc}
 80105c2:	46c0      	nop			; (mov r8, r8)
 80105c4:	20002a30 	.word	0x20002a30

080105c8 <networkCheck_confirmUIDOfPeripherals>:
 * progress a step or try again.
 *
 * @return ILB_HAL_OK if the process has terminted, ILB_HAL_BUSY, when the process is ongoing, ILB_HAL_ERROR in case of an error. ILB_HAL_INVALID is returned if a discrepancy between stored and found peripherals is encountered
 */
ILB_HAL_StatusTypeDef networkCheck_confirmUIDOfPeripherals(void)
{
 80105c8:	b590      	push	{r4, r7, lr}
 80105ca:	b093      	sub	sp, #76	; 0x4c
 80105cc:	af00      	add	r7, sp, #0
	// check if an error occured
	if (coreTrackerStatus == CORE_TRACKER_CHECK_STATUS_ERROR)
 80105ce:	4b22      	ldr	r3, [pc, #136]	; (8010658 <networkCheck_confirmUIDOfPeripherals+0x90>)
 80105d0:	781b      	ldrb	r3, [r3, #0]
 80105d2:	2b03      	cmp	r3, #3
 80105d4:	d101      	bne.n	80105da <networkCheck_confirmUIDOfPeripherals+0x12>
	{
		return ILB_HAL_ERROR;
 80105d6:	2301      	movs	r3, #1
 80105d8:	e03a      	b.n	8010650 <networkCheck_confirmUIDOfPeripherals+0x88>
	}

	if (coreTrackerStatus == CORE_TRACKER_CHECK_STATUS_PERIPHERAL_MISSING)
 80105da:	4b1f      	ldr	r3, [pc, #124]	; (8010658 <networkCheck_confirmUIDOfPeripherals+0x90>)
 80105dc:	781b      	ldrb	r3, [r3, #0]
 80105de:	2b04      	cmp	r3, #4
 80105e0:	d101      	bne.n	80105e6 <networkCheck_confirmUIDOfPeripherals+0x1e>
	{
		return ILB_HAL_INVALID;
 80105e2:	2304      	movs	r3, #4
 80105e4:	e034      	b.n	8010650 <networkCheck_confirmUIDOfPeripherals+0x88>
	}

	// check if we are waiting for an answer or can progress
	if (coreTrackerStatus == CORE_TRACKER_CHECK_STATUS_READY)
 80105e6:	4b1c      	ldr	r3, [pc, #112]	; (8010658 <networkCheck_confirmUIDOfPeripherals+0x90>)
 80105e8:	781b      	ldrb	r3, [r3, #0]
 80105ea:	2b02      	cmp	r3, #2
 80105ec:	d12f      	bne.n	801064e <networkCheck_confirmUIDOfPeripherals+0x86>
	{
		if (nOfCheckedPeripherals == logic_networkLayout.totalNumberOfPeripherals)
 80105ee:	4b1b      	ldr	r3, [pc, #108]	; (801065c <networkCheck_confirmUIDOfPeripherals+0x94>)
 80105f0:	781a      	ldrb	r2, [r3, #0]
 80105f2:	4b1b      	ldr	r3, [pc, #108]	; (8010660 <networkCheck_confirmUIDOfPeripherals+0x98>)
 80105f4:	781b      	ldrb	r3, [r3, #0]
 80105f6:	429a      	cmp	r2, r3
 80105f8:	d101      	bne.n	80105fe <networkCheck_confirmUIDOfPeripherals+0x36>
		{
			// we checked all of them. All good
			return ILB_HAL_OK;
 80105fa:	2300      	movs	r3, #0
 80105fc:	e028      	b.n	8010650 <networkCheck_confirmUIDOfPeripherals+0x88>
		}
		// we need to check the next one
		ILBMessageStruct query;
		query.address = addressing_getAddressForIndex(nOfCheckedPeripherals);
 80105fe:	4b18      	ldr	r3, [pc, #96]	; (8010660 <networkCheck_confirmUIDOfPeripherals+0x98>)
 8010600:	781b      	ldrb	r3, [r3, #0]
 8010602:	0018      	movs	r0, r3
 8010604:	f000 fd7e 	bl	8011104 <addressing_getAddressForIndex>
 8010608:	0003      	movs	r3, r0
 801060a:	001a      	movs	r2, r3
 801060c:	1d3b      	adds	r3, r7, #4
 801060e:	701a      	strb	r2, [r3, #0]
		query.identifier = ILB_GENERATE_IDENTIFIER;
 8010610:	1d3b      	adds	r3, r7, #4
 8010612:	22ff      	movs	r2, #255	; 0xff
 8010614:	709a      	strb	r2, [r3, #2]
		query.messageType = ILB_MESSAGE_READ;
 8010616:	1d3b      	adds	r3, r7, #4
 8010618:	2200      	movs	r2, #0
 801061a:	705a      	strb	r2, [r3, #1]
		query.payloadSize = 3;
 801061c:	1d3b      	adds	r3, r7, #4
 801061e:	2203      	movs	r2, #3
 8010620:	70da      	strb	r2, [r3, #3]
		query.payload[0] = ILB_PERIPHERAL_INFO_BASE_ADDRESS;
 8010622:	1d3b      	adds	r3, r7, #4
 8010624:	2200      	movs	r2, #0
 8010626:	711a      	strb	r2, [r3, #4]
		query.payload[1] = ILB_UID_BASE_ADDRESS;
 8010628:	1d3b      	adds	r3, r7, #4
 801062a:	2200      	movs	r2, #0
 801062c:	715a      	strb	r2, [r3, #5]
		query.payload[2] = 4;
 801062e:	1d3b      	adds	r3, r7, #4
 8010630:	2204      	movs	r2, #4
 8010632:	719a      	strb	r2, [r3, #6]

		// send and set status
		bsw_messaging_sendMessage(&query, handlePeripheralCheckCallback, TRACKER_CHECK_TIMEOUT_MS, handlePeripheralCheckTimeout);
 8010634:	4b0b      	ldr	r3, [pc, #44]	; (8010664 <networkCheck_confirmUIDOfPeripherals+0x9c>)
 8010636:	681c      	ldr	r4, [r3, #0]
 8010638:	4b0b      	ldr	r3, [pc, #44]	; (8010668 <networkCheck_confirmUIDOfPeripherals+0xa0>)
 801063a:	22fa      	movs	r2, #250	; 0xfa
 801063c:	0052      	lsls	r2, r2, #1
 801063e:	490b      	ldr	r1, [pc, #44]	; (801066c <networkCheck_confirmUIDOfPeripherals+0xa4>)
 8010640:	1d38      	adds	r0, r7, #4
 8010642:	47a0      	blx	r4
		coreTrackerStatus = CORE_TRACKER_CHECK_STATUS_WAITING;
 8010644:	4b04      	ldr	r3, [pc, #16]	; (8010658 <networkCheck_confirmUIDOfPeripherals+0x90>)
 8010646:	2200      	movs	r2, #0
 8010648:	701a      	strb	r2, [r3, #0]
		return ILB_HAL_BUSY;
 801064a:	2302      	movs	r3, #2
 801064c:	e000      	b.n	8010650 <networkCheck_confirmUIDOfPeripherals+0x88>
	}
	// we are waiting for an answer. Timeout is handled by separate callback
	return ILB_HAL_BUSY;
 801064e:	2302      	movs	r3, #2
}
 8010650:	0018      	movs	r0, r3
 8010652:	46bd      	mov	sp, r7
 8010654:	b013      	add	sp, #76	; 0x4c
 8010656:	bd90      	pop	{r4, r7, pc}
 8010658:	20002800 	.word	0x20002800
 801065c:	0801208c 	.word	0x0801208c
 8010660:	20002832 	.word	0x20002832
 8010664:	20002a2c 	.word	0x20002a2c
 8010668:	08010761 	.word	0x08010761
 801066c:	08010671 	.word	0x08010671

08010670 <handlePeripheralCheckCallback>:
 * iteration.
 *
 * \param message Pointer to ::ILBMessageStruct containing the reply message
 */
void handlePeripheralCheckCallback(ILBMessageStruct* message)
{
 8010670:	b590      	push	{r4, r7, lr}
 8010672:	b097      	sub	sp, #92	; 0x5c
 8010674:	af00      	add	r7, sp, #0
 8010676:	6078      	str	r0, [r7, #4]
	// check the payload length
	if (message->payloadSize != 4) {
 8010678:	687b      	ldr	r3, [r7, #4]
 801067a:	78db      	ldrb	r3, [r3, #3]
 801067c:	2b04      	cmp	r3, #4
 801067e:	d003      	beq.n	8010688 <handlePeripheralCheckCallback+0x18>
		// payload length does not agree. This means the peripheral sent a wrong answer. This could be
		// because it is not the correct peripheral or because of another error
		coreTrackerStatus = CORE_TRACKER_CHECK_STATUS_ERROR;
 8010680:	4b32      	ldr	r3, [pc, #200]	; (801074c <handlePeripheralCheckCallback+0xdc>)
 8010682:	2203      	movs	r2, #3
 8010684:	701a      	strb	r2, [r3, #0]
		return;
 8010686:	e05e      	b.n	8010746 <handlePeripheralCheckCallback+0xd6>
	}

	// we have the correct payload length. Check against entry
	uint32_t receivedUID = 0;
 8010688:	2300      	movs	r3, #0
 801068a:	657b      	str	r3, [r7, #84]	; 0x54
	for (uint8_t i=0; i<4; i++) {
 801068c:	2353      	movs	r3, #83	; 0x53
 801068e:	18fb      	adds	r3, r7, r3
 8010690:	2200      	movs	r2, #0
 8010692:	701a      	strb	r2, [r3, #0]
 8010694:	e016      	b.n	80106c4 <handlePeripheralCheckCallback+0x54>
		receivedUID |= (message->payload[i] << ((3-i)*8));
 8010696:	2053      	movs	r0, #83	; 0x53
 8010698:	183b      	adds	r3, r7, r0
 801069a:	781b      	ldrb	r3, [r3, #0]
 801069c:	687a      	ldr	r2, [r7, #4]
 801069e:	18d3      	adds	r3, r2, r3
 80106a0:	791b      	ldrb	r3, [r3, #4]
 80106a2:	0019      	movs	r1, r3
 80106a4:	183b      	adds	r3, r7, r0
 80106a6:	781b      	ldrb	r3, [r3, #0]
 80106a8:	2203      	movs	r2, #3
 80106aa:	1ad3      	subs	r3, r2, r3
 80106ac:	00db      	lsls	r3, r3, #3
 80106ae:	4099      	lsls	r1, r3
 80106b0:	000b      	movs	r3, r1
 80106b2:	001a      	movs	r2, r3
 80106b4:	6d7b      	ldr	r3, [r7, #84]	; 0x54
 80106b6:	4313      	orrs	r3, r2
 80106b8:	657b      	str	r3, [r7, #84]	; 0x54
	for (uint8_t i=0; i<4; i++) {
 80106ba:	183b      	adds	r3, r7, r0
 80106bc:	781a      	ldrb	r2, [r3, #0]
 80106be:	183b      	adds	r3, r7, r0
 80106c0:	3201      	adds	r2, #1
 80106c2:	701a      	strb	r2, [r3, #0]
 80106c4:	2353      	movs	r3, #83	; 0x53
 80106c6:	18fb      	adds	r3, r7, r3
 80106c8:	781b      	ldrb	r3, [r3, #0]
 80106ca:	2b03      	cmp	r3, #3
 80106cc:	d9e3      	bls.n	8010696 <handlePeripheralCheckCallback+0x26>
	}
	if (addressing_getAddressTableEntry(nOfCheckedPeripherals)->UID != receivedUID) {
 80106ce:	4b20      	ldr	r3, [pc, #128]	; (8010750 <handlePeripheralCheckCallback+0xe0>)
 80106d0:	781b      	ldrb	r3, [r3, #0]
 80106d2:	0018      	movs	r0, r3
 80106d4:	f000 fcce 	bl	8011074 <addressing_getAddressTableEntry>
 80106d8:	0003      	movs	r3, r0
 80106da:	685b      	ldr	r3, [r3, #4]
 80106dc:	6d7a      	ldr	r2, [r7, #84]	; 0x54
 80106de:	429a      	cmp	r2, r3
 80106e0:	d003      	beq.n	80106ea <handlePeripheralCheckCallback+0x7a>
		// error
		coreTrackerStatus = CORE_TRACKER_CHECK_STATUS_PERIPHERAL_MISSING;
 80106e2:	4b1a      	ldr	r3, [pc, #104]	; (801074c <handlePeripheralCheckCallback+0xdc>)
 80106e4:	2204      	movs	r2, #4
 80106e6:	701a      	strb	r2, [r3, #0]
		return;
 80106e8:	e02d      	b.n	8010746 <handlePeripheralCheckCallback+0xd6>
	}
	// all good. Write new tracker variable to peripheral
	ILBMessageStruct check;
	check.address = addressing_getAddressTableEntry(nOfCheckedPeripherals)->address;
 80106ea:	4b19      	ldr	r3, [pc, #100]	; (8010750 <handlePeripheralCheckCallback+0xe0>)
 80106ec:	781b      	ldrb	r3, [r3, #0]
 80106ee:	0018      	movs	r0, r3
 80106f0:	f000 fcc0 	bl	8011074 <addressing_getAddressTableEntry>
 80106f4:	0003      	movs	r3, r0
 80106f6:	781a      	ldrb	r2, [r3, #0]
 80106f8:	240c      	movs	r4, #12
 80106fa:	193b      	adds	r3, r7, r4
 80106fc:	701a      	strb	r2, [r3, #0]
	check.identifier = ILB_GENERATE_IDENTIFIER;
 80106fe:	193b      	adds	r3, r7, r4
 8010700:	22ff      	movs	r2, #255	; 0xff
 8010702:	709a      	strb	r2, [r3, #2]
	check.messageType = ILB_MESSAGE_WRITE;
 8010704:	193b      	adds	r3, r7, r4
 8010706:	2240      	movs	r2, #64	; 0x40
 8010708:	705a      	strb	r2, [r3, #1]
	check.payloadSize = 3;
 801070a:	193b      	adds	r3, r7, r4
 801070c:	2203      	movs	r2, #3
 801070e:	70da      	strb	r2, [r3, #3]
	check.payload[0] = ILB_PERIPHERAL_STATUS_BASE_ADDRESS;
 8010710:	193b      	adds	r3, r7, r4
 8010712:	2201      	movs	r2, #1
 8010714:	711a      	strb	r2, [r3, #4]
	check.payload[1] = ILB_TRACKER_SUB_ADDRESS;
 8010716:	193b      	adds	r3, r7, r4
 8010718:	2200      	movs	r2, #0
 801071a:	715a      	strb	r2, [r3, #5]
	check.payload[2] = addressing_assingTrackerValueToAddress(nOfCheckedPeripherals);
 801071c:	4b0c      	ldr	r3, [pc, #48]	; (8010750 <handlePeripheralCheckCallback+0xe0>)
 801071e:	781b      	ldrb	r3, [r3, #0]
 8010720:	0018      	movs	r0, r3
 8010722:	f000 fd0b 	bl	801113c <addressing_assingTrackerValueToAddress>
 8010726:	0003      	movs	r3, r0
 8010728:	001a      	movs	r2, r3
 801072a:	0020      	movs	r0, r4
 801072c:	183b      	adds	r3, r7, r0
 801072e:	719a      	strb	r2, [r3, #6]

	bsw_messaging_sendMessage(&check, trackerUpdateCallback, TRACKER_CHECK_TIMEOUT_MS, trackerUpdateTimeoutCallback);
 8010730:	4b08      	ldr	r3, [pc, #32]	; (8010754 <handlePeripheralCheckCallback+0xe4>)
 8010732:	681c      	ldr	r4, [r3, #0]
 8010734:	4b08      	ldr	r3, [pc, #32]	; (8010758 <handlePeripheralCheckCallback+0xe8>)
 8010736:	22fa      	movs	r2, #250	; 0xfa
 8010738:	0052      	lsls	r2, r2, #1
 801073a:	4908      	ldr	r1, [pc, #32]	; (801075c <handlePeripheralCheckCallback+0xec>)
 801073c:	1838      	adds	r0, r7, r0
 801073e:	47a0      	blx	r4

	// set status that we are applying the new tracker
	coreTrackerStatus = CORE_TRACKER_CHECK_APPLYING;
 8010740:	4b02      	ldr	r3, [pc, #8]	; (801074c <handlePeripheralCheckCallback+0xdc>)
 8010742:	2201      	movs	r2, #1
 8010744:	701a      	strb	r2, [r3, #0]
}
 8010746:	46bd      	mov	sp, r7
 8010748:	b017      	add	sp, #92	; 0x5c
 801074a:	bd90      	pop	{r4, r7, pc}
 801074c:	20002800 	.word	0x20002800
 8010750:	20002832 	.word	0x20002832
 8010754:	20002a2c 	.word	0x20002a2c
 8010758:	080107b5 	.word	0x080107b5
 801075c:	08010775 	.word	0x08010775

08010760 <handlePeripheralCheckTimeout>:
 * - no longer in the network
 * - does not reply because it is powered own or broken
 * Either way, it is considered missing and the satus of the core is set accordingly
 */
void handlePeripheralCheckTimeout(void)
{
 8010760:	b580      	push	{r7, lr}
 8010762:	af00      	add	r7, sp, #0
	// indicate that the peripheral is missing
	coreTrackerStatus = CORE_TRACKER_CHECK_STATUS_PERIPHERAL_MISSING;
 8010764:	4b02      	ldr	r3, [pc, #8]	; (8010770 <handlePeripheralCheckTimeout+0x10>)
 8010766:	2204      	movs	r2, #4
 8010768:	701a      	strb	r2, [r3, #0]
}
 801076a:	46c0      	nop			; (mov r8, r8)
 801076c:	46bd      	mov	sp, r7
 801076e:	bd80      	pop	{r7, pc}
 8010770:	20002800 	.word	0x20002800

08010774 <trackerUpdateCallback>:

/**
 * Callback for tracker update write message
 */
void trackerUpdateCallback(ILBMessageStruct* message)
{
 8010774:	b580      	push	{r7, lr}
 8010776:	b082      	sub	sp, #8
 8010778:	af00      	add	r7, sp, #0
 801077a:	6078      	str	r0, [r7, #4]
	// check for ILB_OK message
	if (message->payloadSize == 1 && message->payload[0] == ILB_OK) {
 801077c:	687b      	ldr	r3, [r7, #4]
 801077e:	78db      	ldrb	r3, [r3, #3]
 8010780:	2b01      	cmp	r3, #1
 8010782:	d10d      	bne.n	80107a0 <trackerUpdateCallback+0x2c>
 8010784:	687b      	ldr	r3, [r7, #4]
 8010786:	791b      	ldrb	r3, [r3, #4]
 8010788:	2b00      	cmp	r3, #0
 801078a:	d109      	bne.n	80107a0 <trackerUpdateCallback+0x2c>
		// all good, proceed to next
		nOfCheckedPeripherals++;
 801078c:	4b07      	ldr	r3, [pc, #28]	; (80107ac <trackerUpdateCallback+0x38>)
 801078e:	781b      	ldrb	r3, [r3, #0]
 8010790:	3301      	adds	r3, #1
 8010792:	b2da      	uxtb	r2, r3
 8010794:	4b05      	ldr	r3, [pc, #20]	; (80107ac <trackerUpdateCallback+0x38>)
 8010796:	701a      	strb	r2, [r3, #0]
		coreTrackerStatus = CORE_TRACKER_CHECK_STATUS_READY;
 8010798:	4b05      	ldr	r3, [pc, #20]	; (80107b0 <trackerUpdateCallback+0x3c>)
 801079a:	2202      	movs	r2, #2
 801079c:	701a      	strb	r2, [r3, #0]
		return;
 801079e:	e002      	b.n	80107a6 <trackerUpdateCallback+0x32>
	} else {
		// something went wrong updating the tracker. Mark as error
		core_setStatus(CORE_ERROR_PERIPHERAL_TRACKING);
 80107a0:	200d      	movs	r0, #13
 80107a2:	f7ff fe0d 	bl	80103c0 <core_setStatus>
	}
}
 80107a6:	46bd      	mov	sp, r7
 80107a8:	b002      	add	sp, #8
 80107aa:	bd80      	pop	{r7, pc}
 80107ac:	20002832 	.word	0x20002832
 80107b0:	20002800 	.word	0x20002800

080107b4 <trackerUpdateTimeoutCallback>:
 *
 * This function is called if the peripheral fails to respond to the tracker reading.
 *
 */
void trackerUpdateTimeoutCallback(void)
{
 80107b4:	b580      	push	{r7, lr}
 80107b6:	af00      	add	r7, sp, #0
	// the update process did timeout. We could not write the new tracker value to the peripehral
	// enter error state
	core_setStatus(CORE_ERROR_PERIPHERAL_TRACKING);
 80107b8:	200d      	movs	r0, #13
 80107ba:	f7ff fe01 	bl	80103c0 <core_setStatus>
}
 80107be:	46c0      	nop			; (mov r8, r8)
 80107c0:	46bd      	mov	sp, r7
 80107c2:	bd80      	pop	{r7, pc}

080107c4 <networkCheck_startPeriodicNetworkCheck>:
 * Start the periodic network check
 *
 * This will trigger a sequence that iterates through the peripherals and reads their tracker byte and compares it with the stored byte
 */
void networkCheck_startPeriodicNetworkCheck(void)
{
 80107c4:	b580      	push	{r7, lr}
 80107c6:	af00      	add	r7, sp, #0
	if (logic_networkLayout.totalNumberOfPeripherals > 0) {
 80107c8:	4b07      	ldr	r3, [pc, #28]	; (80107e8 <networkCheck_startPeriodicNetworkCheck+0x24>)
 80107ca:	781b      	ldrb	r3, [r3, #0]
 80107cc:	2b00      	cmp	r3, #0
 80107ce:	d008      	beq.n	80107e2 <networkCheck_startPeriodicNetworkCheck+0x1e>
		nOfCheckedPeripherals = 0;
 80107d0:	4b06      	ldr	r3, [pc, #24]	; (80107ec <networkCheck_startPeriodicNetworkCheck+0x28>)
 80107d2:	2200      	movs	r2, #0
 80107d4:	701a      	strb	r2, [r3, #0]
		bsw_timer_scheduleTask(networkCheck_executePeriodicCheck, SETTING_PERIODIC_NETWORK_CHECK_INTERVAL_MS);
 80107d6:	4b06      	ldr	r3, [pc, #24]	; (80107f0 <networkCheck_startPeriodicNetworkCheck+0x2c>)
 80107d8:	681b      	ldr	r3, [r3, #0]
 80107da:	4906      	ldr	r1, [pc, #24]	; (80107f4 <networkCheck_startPeriodicNetworkCheck+0x30>)
 80107dc:	4a06      	ldr	r2, [pc, #24]	; (80107f8 <networkCheck_startPeriodicNetworkCheck+0x34>)
 80107de:	0010      	movs	r0, r2
 80107e0:	4798      	blx	r3
	}
}
 80107e2:	46c0      	nop			; (mov r8, r8)
 80107e4:	46bd      	mov	sp, r7
 80107e6:	bd80      	pop	{r7, pc}
 80107e8:	0801208c 	.word	0x0801208c
 80107ec:	20002832 	.word	0x20002832
 80107f0:	20002a3c 	.word	0x20002a3c
 80107f4:	00007530 	.word	0x00007530
 80107f8:	080107fd 	.word	0x080107fd

080107fc <networkCheck_executePeriodicCheck>:
 * is reset, because it is not stored persistently. If the peripheral is still reachable via the (randomized) same address,
 * it can be assumed that the configuration was not changed since to change it, it would need to be integrated into another network
 * which will cause a new assignment of an address.
 */
void networkCheck_executePeriodicCheck(void)
{
 80107fc:	b590      	push	{r4, r7, lr}
 80107fe:	b093      	sub	sp, #76	; 0x4c
 8010800:	af00      	add	r7, sp, #0
	// this callback might be called when the core has entered an error state but should be executed
	if (core_getStatus() != CORE_INITIALISED) {
 8010802:	f7ff fe7d 	bl	8010500 <core_getStatus>
 8010806:	0003      	movs	r3, r0
 8010808:	2b08      	cmp	r3, #8
 801080a:	d12c      	bne.n	8010866 <networkCheck_executePeriodicCheck+0x6a>
		return;
	}
	// reset the tracker variable
	nOfCheckedPeripherals = 0;
 801080c:	4b18      	ldr	r3, [pc, #96]	; (8010870 <networkCheck_executePeriodicCheck+0x74>)
 801080e:	2200      	movs	r2, #0
 8010810:	701a      	strb	r2, [r3, #0]
	coreTrackerStatus = CORE_TRACKER_CHECK_STATUS_WAITING;
 8010812:	4b18      	ldr	r3, [pc, #96]	; (8010874 <networkCheck_executePeriodicCheck+0x78>)
 8010814:	2200      	movs	r2, #0
 8010816:	701a      	strb	r2, [r3, #0]
	coreTrackingWarningResult = CORE_WARNING_NONE;
 8010818:	4b17      	ldr	r3, [pc, #92]	; (8010878 <networkCheck_executePeriodicCheck+0x7c>)
 801081a:	2200      	movs	r2, #0
 801081c:	701a      	strb	r2, [r3, #0]

	ILBMessageStruct query;
	query.address = addressing_getAddressTableEntry(nOfCheckedPeripherals)->address;
 801081e:	4b14      	ldr	r3, [pc, #80]	; (8010870 <networkCheck_executePeriodicCheck+0x74>)
 8010820:	781b      	ldrb	r3, [r3, #0]
 8010822:	0018      	movs	r0, r3
 8010824:	f000 fc26 	bl	8011074 <addressing_getAddressTableEntry>
 8010828:	0003      	movs	r3, r0
 801082a:	781a      	ldrb	r2, [r3, #0]
 801082c:	1d3b      	adds	r3, r7, #4
 801082e:	701a      	strb	r2, [r3, #0]
	query.identifier = ILB_GENERATE_IDENTIFIER;
 8010830:	1d3b      	adds	r3, r7, #4
 8010832:	22ff      	movs	r2, #255	; 0xff
 8010834:	709a      	strb	r2, [r3, #2]
	query.messageType = ILB_MESSAGE_READ;
 8010836:	1d3b      	adds	r3, r7, #4
 8010838:	2200      	movs	r2, #0
 801083a:	705a      	strb	r2, [r3, #1]
	query.payloadSize = 3;
 801083c:	1d3b      	adds	r3, r7, #4
 801083e:	2203      	movs	r2, #3
 8010840:	70da      	strb	r2, [r3, #3]
	query.payload[0] = ILB_PERIPHERAL_STATUS_BASE_ADDRESS;
 8010842:	1d3b      	adds	r3, r7, #4
 8010844:	2201      	movs	r2, #1
 8010846:	711a      	strb	r2, [r3, #4]
	query.payload[1] = ILB_TRACKER_SUB_ADDRESS;
 8010848:	1d3b      	adds	r3, r7, #4
 801084a:	2200      	movs	r2, #0
 801084c:	715a      	strb	r2, [r3, #5]
	query.payload[2] = 1;
 801084e:	1d3b      	adds	r3, r7, #4
 8010850:	2201      	movs	r2, #1
 8010852:	719a      	strb	r2, [r3, #6]

	bsw_messaging_sendMessage(&query, networkCheckMessageCallback, SETTING_NETWORK_CHECK_TIMEOUT_MS, networkCheckTimeoutCallback);
 8010854:	4b09      	ldr	r3, [pc, #36]	; (801087c <networkCheck_executePeriodicCheck+0x80>)
 8010856:	681c      	ldr	r4, [r3, #0]
 8010858:	4b09      	ldr	r3, [pc, #36]	; (8010880 <networkCheck_executePeriodicCheck+0x84>)
 801085a:	22fa      	movs	r2, #250	; 0xfa
 801085c:	0052      	lsls	r2, r2, #1
 801085e:	4909      	ldr	r1, [pc, #36]	; (8010884 <networkCheck_executePeriodicCheck+0x88>)
 8010860:	1d38      	adds	r0, r7, #4
 8010862:	47a0      	blx	r4
 8010864:	e000      	b.n	8010868 <networkCheck_executePeriodicCheck+0x6c>
		return;
 8010866:	46c0      	nop			; (mov r8, r8)
}
 8010868:	46bd      	mov	sp, r7
 801086a:	b013      	add	sp, #76	; 0x4c
 801086c:	bd90      	pop	{r4, r7, pc}
 801086e:	46c0      	nop			; (mov r8, r8)
 8010870:	20002832 	.word	0x20002832
 8010874:	20002800 	.word	0x20002800
 8010878:	20002831 	.word	0x20002831
 801087c:	20002a2c 	.word	0x20002a2c
 8010880:	08010979 	.word	0x08010979
 8010884:	08010889 	.word	0x08010889

08010888 <networkCheckMessageCallback>:
 * to a query (see ::coreTrackerStatus variable).
 *
 * @param message Pointer to message that was received as an answer to the tracker read request.
 */
void networkCheckMessageCallback(ILBMessageStruct* message)
{
 8010888:	b590      	push	{r4, r7, lr}
 801088a:	b085      	sub	sp, #20
 801088c:	af00      	add	r7, sp, #0
 801088e:	6078      	str	r0, [r7, #4]
	// check if the answer is an error reply or contains bytes
	if (message->messageType != ILB_MESSAGE_ACHKNOWLEDGE) {
 8010890:	687b      	ldr	r3, [r7, #4]
 8010892:	785b      	ldrb	r3, [r3, #1]
 8010894:	2b80      	cmp	r3, #128	; 0x80
 8010896:	d006      	beq.n	80108a6 <networkCheckMessageCallback+0x1e>
		// set marker for incorrect tracker reply
		nOfCheckedPeripherals = logic_networkLayout.totalNumberOfPeripherals + 1;
 8010898:	4b30      	ldr	r3, [pc, #192]	; (801095c <networkCheckMessageCallback+0xd4>)
 801089a:	781b      	ldrb	r3, [r3, #0]
 801089c:	3301      	adds	r3, #1
 801089e:	b2da      	uxtb	r2, r3
 80108a0:	4b2f      	ldr	r3, [pc, #188]	; (8010960 <networkCheckMessageCallback+0xd8>)
 80108a2:	701a      	strb	r2, [r3, #0]
 80108a4:	e04a      	b.n	801093c <networkCheckMessageCallback+0xb4>
	} else if (message->payloadSize != CORE_NETWORK_CHECK_BYTES_TO_READ) {
 80108a6:	687b      	ldr	r3, [r7, #4]
 80108a8:	78db      	ldrb	r3, [r3, #3]
 80108aa:	2b02      	cmp	r3, #2
 80108ac:	d006      	beq.n	80108bc <networkCheckMessageCallback+0x34>
		// set marker for incorrect tracker reply
		nOfCheckedPeripherals = logic_networkLayout.totalNumberOfPeripherals + 1;
 80108ae:	4b2b      	ldr	r3, [pc, #172]	; (801095c <networkCheckMessageCallback+0xd4>)
 80108b0:	781b      	ldrb	r3, [r3, #0]
 80108b2:	3301      	adds	r3, #1
 80108b4:	b2da      	uxtb	r2, r3
 80108b6:	4b2a      	ldr	r3, [pc, #168]	; (8010960 <networkCheckMessageCallback+0xd8>)
 80108b8:	701a      	strb	r2, [r3, #0]
 80108ba:	e03f      	b.n	801093c <networkCheckMessageCallback+0xb4>
	} else {
		//
		//	Handle the tracker
		//
		uint8_t receivedTracker = (message->payload[CORE_NETWORK_CHECK_TRACKER_INDEX]);
 80108bc:	240f      	movs	r4, #15
 80108be:	193b      	adds	r3, r7, r4
 80108c0:	687a      	ldr	r2, [r7, #4]
 80108c2:	7912      	ldrb	r2, [r2, #4]
 80108c4:	701a      	strb	r2, [r3, #0]
		// check if the received bytes correspond to the last transmitted tracker
		if (receivedTracker == addressing_getAddressTableEntry(nOfCheckedPeripherals)->tracker) {
 80108c6:	4b26      	ldr	r3, [pc, #152]	; (8010960 <networkCheckMessageCallback+0xd8>)
 80108c8:	781b      	ldrb	r3, [r3, #0]
 80108ca:	0018      	movs	r0, r3
 80108cc:	f000 fbd2 	bl	8011074 <addressing_getAddressTableEntry>
 80108d0:	0003      	movs	r3, r0
 80108d2:	785b      	ldrb	r3, [r3, #1]
 80108d4:	193a      	adds	r2, r7, r4
 80108d6:	7812      	ldrb	r2, [r2, #0]
 80108d8:	429a      	cmp	r2, r3
 80108da:	d109      	bne.n	80108f0 <networkCheckMessageCallback+0x68>
			// count up index
			nOfCheckedPeripherals++;
 80108dc:	4b20      	ldr	r3, [pc, #128]	; (8010960 <networkCheckMessageCallback+0xd8>)
 80108de:	781b      	ldrb	r3, [r3, #0]
 80108e0:	3301      	adds	r3, #1
 80108e2:	b2da      	uxtb	r2, r3
 80108e4:	4b1e      	ldr	r3, [pc, #120]	; (8010960 <networkCheckMessageCallback+0xd8>)
 80108e6:	701a      	strb	r2, [r3, #0]
			// clear the tracker variable. Indicate that a message has been received
			coreTrackerStatus = CORE_TRACKER_CHECK_STATUS_READY;
 80108e8:	4b1e      	ldr	r3, [pc, #120]	; (8010964 <networkCheckMessageCallback+0xdc>)
 80108ea:	2202      	movs	r2, #2
 80108ec:	701a      	strb	r2, [r3, #0]
 80108ee:	e018      	b.n	8010922 <networkCheckMessageCallback+0x9a>
		} else if (coreTrackerStatus == CORE_TRACKER_CHECK_STATUS_READY) {
 80108f0:	4b1c      	ldr	r3, [pc, #112]	; (8010964 <networkCheckMessageCallback+0xdc>)
 80108f2:	781b      	ldrb	r3, [r3, #0]
 80108f4:	2b02      	cmp	r3, #2
 80108f6:	d109      	bne.n	801090c <networkCheckMessageCallback+0x84>
			// we have already received a reply. If we received this second one, we have two times the same address in the network
			coreTrackingWarningResult = CORE_WARNING_DOUBLE_ADDRESSES_DETECTED;
 80108f8:	4b1b      	ldr	r3, [pc, #108]	; (8010968 <networkCheckMessageCallback+0xe0>)
 80108fa:	2202      	movs	r2, #2
 80108fc:	701a      	strb	r2, [r3, #0]
			// indicate general error to networkCheckTimeoutCallback()
			nOfCheckedPeripherals = logic_networkLayout.totalNumberOfPeripherals + 1;
 80108fe:	4b17      	ldr	r3, [pc, #92]	; (801095c <networkCheckMessageCallback+0xd4>)
 8010900:	781b      	ldrb	r3, [r3, #0]
 8010902:	3301      	adds	r3, #1
 8010904:	b2da      	uxtb	r2, r3
 8010906:	4b16      	ldr	r3, [pc, #88]	; (8010960 <networkCheckMessageCallback+0xd8>)
 8010908:	701a      	strb	r2, [r3, #0]
 801090a:	e00a      	b.n	8010922 <networkCheckMessageCallback+0x9a>
		} else {
			// set marker for incorrect tracker reply
			// this will cause a re-writing of the tracker byte once the ::networkCheckTimeoutCallback is triggered
			coreTrackingWarningResult = CORE_WARNING_TRACKER_LOST;
 801090c:	4b16      	ldr	r3, [pc, #88]	; (8010968 <networkCheckMessageCallback+0xe0>)
 801090e:	2201      	movs	r2, #1
 8010910:	701a      	strb	r2, [r3, #0]
			nOfCheckedPeripherals = logic_networkLayout.totalNumberOfPeripherals + message->address;
 8010912:	4b12      	ldr	r3, [pc, #72]	; (801095c <networkCheckMessageCallback+0xd4>)
 8010914:	781a      	ldrb	r2, [r3, #0]
 8010916:	687b      	ldr	r3, [r7, #4]
 8010918:	781b      	ldrb	r3, [r3, #0]
 801091a:	18d3      	adds	r3, r2, r3
 801091c:	b2da      	uxtb	r2, r3
 801091e:	4b10      	ldr	r3, [pc, #64]	; (8010960 <networkCheckMessageCallback+0xd8>)
 8010920:	701a      	strb	r2, [r3, #0]
		}
		//
		//	Handle the status
		//
		uint8_t receivedPeripheralStatus = (message->payload[CORE_NETWORK_CHECK_STATUS_INDEX]);
 8010922:	210e      	movs	r1, #14
 8010924:	187b      	adds	r3, r7, r1
 8010926:	687a      	ldr	r2, [r7, #4]
 8010928:	7952      	ldrb	r2, [r2, #5]
 801092a:	701a      	strb	r2, [r3, #0]
		if ((receivedPeripheralStatus & CORE_NETWORK_CHECK_MAJOR_ERROR_NIBBLE) != 0x00) {
 801092c:	187b      	adds	r3, r7, r1
 801092e:	781b      	ldrb	r3, [r3, #0]
 8010930:	2203      	movs	r2, #3
 8010932:	4013      	ands	r3, r2
 8010934:	d002      	beq.n	801093c <networkCheckMessageCallback+0xb4>
			core_setStatus(CORE_ERROR_PERIPHERAL_TRACKING);
 8010936:	200d      	movs	r0, #13
 8010938:	f7ff fd42 	bl	80103c0 <core_setStatus>
			// push the error code to the logic
			//peripheralErrorCodeRecieved(receivedPeripheralStatus, message->address);
		}
	}
	// register this function again to check double replies (double addresses) and trigger the timeout callback after a time
	message->messageType = ILB_MESSAGE_HANDLER_ONLY;
 801093c:	687b      	ldr	r3, [r7, #4]
 801093e:	22aa      	movs	r2, #170	; 0xaa
 8010940:	705a      	strb	r2, [r3, #1]
	bsw_messaging_sendMessage(message, networkCheckMessageCallback, SETTING_NETWORK_CHECK_TIMEOUT_MS, networkCheckTimeoutCallback);
 8010942:	4b0a      	ldr	r3, [pc, #40]	; (801096c <networkCheckMessageCallback+0xe4>)
 8010944:	681c      	ldr	r4, [r3, #0]
 8010946:	4b0a      	ldr	r3, [pc, #40]	; (8010970 <networkCheckMessageCallback+0xe8>)
 8010948:	22fa      	movs	r2, #250	; 0xfa
 801094a:	0052      	lsls	r2, r2, #1
 801094c:	4909      	ldr	r1, [pc, #36]	; (8010974 <networkCheckMessageCallback+0xec>)
 801094e:	6878      	ldr	r0, [r7, #4]
 8010950:	47a0      	blx	r4
}
 8010952:	46c0      	nop			; (mov r8, r8)
 8010954:	46bd      	mov	sp, r7
 8010956:	b005      	add	sp, #20
 8010958:	bd90      	pop	{r4, r7, pc}
 801095a:	46c0      	nop			; (mov r8, r8)
 801095c:	0801208c 	.word	0x0801208c
 8010960:	20002832 	.word	0x20002832
 8010964:	20002800 	.word	0x20002800
 8010968:	20002831 	.word	0x20002831
 801096c:	20002a2c 	.word	0x20002a2c
 8010970:	08010979 	.word	0x08010979
 8010974:	08010889 	.word	0x08010889

08010978 <networkCheckTimeoutCallback>:
 * In case no peripheral has answered, it is assumed that the peripheral is missing from the network. If, within the time of the
 * timeout before networkChecktimeoutCallback() is called, two peripherals respond to the same address, it is assumed that a second
 * peripheral with the same address was attached and that the network is in an address collision state.
 */
void networkCheckTimeoutCallback(void)
{
 8010978:	b590      	push	{r4, r7, lr}
 801097a:	b093      	sub	sp, #76	; 0x4c
 801097c:	af00      	add	r7, sp, #0
	// check if a timeout occured while trying to read the tracker variable
	if (coreTrackerStatus == CORE_TRACKER_CHECK_STATUS_WAITING && coreTrackingWarningResult == CORE_WARNING_NONE) {
 801097e:	4b4a      	ldr	r3, [pc, #296]	; (8010aa8 <networkCheckTimeoutCallback+0x130>)
 8010980:	781b      	ldrb	r3, [r3, #0]
 8010982:	2b00      	cmp	r3, #0
 8010984:	d13a      	bne.n	80109fc <networkCheckTimeoutCallback+0x84>
 8010986:	4b49      	ldr	r3, [pc, #292]	; (8010aac <networkCheckTimeoutCallback+0x134>)
 8010988:	781b      	ldrb	r3, [r3, #0]
 801098a:	2b00      	cmp	r3, #0
 801098c:	d136      	bne.n	80109fc <networkCheckTimeoutCallback+0x84>
		// we did not receive any reply. The peripheral is no longer in the network
		// try again
		if (peripheralTrackerReadAttempts < SETTING_NETWORK_CHECK_TRACKER_READ_ATTEMPTS) {
 801098e:	4b48      	ldr	r3, [pc, #288]	; (8010ab0 <networkCheckTimeoutCallback+0x138>)
 8010990:	781b      	ldrb	r3, [r3, #0]
 8010992:	2b02      	cmp	r3, #2
 8010994:	d82c      	bhi.n	80109f0 <networkCheckTimeoutCallback+0x78>
			// try again
			ILBMessageStruct query;
			query.address = addressing_getAddressForPeripheral(nOfCheckedPeripherals);
 8010996:	4b47      	ldr	r3, [pc, #284]	; (8010ab4 <networkCheckTimeoutCallback+0x13c>)
 8010998:	781b      	ldrb	r3, [r3, #0]
 801099a:	0018      	movs	r0, r3
 801099c:	f000 fc12 	bl	80111c4 <addressing_getAddressForPeripheral>
 80109a0:	0003      	movs	r3, r0
 80109a2:	001a      	movs	r2, r3
 80109a4:	1d3b      	adds	r3, r7, #4
 80109a6:	701a      	strb	r2, [r3, #0]
			query.identifier = ILB_GENERATE_IDENTIFIER;
 80109a8:	1d3b      	adds	r3, r7, #4
 80109aa:	22ff      	movs	r2, #255	; 0xff
 80109ac:	709a      	strb	r2, [r3, #2]
			query.messageType = ILB_MESSAGE_READ;
 80109ae:	1d3b      	adds	r3, r7, #4
 80109b0:	2200      	movs	r2, #0
 80109b2:	705a      	strb	r2, [r3, #1]
			query.payloadSize = 3;
 80109b4:	1d3b      	adds	r3, r7, #4
 80109b6:	2203      	movs	r2, #3
 80109b8:	70da      	strb	r2, [r3, #3]
			query.payload[0] = CORE_NETWORK_CHECK_PRIM_ADDR;
 80109ba:	1d3b      	adds	r3, r7, #4
 80109bc:	2201      	movs	r2, #1
 80109be:	711a      	strb	r2, [r3, #4]
			query.payload[1] = CORE_NETWORK_CHECK_SEC_ADDR;
 80109c0:	1d3b      	adds	r3, r7, #4
 80109c2:	2200      	movs	r2, #0
 80109c4:	715a      	strb	r2, [r3, #5]
			query.payload[2] = CORE_NETWORK_CHECK_BYTES_TO_READ;
 80109c6:	1d3b      	adds	r3, r7, #4
 80109c8:	2202      	movs	r2, #2
 80109ca:	719a      	strb	r2, [r3, #6]

			bsw_messaging_sendMessage(&query, networkCheckMessageCallback, SETTING_NETWORK_CHECK_TIMEOUT_MS, networkCheckTimeoutCallback);
 80109cc:	4b3a      	ldr	r3, [pc, #232]	; (8010ab8 <networkCheckTimeoutCallback+0x140>)
 80109ce:	681c      	ldr	r4, [r3, #0]
 80109d0:	4b3a      	ldr	r3, [pc, #232]	; (8010abc <networkCheckTimeoutCallback+0x144>)
 80109d2:	22fa      	movs	r2, #250	; 0xfa
 80109d4:	0052      	lsls	r2, r2, #1
 80109d6:	493a      	ldr	r1, [pc, #232]	; (8010ac0 <networkCheckTimeoutCallback+0x148>)
 80109d8:	1d38      	adds	r0, r7, #4
 80109da:	47a0      	blx	r4

			// set tracker status
			coreTrackerStatus = CORE_TRACKER_CHECK_STATUS_WAITING;
 80109dc:	4b32      	ldr	r3, [pc, #200]	; (8010aa8 <networkCheckTimeoutCallback+0x130>)
 80109de:	2200      	movs	r2, #0
 80109e0:	701a      	strb	r2, [r3, #0]
			// increase tracker counter
			peripheralTrackerReadAttempts++;
 80109e2:	4b33      	ldr	r3, [pc, #204]	; (8010ab0 <networkCheckTimeoutCallback+0x138>)
 80109e4:	781b      	ldrb	r3, [r3, #0]
 80109e6:	3301      	adds	r3, #1
 80109e8:	b2da      	uxtb	r2, r3
 80109ea:	4b31      	ldr	r3, [pc, #196]	; (8010ab0 <networkCheckTimeoutCallback+0x138>)
 80109ec:	701a      	strb	r2, [r3, #0]
			// set the status
			core_setStatus(CORE_ERROR_PERIPHERAL_MISSING);
			// update the network
			broadcast_queueBroadcastMessage();
		}
		return;
 80109ee:	e057      	b.n	8010aa0 <networkCheckTimeoutCallback+0x128>
			core_setStatus(CORE_ERROR_PERIPHERAL_MISSING);
 80109f0:	200f      	movs	r0, #15
 80109f2:	f7ff fce5 	bl	80103c0 <core_setStatus>
			broadcast_queueBroadcastMessage();
 80109f6:	f000 fc5f 	bl	80112b8 <broadcast_queueBroadcastMessage>
		return;
 80109fa:	e051      	b.n	8010aa0 <networkCheckTimeoutCallback+0x128>
	}

	// check if we received a wrong tracker or shall proceed to next query
	if (nOfCheckedPeripherals < logic_networkLayout.totalNumberOfPeripherals) {
 80109fc:	4b31      	ldr	r3, [pc, #196]	; (8010ac4 <networkCheckTimeoutCallback+0x14c>)
 80109fe:	781a      	ldrb	r2, [r3, #0]
 8010a00:	4b2c      	ldr	r3, [pc, #176]	; (8010ab4 <networkCheckTimeoutCallback+0x13c>)
 8010a02:	781b      	ldrb	r3, [r3, #0]
 8010a04:	429a      	cmp	r2, r3
 8010a06:	d929      	bls.n	8010a5c <networkCheckTimeoutCallback+0xe4>
		// send the request to the next peripheral
		peripheralTrackerReadAttempts = 0;
 8010a08:	4b29      	ldr	r3, [pc, #164]	; (8010ab0 <networkCheckTimeoutCallback+0x138>)
 8010a0a:	2200      	movs	r2, #0
 8010a0c:	701a      	strb	r2, [r3, #0]

		ILBMessageStruct query;
		query.address = addressing_getAddressForPeripheral(nOfCheckedPeripherals);
 8010a0e:	4b29      	ldr	r3, [pc, #164]	; (8010ab4 <networkCheckTimeoutCallback+0x13c>)
 8010a10:	781b      	ldrb	r3, [r3, #0]
 8010a12:	0018      	movs	r0, r3
 8010a14:	f000 fbd6 	bl	80111c4 <addressing_getAddressForPeripheral>
 8010a18:	0003      	movs	r3, r0
 8010a1a:	001a      	movs	r2, r3
 8010a1c:	1d3b      	adds	r3, r7, #4
 8010a1e:	701a      	strb	r2, [r3, #0]
		query.identifier = ILB_GENERATE_IDENTIFIER;
 8010a20:	1d3b      	adds	r3, r7, #4
 8010a22:	22ff      	movs	r2, #255	; 0xff
 8010a24:	709a      	strb	r2, [r3, #2]
		query.messageType = ILB_MESSAGE_READ;
 8010a26:	1d3b      	adds	r3, r7, #4
 8010a28:	2200      	movs	r2, #0
 8010a2a:	705a      	strb	r2, [r3, #1]
		query.payloadSize = 3;
 8010a2c:	1d3b      	adds	r3, r7, #4
 8010a2e:	2203      	movs	r2, #3
 8010a30:	70da      	strb	r2, [r3, #3]
		query.payload[0] = CORE_NETWORK_CHECK_PRIM_ADDR;
 8010a32:	1d3b      	adds	r3, r7, #4
 8010a34:	2201      	movs	r2, #1
 8010a36:	711a      	strb	r2, [r3, #4]
		query.payload[1] = CORE_NETWORK_CHECK_SEC_ADDR;
 8010a38:	1d3b      	adds	r3, r7, #4
 8010a3a:	2200      	movs	r2, #0
 8010a3c:	715a      	strb	r2, [r3, #5]
		query.payload[2] = CORE_NETWORK_CHECK_BYTES_TO_READ;
 8010a3e:	1d3b      	adds	r3, r7, #4
 8010a40:	2202      	movs	r2, #2
 8010a42:	719a      	strb	r2, [r3, #6]

		bsw_messaging_sendMessage(&query, networkCheckMessageCallback, SETTING_NETWORK_CHECK_TIMEOUT_MS, networkCheckTimeoutCallback);
 8010a44:	4b1c      	ldr	r3, [pc, #112]	; (8010ab8 <networkCheckTimeoutCallback+0x140>)
 8010a46:	681c      	ldr	r4, [r3, #0]
 8010a48:	4b1c      	ldr	r3, [pc, #112]	; (8010abc <networkCheckTimeoutCallback+0x144>)
 8010a4a:	22fa      	movs	r2, #250	; 0xfa
 8010a4c:	0052      	lsls	r2, r2, #1
 8010a4e:	491c      	ldr	r1, [pc, #112]	; (8010ac0 <networkCheckTimeoutCallback+0x148>)
 8010a50:	1d38      	adds	r0, r7, #4
 8010a52:	47a0      	blx	r4
		// set tracker status
		coreTrackerStatus = CORE_TRACKER_CHECK_STATUS_WAITING;
 8010a54:	4b14      	ldr	r3, [pc, #80]	; (8010aa8 <networkCheckTimeoutCallback+0x130>)
 8010a56:	2200      	movs	r2, #0
 8010a58:	701a      	strb	r2, [r3, #0]
 8010a5a:	e021      	b.n	8010aa0 <networkCheckTimeoutCallback+0x128>

	} else if (nOfCheckedPeripherals == logic_networkLayout.totalNumberOfPeripherals) {
 8010a5c:	4b19      	ldr	r3, [pc, #100]	; (8010ac4 <networkCheckTimeoutCallback+0x14c>)
 8010a5e:	781a      	ldrb	r2, [r3, #0]
 8010a60:	4b14      	ldr	r3, [pc, #80]	; (8010ab4 <networkCheckTimeoutCallback+0x13c>)
 8010a62:	781b      	ldrb	r3, [r3, #0]
 8010a64:	429a      	cmp	r2, r3
 8010a66:	d10c      	bne.n	8010a82 <networkCheckTimeoutCallback+0x10a>
		// all good and we went through the complete list
		peripheralTrackerReadAttempts = 0;
 8010a68:	4b11      	ldr	r3, [pc, #68]	; (8010ab0 <networkCheckTimeoutCallback+0x138>)
 8010a6a:	2200      	movs	r2, #0
 8010a6c:	701a      	strb	r2, [r3, #0]
		// start the process again after the timeout
		bsw_timer_scheduleTask(networkCheck_executePeriodicCheck, SETTING_PERIODIC_NETWORK_CHECK_INTERVAL_MS);
 8010a6e:	4b16      	ldr	r3, [pc, #88]	; (8010ac8 <networkCheckTimeoutCallback+0x150>)
 8010a70:	681b      	ldr	r3, [r3, #0]
 8010a72:	4916      	ldr	r1, [pc, #88]	; (8010acc <networkCheckTimeoutCallback+0x154>)
 8010a74:	4a16      	ldr	r2, [pc, #88]	; (8010ad0 <networkCheckTimeoutCallback+0x158>)
 8010a76:	0010      	movs	r0, r2
 8010a78:	4798      	blx	r3
		// reset tracker status
		coreTrackerStatus = CORE_TRACKER_CHECK_STATUS_READY;
 8010a7a:	4b0b      	ldr	r3, [pc, #44]	; (8010aa8 <networkCheckTimeoutCallback+0x130>)
 8010a7c:	2202      	movs	r2, #2
 8010a7e:	701a      	strb	r2, [r3, #0]
 8010a80:	e00e      	b.n	8010aa0 <networkCheckTimeoutCallback+0x128>
	} else {
		// check what exactly has happened
		if (coreTrackingWarningResult == CORE_WARNING_DOUBLE_ADDRESSES_DETECTED) {
 8010a82:	4b0a      	ldr	r3, [pc, #40]	; (8010aac <networkCheckTimeoutCallback+0x134>)
 8010a84:	781b      	ldrb	r3, [r3, #0]
 8010a86:	2b02      	cmp	r3, #2
 8010a88:	d103      	bne.n	8010a92 <networkCheckTimeoutCallback+0x11a>
			// this is classified as an error
			core_setStatus(CORE_ERROR_PERIPHERAL_DOUBLE_ADDRESS);
 8010a8a:	200e      	movs	r0, #14
 8010a8c:	f7ff fc98 	bl	80103c0 <core_setStatus>
 8010a90:	e006      	b.n	8010aa0 <networkCheckTimeoutCallback+0x128>
		} else if (coreTrackingWarningResult == CORE_WARNING_TRACKER_LOST) {
 8010a92:	4b06      	ldr	r3, [pc, #24]	; (8010aac <networkCheckTimeoutCallback+0x134>)
 8010a94:	781b      	ldrb	r3, [r3, #0]
 8010a96:	2b01      	cmp	r3, #1
 8010a98:	d002      	beq.n	8010aa0 <networkCheckTimeoutCallback+0x128>
			// After setting the warning below, this will happen in the ::handleCoreWarnings routine, which is part of the
			// main logic loop and is called when there is time to process.
			//core_setWarning(CORE_WARNING_TRACKER_LOST, nOfCheckedPeripherals-logic->nOfSupportedPeripherals);
		} else {
			// undefined error
			core_setStatus(CORE_ERROR_PERIPHERAL_TRACKING);
 8010a9a:	200d      	movs	r0, #13
 8010a9c:	f7ff fc90 	bl	80103c0 <core_setStatus>
		}
	}
}
 8010aa0:	46bd      	mov	sp, r7
 8010aa2:	b013      	add	sp, #76	; 0x4c
 8010aa4:	bd90      	pop	{r4, r7, pc}
 8010aa6:	46c0      	nop			; (mov r8, r8)
 8010aa8:	20002800 	.word	0x20002800
 8010aac:	20002831 	.word	0x20002831
 8010ab0:	20002833 	.word	0x20002833
 8010ab4:	20002832 	.word	0x20002832
 8010ab8:	20002a2c 	.word	0x20002a2c
 8010abc:	08010979 	.word	0x08010979
 8010ac0:	08010889 	.word	0x08010889
 8010ac4:	0801208c 	.word	0x0801208c
 8010ac8:	20002a3c 	.word	0x20002a3c
 8010acc:	00007530 	.word	0x00007530
 8010ad0:	080107fd 	.word	0x080107fd

08010ad4 <informationDistribution_start>:
 * Starts the information distribution mechanism.
 *
 * Checks if the network contains devices that require an update about certain pices of information available in the core.
 */
void informationDistribution_start(void)
{
 8010ad4:	b580      	push	{r7, lr}
 8010ad6:	b082      	sub	sp, #8
 8010ad8:	af00      	add	r7, sp, #0
	for (uint8_t i=0; i<logic_networkLayout.numberOfGroups; i++)
 8010ada:	1dfb      	adds	r3, r7, #7
 8010adc:	2200      	movs	r2, #0
 8010ade:	701a      	strb	r2, [r3, #0]
 8010ae0:	e03d      	b.n	8010b5e <informationDistribution_start+0x8a>
	{
		// Check the network layout for supported device types
		switch (logic_networkLayout.groups[i]->groupID)
 8010ae2:	4b23      	ldr	r3, [pc, #140]	; (8010b70 <informationDistribution_start+0x9c>)
 8010ae4:	68da      	ldr	r2, [r3, #12]
 8010ae6:	1dfb      	adds	r3, r7, #7
 8010ae8:	781b      	ldrb	r3, [r3, #0]
 8010aea:	009b      	lsls	r3, r3, #2
 8010aec:	18d3      	adds	r3, r2, r3
 8010aee:	681b      	ldr	r3, [r3, #0]
 8010af0:	781b      	ldrb	r3, [r3, #0]
 8010af2:	2b07      	cmp	r3, #7
 8010af4:	d002      	beq.n	8010afc <informationDistribution_start+0x28>
 8010af6:	2b09      	cmp	r3, #9
 8010af8:	d016      	beq.n	8010b28 <informationDistribution_start+0x54>
 8010afa:	e02b      	b.n	8010b54 <informationDistribution_start+0x80>
		{
		case ILB_PERIPHERAL_ZIGBEE_CLASS:
			targetAddress = addressing_getAddressForIndex(*logic_networkLayout.groups[i]->addressIndexList);
 8010afc:	4b1c      	ldr	r3, [pc, #112]	; (8010b70 <informationDistribution_start+0x9c>)
 8010afe:	68da      	ldr	r2, [r3, #12]
 8010b00:	1dfb      	adds	r3, r7, #7
 8010b02:	781b      	ldrb	r3, [r3, #0]
 8010b04:	009b      	lsls	r3, r3, #2
 8010b06:	18d3      	adds	r3, r2, r3
 8010b08:	681b      	ldr	r3, [r3, #0]
 8010b0a:	685b      	ldr	r3, [r3, #4]
 8010b0c:	781b      	ldrb	r3, [r3, #0]
 8010b0e:	0018      	movs	r0, r3
 8010b10:	f000 faf8 	bl	8011104 <addressing_getAddressForIndex>
 8010b14:	0003      	movs	r3, r0
 8010b16:	001a      	movs	r2, r3
 8010b18:	4b16      	ldr	r3, [pc, #88]	; (8010b74 <informationDistribution_start+0xa0>)
 8010b1a:	701a      	strb	r2, [r3, #0]
			timer_startInformationDistributionTimer(informationDistribution_ZigBeeCallback, SETTINGS_INFORMATION_DISTRIBUTION_INTERVAL_S);
 8010b1c:	4b16      	ldr	r3, [pc, #88]	; (8010b78 <informationDistribution_start+0xa4>)
 8010b1e:	213c      	movs	r1, #60	; 0x3c
 8010b20:	0018      	movs	r0, r3
 8010b22:	f000 f8f1 	bl	8010d08 <timer_startInformationDistributionTimer>
			return;
 8010b26:	e020      	b.n	8010b6a <informationDistribution_start+0x96>

		case ILB_PERIPHERAL_DALI_CLASS:
			targetAddress = addressing_getAddressForIndex(*logic_networkLayout.groups[i]->addressIndexList);
 8010b28:	4b11      	ldr	r3, [pc, #68]	; (8010b70 <informationDistribution_start+0x9c>)
 8010b2a:	68da      	ldr	r2, [r3, #12]
 8010b2c:	1dfb      	adds	r3, r7, #7
 8010b2e:	781b      	ldrb	r3, [r3, #0]
 8010b30:	009b      	lsls	r3, r3, #2
 8010b32:	18d3      	adds	r3, r2, r3
 8010b34:	681b      	ldr	r3, [r3, #0]
 8010b36:	685b      	ldr	r3, [r3, #4]
 8010b38:	781b      	ldrb	r3, [r3, #0]
 8010b3a:	0018      	movs	r0, r3
 8010b3c:	f000 fae2 	bl	8011104 <addressing_getAddressForIndex>
 8010b40:	0003      	movs	r3, r0
 8010b42:	001a      	movs	r2, r3
 8010b44:	4b0b      	ldr	r3, [pc, #44]	; (8010b74 <informationDistribution_start+0xa0>)
 8010b46:	701a      	strb	r2, [r3, #0]
			timer_startInformationDistributionTimer(informationDistribution_DALICallback, SETTINGS_INFORMATION_DISTRIBUTION_INTERVAL_S);
 8010b48:	4b0c      	ldr	r3, [pc, #48]	; (8010b7c <informationDistribution_start+0xa8>)
 8010b4a:	213c      	movs	r1, #60	; 0x3c
 8010b4c:	0018      	movs	r0, r3
 8010b4e:	f000 f8db 	bl	8010d08 <timer_startInformationDistributionTimer>
			return;
 8010b52:	e00a      	b.n	8010b6a <informationDistribution_start+0x96>
	for (uint8_t i=0; i<logic_networkLayout.numberOfGroups; i++)
 8010b54:	1dfb      	adds	r3, r7, #7
 8010b56:	781a      	ldrb	r2, [r3, #0]
 8010b58:	1dfb      	adds	r3, r7, #7
 8010b5a:	3201      	adds	r2, #1
 8010b5c:	701a      	strb	r2, [r3, #0]
 8010b5e:	4b04      	ldr	r3, [pc, #16]	; (8010b70 <informationDistribution_start+0x9c>)
 8010b60:	7a1b      	ldrb	r3, [r3, #8]
 8010b62:	1dfa      	adds	r2, r7, #7
 8010b64:	7812      	ldrb	r2, [r2, #0]
 8010b66:	429a      	cmp	r2, r3
 8010b68:	d3bb      	bcc.n	8010ae2 <informationDistribution_start+0xe>
		}
	}
}
 8010b6a:	46bd      	mov	sp, r7
 8010b6c:	b002      	add	sp, #8
 8010b6e:	bd80      	pop	{r7, pc}
 8010b70:	0801208c 	.word	0x0801208c
 8010b74:	20002801 	.word	0x20002801
 8010b78:	08010b81 	.word	0x08010b81
 8010b7c:	08010c05 	.word	0x08010c05

08010b80 <informationDistribution_ZigBeeCallback>:

/**
 * Routine to periodically push all ZigBee relevant data to the ZigBee peripheral
 */
void informationDistribution_ZigBeeCallback(void)
{
 8010b80:	b5b0      	push	{r4, r5, r7, lr}
 8010b82:	af00      	add	r7, sp, #0
	// re-trigger routine. This is done at the beginning to save space
	timer_startInformationDistributionTimer(informationDistribution_ZigBeeCallback, SETTINGS_INFORMATION_DISTRIBUTION_INTERVAL_S);
 8010b84:	4b17      	ldr	r3, [pc, #92]	; (8010be4 <informationDistribution_ZigBeeCallback+0x64>)
 8010b86:	213c      	movs	r1, #60	; 0x3c
 8010b88:	0018      	movs	r0, r3
 8010b8a:	f000 f8bd 	bl	8010d08 <timer_startInformationDistributionTimer>

	// ensure that we are in normal operation state
	if (core_getStatus() != CORE_INITIALISED)
 8010b8e:	f7ff fcb7 	bl	8010500 <core_getStatus>
 8010b92:	0003      	movs	r3, r0
 8010b94:	2b08      	cmp	r3, #8
 8010b96:	d121      	bne.n	8010bdc <informationDistribution_ZigBeeCallback+0x5c>
		// abort. The core is not operating normally. All telemetry reporting is suspended until we resume normal operation
		return;
	}

	// prepare message
	reportMessage.address = targetAddress;
 8010b98:	4b13      	ldr	r3, [pc, #76]	; (8010be8 <informationDistribution_ZigBeeCallback+0x68>)
 8010b9a:	781a      	ldrb	r2, [r3, #0]
 8010b9c:	4b13      	ldr	r3, [pc, #76]	; (8010bec <informationDistribution_ZigBeeCallback+0x6c>)
 8010b9e:	701a      	strb	r2, [r3, #0]
	reportMessage.identifier = ILB_GENERATE_IDENTIFIER;
 8010ba0:	4b12      	ldr	r3, [pc, #72]	; (8010bec <informationDistribution_ZigBeeCallback+0x6c>)
 8010ba2:	22ff      	movs	r2, #255	; 0xff
 8010ba4:	709a      	strb	r2, [r3, #2]
	reportMessage.messageType = ILB_MESSAGE_WRITE;
 8010ba6:	4b11      	ldr	r3, [pc, #68]	; (8010bec <informationDistribution_ZigBeeCallback+0x6c>)
 8010ba8:	2240      	movs	r2, #64	; 0x40
 8010baa:	705a      	strb	r2, [r3, #1]
	reportMessage.payloadSize = 3;
 8010bac:	4b0f      	ldr	r3, [pc, #60]	; (8010bec <informationDistribution_ZigBeeCallback+0x6c>)
 8010bae:	2203      	movs	r2, #3
 8010bb0:	70da      	strb	r2, [r3, #3]
	reportMessage.payload[0] = 0x04;
 8010bb2:	4b0e      	ldr	r3, [pc, #56]	; (8010bec <informationDistribution_ZigBeeCallback+0x6c>)
 8010bb4:	2204      	movs	r2, #4
 8010bb6:	711a      	strb	r2, [r3, #4]
	reportMessage.payload[1] = 0x01;
 8010bb8:	4b0c      	ldr	r3, [pc, #48]	; (8010bec <informationDistribution_ZigBeeCallback+0x6c>)
 8010bba:	2201      	movs	r2, #1
 8010bbc:	715a      	strb	r2, [r3, #5]

	// place temperature value
	bsw_telemetryInterface(&reportMessage.payload[2], TELEMETRY_DRIVER_TEMPERATURE);
 8010bbe:	4b0c      	ldr	r3, [pc, #48]	; (8010bf0 <informationDistribution_ZigBeeCallback+0x70>)
 8010bc0:	681b      	ldr	r3, [r3, #0]
 8010bc2:	4a0c      	ldr	r2, [pc, #48]	; (8010bf4 <informationDistribution_ZigBeeCallback+0x74>)
 8010bc4:	2100      	movs	r1, #0
 8010bc6:	0010      	movs	r0, r2
 8010bc8:	4798      	blx	r3

	// send message
	bsw_messaging_sendMessage(&reportMessage, informationDistribution_responseCallback, SETTING_NETWORK_APPLY_SETTING_TIMEOUT_MS, informationDistribution_responseTimout);
 8010bca:	4b0b      	ldr	r3, [pc, #44]	; (8010bf8 <informationDistribution_ZigBeeCallback+0x78>)
 8010bcc:	681c      	ldr	r4, [r3, #0]
 8010bce:	4b0b      	ldr	r3, [pc, #44]	; (8010bfc <informationDistribution_ZigBeeCallback+0x7c>)
 8010bd0:	2296      	movs	r2, #150	; 0x96
 8010bd2:	0052      	lsls	r2, r2, #1
 8010bd4:	490a      	ldr	r1, [pc, #40]	; (8010c00 <informationDistribution_ZigBeeCallback+0x80>)
 8010bd6:	4805      	ldr	r0, [pc, #20]	; (8010bec <informationDistribution_ZigBeeCallback+0x6c>)
 8010bd8:	47a0      	blx	r4
 8010bda:	e000      	b.n	8010bde <informationDistribution_ZigBeeCallback+0x5e>
		return;
 8010bdc:	46c0      	nop			; (mov r8, r8)
}
 8010bde:	46bd      	mov	sp, r7
 8010be0:	bdb0      	pop	{r4, r5, r7, pc}
 8010be2:	46c0      	nop			; (mov r8, r8)
 8010be4:	08010b81 	.word	0x08010b81
 8010be8:	20002801 	.word	0x20002801
 8010bec:	20002834 	.word	0x20002834
 8010bf0:	20002a40 	.word	0x20002a40
 8010bf4:	2000283a 	.word	0x2000283a
 8010bf8:	20002a2c 	.word	0x20002a2c
 8010bfc:	08010c31 	.word	0x08010c31
 8010c00:	08010c21 	.word	0x08010c21

08010c04 <informationDistribution_DALICallback>:

/**
 * Routine to execute information distribution to a DALI peripheral
 */
void informationDistribution_DALICallback(void)
{
 8010c04:	b580      	push	{r7, lr}
 8010c06:	af00      	add	r7, sp, #0
	// re-trigger routine. This is done at the beginning to save space
	timer_startInformationDistributionTimer(informationDistribution_DALICallback, SETTINGS_INFORMATION_DISTRIBUTION_INTERVAL_S);
 8010c08:	4b04      	ldr	r3, [pc, #16]	; (8010c1c <informationDistribution_DALICallback+0x18>)
 8010c0a:	213c      	movs	r1, #60	; 0x3c
 8010c0c:	0018      	movs	r0, r3
 8010c0e:	f000 f87b 	bl	8010d08 <timer_startInformationDistributionTimer>

	// ensure that we are in normal operation state
	if (core_getStatus() != CORE_INITIALISED)
 8010c12:	f7ff fc75 	bl	8010500 <core_getStatus>
	{
		// abort. The core is not operating normally. All telemetry reporting is suspended until we resume normal operation
		return;
	}
}
 8010c16:	46bd      	mov	sp, r7
 8010c18:	bd80      	pop	{r7, pc}
 8010c1a:	46c0      	nop			; (mov r8, r8)
 8010c1c:	08010c05 	.word	0x08010c05

08010c20 <informationDistribution_responseCallback>:
 * Callback to a response to write telemetry information to a peripheral.
 *
 * @param m
 */
void informationDistribution_responseCallback(ILBMessageStruct* m)
{
 8010c20:	b580      	push	{r7, lr}
 8010c22:	b082      	sub	sp, #8
 8010c24:	af00      	add	r7, sp, #0
 8010c26:	6078      	str	r0, [r7, #4]

}
 8010c28:	46c0      	nop			; (mov r8, r8)
 8010c2a:	46bd      	mov	sp, r7
 8010c2c:	b002      	add	sp, #8
 8010c2e:	bd80      	pop	{r7, pc}

08010c30 <informationDistribution_responseTimout>:

/**
 * Callback if no response to writing telemetry data was recorded.
 */
void informationDistribution_responseTimout(void)
{
 8010c30:	b580      	push	{r7, lr}
 8010c32:	af00      	add	r7, sp, #0

}
 8010c34:	46c0      	nop			; (mov r8, r8)
 8010c36:	46bd      	mov	sp, r7
 8010c38:	bd80      	pop	{r7, pc}
	...

08010c3c <persistentVariables_init>:
 * Initialise the persistent variables
 *
 * @return
 */
ILB_HAL_StatusTypeDef persistentVariables_init(void)
{
 8010c3c:	b580      	push	{r7, lr}
 8010c3e:	b082      	sub	sp, #8
 8010c40:	af00      	add	r7, sp, #0
	if (logic_nonVolatileVariables.nOfPersistentVariables > SETTING_MAX_NOF_PERSISTENT_LOGIC_VARS)
 8010c42:	4b1a      	ldr	r3, [pc, #104]	; (8010cac <persistentVariables_init+0x70>)
 8010c44:	881b      	ldrh	r3, [r3, #0]
 8010c46:	2b14      	cmp	r3, #20
 8010c48:	d901      	bls.n	8010c4e <persistentVariables_init+0x12>
	{
		return ILB_HAL_ERROR;
 8010c4a:	2301      	movs	r3, #1
 8010c4c:	e02a      	b.n	8010ca4 <persistentVariables_init+0x68>
	}
	ILB_HAL_StatusTypeDef success = ILB_HAL_OK;
 8010c4e:	1dfb      	adds	r3, r7, #7
 8010c50:	2200      	movs	r2, #0
 8010c52:	701a      	strb	r2, [r3, #0]
	// read from memory
	for (uint8_t i=0; i<logic_nonVolatileVariables.nOfPersistentVariables; i++)
 8010c54:	1dbb      	adds	r3, r7, #6
 8010c56:	2200      	movs	r2, #0
 8010c58:	701a      	strb	r2, [r3, #0]
 8010c5a:	e01a      	b.n	8010c92 <persistentVariables_init+0x56>
	{
		success |= bsw_EEPROMInterface(EEPROM_VAR_WORD, EEPROM_PERSISTENT_VARIABLES_START + i * 4, &persistentVariables[i]);
 8010c5c:	4b14      	ldr	r3, [pc, #80]	; (8010cb0 <persistentVariables_init+0x74>)
 8010c5e:	681b      	ldr	r3, [r3, #0]
 8010c60:	1dba      	adds	r2, r7, #6
 8010c62:	7812      	ldrb	r2, [r2, #0]
 8010c64:	321a      	adds	r2, #26
 8010c66:	0092      	lsls	r2, r2, #2
 8010c68:	0010      	movs	r0, r2
 8010c6a:	1dba      	adds	r2, r7, #6
 8010c6c:	7812      	ldrb	r2, [r2, #0]
 8010c6e:	0091      	lsls	r1, r2, #2
 8010c70:	4a10      	ldr	r2, [pc, #64]	; (8010cb4 <persistentVariables_init+0x78>)
 8010c72:	188a      	adds	r2, r1, r2
 8010c74:	0001      	movs	r1, r0
 8010c76:	2004      	movs	r0, #4
 8010c78:	4798      	blx	r3
 8010c7a:	0003      	movs	r3, r0
 8010c7c:	0019      	movs	r1, r3
 8010c7e:	1dfb      	adds	r3, r7, #7
 8010c80:	1dfa      	adds	r2, r7, #7
 8010c82:	7812      	ldrb	r2, [r2, #0]
 8010c84:	430a      	orrs	r2, r1
 8010c86:	701a      	strb	r2, [r3, #0]
	for (uint8_t i=0; i<logic_nonVolatileVariables.nOfPersistentVariables; i++)
 8010c88:	1dbb      	adds	r3, r7, #6
 8010c8a:	781a      	ldrb	r2, [r3, #0]
 8010c8c:	1dbb      	adds	r3, r7, #6
 8010c8e:	3201      	adds	r2, #1
 8010c90:	701a      	strb	r2, [r3, #0]
 8010c92:	1dbb      	adds	r3, r7, #6
 8010c94:	781b      	ldrb	r3, [r3, #0]
 8010c96:	b29a      	uxth	r2, r3
 8010c98:	4b04      	ldr	r3, [pc, #16]	; (8010cac <persistentVariables_init+0x70>)
 8010c9a:	881b      	ldrh	r3, [r3, #0]
 8010c9c:	429a      	cmp	r2, r3
 8010c9e:	d3dd      	bcc.n	8010c5c <persistentVariables_init+0x20>
	}
	// signal outcome
	return success;
 8010ca0:	1dfb      	adds	r3, r7, #7
 8010ca2:	781b      	ldrb	r3, [r3, #0]
}
 8010ca4:	0018      	movs	r0, r3
 8010ca6:	46bd      	mov	sp, r7
 8010ca8:	b002      	add	sp, #8
 8010caa:	bd80      	pop	{r7, pc}
 8010cac:	080120a4 	.word	0x080120a4
 8010cb0:	20002a44 	.word	0x20002a44
 8010cb4:	20002878 	.word	0x20002878

08010cb8 <register_core_setSystemStatus>:
 * Set the byte representing the status of the core
 *
 * @param status
 */
void register_core_setSystemStatus(CoreStatus_t status)
{
 8010cb8:	b580      	push	{r7, lr}
 8010cba:	b082      	sub	sp, #8
 8010cbc:	af00      	add	r7, sp, #0
 8010cbe:	0002      	movs	r2, r0
 8010cc0:	1dfb      	adds	r3, r7, #7
 8010cc2:	701a      	strb	r2, [r3, #0]

}
 8010cc4:	46c0      	nop			; (mov r8, r8)
 8010cc6:	46bd      	mov	sp, r7
 8010cc8:	b002      	add	sp, #8
 8010cca:	bd80      	pop	{r7, pc}

08010ccc <register_core_setSystemFlag>:
 * Set the error flag
 *
 * @param error
 */
void register_core_setSystemFlag(SystemErrorFlag_t error)
{
 8010ccc:	b580      	push	{r7, lr}
 8010cce:	b082      	sub	sp, #8
 8010cd0:	af00      	add	r7, sp, #0
 8010cd2:	0002      	movs	r2, r0
 8010cd4:	1dfb      	adds	r3, r7, #7
 8010cd6:	701a      	strb	r2, [r3, #0]

}
 8010cd8:	46c0      	nop			; (mov r8, r8)
 8010cda:	46bd      	mov	sp, r7
 8010cdc:	b002      	add	sp, #8
 8010cde:	bd80      	pop	{r7, pc}

08010ce0 <timer_startBroadcastTimer>:
 *
 * @param callback
 * @param timeoutS
 */
void timer_startBroadcastTimer(callbackHandle_t callback, uint16_t timeoutS)
{
 8010ce0:	b580      	push	{r7, lr}
 8010ce2:	b082      	sub	sp, #8
 8010ce4:	af00      	add	r7, sp, #0
 8010ce6:	6078      	str	r0, [r7, #4]
 8010ce8:	000a      	movs	r2, r1
 8010cea:	1cbb      	adds	r3, r7, #2
 8010cec:	801a      	strh	r2, [r3, #0]
	bsw_timer_scheduleSlowTask(CORE_BASE_TIMER_BROADCAST, callback, timeoutS);
 8010cee:	4b05      	ldr	r3, [pc, #20]	; (8010d04 <timer_startBroadcastTimer+0x24>)
 8010cf0:	681b      	ldr	r3, [r3, #0]
 8010cf2:	1cba      	adds	r2, r7, #2
 8010cf4:	8812      	ldrh	r2, [r2, #0]
 8010cf6:	6879      	ldr	r1, [r7, #4]
 8010cf8:	2000      	movs	r0, #0
 8010cfa:	4798      	blx	r3
}
 8010cfc:	46c0      	nop			; (mov r8, r8)
 8010cfe:	46bd      	mov	sp, r7
 8010d00:	b002      	add	sp, #8
 8010d02:	bd80      	pop	{r7, pc}
 8010d04:	20002a54 	.word	0x20002a54

08010d08 <timer_startInformationDistributionTimer>:

void timer_startInformationDistributionTimer(callbackHandle_t callback, uint16_t timeoutS)
{
 8010d08:	b580      	push	{r7, lr}
 8010d0a:	b082      	sub	sp, #8
 8010d0c:	af00      	add	r7, sp, #0
 8010d0e:	6078      	str	r0, [r7, #4]
 8010d10:	000a      	movs	r2, r1
 8010d12:	1cbb      	adds	r3, r7, #2
 8010d14:	801a      	strh	r2, [r3, #0]
	bsw_timer_scheduleSlowTask(CORE_BASE_TIMER_INFORMATION_DISTRIBUTION, callback, timeoutS);
 8010d16:	4b05      	ldr	r3, [pc, #20]	; (8010d2c <timer_startInformationDistributionTimer+0x24>)
 8010d18:	681b      	ldr	r3, [r3, #0]
 8010d1a:	1cba      	adds	r2, r7, #2
 8010d1c:	8812      	ldrh	r2, [r2, #0]
 8010d1e:	6879      	ldr	r1, [r7, #4]
 8010d20:	2001      	movs	r0, #1
 8010d22:	4798      	blx	r3
}
 8010d24:	46c0      	nop			; (mov r8, r8)
 8010d26:	46bd      	mov	sp, r7
 8010d28:	b002      	add	sp, #8
 8010d2a:	bd80      	pop	{r7, pc}
 8010d2c:	20002a54 	.word	0x20002a54

08010d30 <adressing_recoverAddressTable>:
 * Recover a previously stored address table and return the number of loaded entries
 *
 * @return Number of peripheral loaded from memory or -1 in case of logic or loading error
 */
int8_t adressing_recoverAddressTable(void)
{
 8010d30:	b5f0      	push	{r4, r5, r6, r7, lr}
 8010d32:	b085      	sub	sp, #20
 8010d34:	af00      	add	r7, sp, #0
	// Ensure that the number of peripherals in the logic does not exceed the maximal number of supported peripherals.
	// Exceeding this number will cause segmentation faults. Dynamic allocation of the structures via malloc yields to
	// compilation errors, because at the final step, two libraries are joined with a linker file and the linker fails
	// linking the standard libraries.
	if (logic_networkLayout.totalNumberOfPeripherals > SETTING_MAXIMAL_NUMBER_OF_PERIPHERALS)
 8010d36:	4b66      	ldr	r3, [pc, #408]	; (8010ed0 <adressing_recoverAddressTable+0x1a0>)
 8010d38:	781b      	ldrb	r3, [r3, #0]
 8010d3a:	2b14      	cmp	r3, #20
 8010d3c:	d902      	bls.n	8010d44 <adressing_recoverAddressTable+0x14>
	{
		return -1;
 8010d3e:	2301      	movs	r3, #1
 8010d40:	425b      	negs	r3, r3
 8010d42:	e0c1      	b.n	8010ec8 <adressing_recoverAddressTable+0x198>
	}

	// prepare the table
	for (uint8_t i=0; i<logic_networkLayout.totalNumberOfPeripherals; i++)
 8010d44:	230f      	movs	r3, #15
 8010d46:	18fb      	adds	r3, r7, r3
 8010d48:	2200      	movs	r2, #0
 8010d4a:	701a      	strb	r2, [r3, #0]
 8010d4c:	e00b      	b.n	8010d66 <adressing_recoverAddressTable+0x36>
	{
		coreAddressLookupTable[i].address = 0;
 8010d4e:	200f      	movs	r0, #15
 8010d50:	183b      	adds	r3, r7, r0
 8010d52:	781a      	ldrb	r2, [r3, #0]
 8010d54:	4b5f      	ldr	r3, [pc, #380]	; (8010ed4 <adressing_recoverAddressTable+0x1a4>)
 8010d56:	00d2      	lsls	r2, r2, #3
 8010d58:	2100      	movs	r1, #0
 8010d5a:	54d1      	strb	r1, [r2, r3]
	for (uint8_t i=0; i<logic_networkLayout.totalNumberOfPeripherals; i++)
 8010d5c:	183b      	adds	r3, r7, r0
 8010d5e:	781a      	ldrb	r2, [r3, #0]
 8010d60:	183b      	adds	r3, r7, r0
 8010d62:	3201      	adds	r2, #1
 8010d64:	701a      	strb	r2, [r3, #0]
 8010d66:	4b5a      	ldr	r3, [pc, #360]	; (8010ed0 <adressing_recoverAddressTable+0x1a0>)
 8010d68:	781b      	ldrb	r3, [r3, #0]
 8010d6a:	220f      	movs	r2, #15
 8010d6c:	18ba      	adds	r2, r7, r2
 8010d6e:	7812      	ldrb	r2, [r2, #0]
 8010d70:	429a      	cmp	r2, r3
 8010d72:	d3ec      	bcc.n	8010d4e <adressing_recoverAddressTable+0x1e>
	}

	// read from memory
	uint32_t tmp = 0;
 8010d74:	2300      	movs	r3, #0
 8010d76:	607b      	str	r3, [r7, #4]
	ILB_HAL_StatusTypeDef success = bsw_EEPROMInterface(EEPROM_VAR_BYTE, EEPROM_NUMBER_OF_PERIPHERALS_BYTE_POS, &tmp);
 8010d78:	4b57      	ldr	r3, [pc, #348]	; (8010ed8 <adressing_recoverAddressTable+0x1a8>)
 8010d7a:	681b      	ldr	r3, [r3, #0]
 8010d7c:	220e      	movs	r2, #14
 8010d7e:	18bc      	adds	r4, r7, r2
 8010d80:	1d3a      	adds	r2, r7, #4
 8010d82:	2100      	movs	r1, #0
 8010d84:	2001      	movs	r0, #1
 8010d86:	4798      	blx	r3
 8010d88:	0003      	movs	r3, r0
 8010d8a:	7023      	strb	r3, [r4, #0]

	uint8_t nOfStoredPeripherals = (uint8_t)tmp;
 8010d8c:	687a      	ldr	r2, [r7, #4]
 8010d8e:	230c      	movs	r3, #12
 8010d90:	18fb      	adds	r3, r7, r3
 8010d92:	701a      	strb	r2, [r3, #0]

	for (uint8_t i=0; i<(uint8_t)tmp; i++)
 8010d94:	230d      	movs	r3, #13
 8010d96:	18fb      	adds	r3, r7, r3
 8010d98:	2200      	movs	r2, #0
 8010d9a:	701a      	strb	r2, [r3, #0]
 8010d9c:	e080      	b.n	8010ea0 <adressing_recoverAddressTable+0x170>
	{
		tmp = 0;
 8010d9e:	2300      	movs	r3, #0
 8010da0:	607b      	str	r3, [r7, #4]
		success = bsw_EEPROMInterface(EEPROM_VAR_BYTE, EEPROM_ADDRESS_TABLE_START_POS + i*CORE_BYTES_PER_LOOKUP_TABLE_ELEMENTS, &tmp);
 8010da2:	4b4d      	ldr	r3, [pc, #308]	; (8010ed8 <adressing_recoverAddressTable+0x1a8>)
 8010da4:	681d      	ldr	r5, [r3, #0]
 8010da6:	260d      	movs	r6, #13
 8010da8:	19bb      	adds	r3, r7, r6
 8010daa:	781a      	ldrb	r2, [r3, #0]
 8010dac:	0013      	movs	r3, r2
 8010dae:	009b      	lsls	r3, r3, #2
 8010db0:	189b      	adds	r3, r3, r2
 8010db2:	3301      	adds	r3, #1
 8010db4:	0019      	movs	r1, r3
 8010db6:	230e      	movs	r3, #14
 8010db8:	18fc      	adds	r4, r7, r3
 8010dba:	1d3b      	adds	r3, r7, #4
 8010dbc:	001a      	movs	r2, r3
 8010dbe:	2001      	movs	r0, #1
 8010dc0:	47a8      	blx	r5
 8010dc2:	0003      	movs	r3, r0
 8010dc4:	7023      	strb	r3, [r4, #0]
		coreAddressLookupTable[i].address = (uint8_t)(tmp);
 8010dc6:	6879      	ldr	r1, [r7, #4]
 8010dc8:	19bb      	adds	r3, r7, r6
 8010dca:	781a      	ldrb	r2, [r3, #0]
 8010dcc:	b2c9      	uxtb	r1, r1
 8010dce:	4b41      	ldr	r3, [pc, #260]	; (8010ed4 <adressing_recoverAddressTable+0x1a4>)
 8010dd0:	00d2      	lsls	r2, r2, #3
 8010dd2:	54d1      	strb	r1, [r2, r3]
		uint32_t UID = 0;
 8010dd4:	2300      	movs	r3, #0
 8010dd6:	60bb      	str	r3, [r7, #8]
		success = bsw_EEPROMInterface(EEPROM_VAR_BYTE, EEPROM_ADDRESS_TABLE_START_POS + 1 + i*CORE_BYTES_PER_LOOKUP_TABLE_ELEMENTS, &tmp);
 8010dd8:	4b3f      	ldr	r3, [pc, #252]	; (8010ed8 <adressing_recoverAddressTable+0x1a8>)
 8010dda:	681d      	ldr	r5, [r3, #0]
 8010ddc:	19bb      	adds	r3, r7, r6
 8010dde:	781a      	ldrb	r2, [r3, #0]
 8010de0:	0013      	movs	r3, r2
 8010de2:	009b      	lsls	r3, r3, #2
 8010de4:	189b      	adds	r3, r3, r2
 8010de6:	3302      	adds	r3, #2
 8010de8:	0019      	movs	r1, r3
 8010dea:	230e      	movs	r3, #14
 8010dec:	18fc      	adds	r4, r7, r3
 8010dee:	1d3b      	adds	r3, r7, #4
 8010df0:	001a      	movs	r2, r3
 8010df2:	2001      	movs	r0, #1
 8010df4:	47a8      	blx	r5
 8010df6:	0003      	movs	r3, r0
 8010df8:	7023      	strb	r3, [r4, #0]
		UID |= (tmp << 24);
 8010dfa:	687b      	ldr	r3, [r7, #4]
 8010dfc:	061b      	lsls	r3, r3, #24
 8010dfe:	68ba      	ldr	r2, [r7, #8]
 8010e00:	4313      	orrs	r3, r2
 8010e02:	60bb      	str	r3, [r7, #8]
		success = bsw_EEPROMInterface(EEPROM_VAR_BYTE, EEPROM_ADDRESS_TABLE_START_POS + 2 + i*CORE_BYTES_PER_LOOKUP_TABLE_ELEMENTS, &tmp);
 8010e04:	4b34      	ldr	r3, [pc, #208]	; (8010ed8 <adressing_recoverAddressTable+0x1a8>)
 8010e06:	681d      	ldr	r5, [r3, #0]
 8010e08:	19bb      	adds	r3, r7, r6
 8010e0a:	781a      	ldrb	r2, [r3, #0]
 8010e0c:	0013      	movs	r3, r2
 8010e0e:	009b      	lsls	r3, r3, #2
 8010e10:	189b      	adds	r3, r3, r2
 8010e12:	3303      	adds	r3, #3
 8010e14:	0019      	movs	r1, r3
 8010e16:	230e      	movs	r3, #14
 8010e18:	18fc      	adds	r4, r7, r3
 8010e1a:	1d3b      	adds	r3, r7, #4
 8010e1c:	001a      	movs	r2, r3
 8010e1e:	2001      	movs	r0, #1
 8010e20:	47a8      	blx	r5
 8010e22:	0003      	movs	r3, r0
 8010e24:	7023      	strb	r3, [r4, #0]
		UID |= (tmp << 16);
 8010e26:	687b      	ldr	r3, [r7, #4]
 8010e28:	041b      	lsls	r3, r3, #16
 8010e2a:	68ba      	ldr	r2, [r7, #8]
 8010e2c:	4313      	orrs	r3, r2
 8010e2e:	60bb      	str	r3, [r7, #8]
		success = bsw_EEPROMInterface(EEPROM_VAR_BYTE, EEPROM_ADDRESS_TABLE_START_POS + 3 + i*CORE_BYTES_PER_LOOKUP_TABLE_ELEMENTS, &tmp);
 8010e30:	4b29      	ldr	r3, [pc, #164]	; (8010ed8 <adressing_recoverAddressTable+0x1a8>)
 8010e32:	681d      	ldr	r5, [r3, #0]
 8010e34:	19bb      	adds	r3, r7, r6
 8010e36:	781a      	ldrb	r2, [r3, #0]
 8010e38:	0013      	movs	r3, r2
 8010e3a:	009b      	lsls	r3, r3, #2
 8010e3c:	189b      	adds	r3, r3, r2
 8010e3e:	3304      	adds	r3, #4
 8010e40:	0019      	movs	r1, r3
 8010e42:	230e      	movs	r3, #14
 8010e44:	18fc      	adds	r4, r7, r3
 8010e46:	1d3b      	adds	r3, r7, #4
 8010e48:	001a      	movs	r2, r3
 8010e4a:	2001      	movs	r0, #1
 8010e4c:	47a8      	blx	r5
 8010e4e:	0003      	movs	r3, r0
 8010e50:	7023      	strb	r3, [r4, #0]
		UID |= (tmp << 8);
 8010e52:	687b      	ldr	r3, [r7, #4]
 8010e54:	021b      	lsls	r3, r3, #8
 8010e56:	68ba      	ldr	r2, [r7, #8]
 8010e58:	4313      	orrs	r3, r2
 8010e5a:	60bb      	str	r3, [r7, #8]
		success = bsw_EEPROMInterface(EEPROM_VAR_BYTE, EEPROM_ADDRESS_TABLE_START_POS + 4 + i*CORE_BYTES_PER_LOOKUP_TABLE_ELEMENTS, &tmp);
 8010e5c:	4b1e      	ldr	r3, [pc, #120]	; (8010ed8 <adressing_recoverAddressTable+0x1a8>)
 8010e5e:	681d      	ldr	r5, [r3, #0]
 8010e60:	19bb      	adds	r3, r7, r6
 8010e62:	781b      	ldrb	r3, [r3, #0]
 8010e64:	1c5a      	adds	r2, r3, #1
 8010e66:	0013      	movs	r3, r2
 8010e68:	009b      	lsls	r3, r3, #2
 8010e6a:	189b      	adds	r3, r3, r2
 8010e6c:	0019      	movs	r1, r3
 8010e6e:	230e      	movs	r3, #14
 8010e70:	18fc      	adds	r4, r7, r3
 8010e72:	1d3b      	adds	r3, r7, #4
 8010e74:	001a      	movs	r2, r3
 8010e76:	2001      	movs	r0, #1
 8010e78:	47a8      	blx	r5
 8010e7a:	0003      	movs	r3, r0
 8010e7c:	7023      	strb	r3, [r4, #0]
		UID |= tmp;
 8010e7e:	687b      	ldr	r3, [r7, #4]
 8010e80:	68ba      	ldr	r2, [r7, #8]
 8010e82:	4313      	orrs	r3, r2
 8010e84:	60bb      	str	r3, [r7, #8]
		coreAddressLookupTable[i].UID = UID;
 8010e86:	19bb      	adds	r3, r7, r6
 8010e88:	781b      	ldrb	r3, [r3, #0]
 8010e8a:	4a12      	ldr	r2, [pc, #72]	; (8010ed4 <adressing_recoverAddressTable+0x1a4>)
 8010e8c:	00db      	lsls	r3, r3, #3
 8010e8e:	18d3      	adds	r3, r2, r3
 8010e90:	3304      	adds	r3, #4
 8010e92:	68ba      	ldr	r2, [r7, #8]
 8010e94:	601a      	str	r2, [r3, #0]
	for (uint8_t i=0; i<(uint8_t)tmp; i++)
 8010e96:	19bb      	adds	r3, r7, r6
 8010e98:	781a      	ldrb	r2, [r3, #0]
 8010e9a:	19bb      	adds	r3, r7, r6
 8010e9c:	3201      	adds	r2, #1
 8010e9e:	701a      	strb	r2, [r3, #0]
 8010ea0:	687b      	ldr	r3, [r7, #4]
 8010ea2:	b2db      	uxtb	r3, r3
 8010ea4:	220d      	movs	r2, #13
 8010ea6:	18ba      	adds	r2, r7, r2
 8010ea8:	7812      	ldrb	r2, [r2, #0]
 8010eaa:	429a      	cmp	r2, r3
 8010eac:	d200      	bcs.n	8010eb0 <adressing_recoverAddressTable+0x180>
 8010eae:	e776      	b.n	8010d9e <adressing_recoverAddressTable+0x6e>
	}

	if (success == ILB_HAL_OK)
 8010eb0:	230e      	movs	r3, #14
 8010eb2:	18fb      	adds	r3, r7, r3
 8010eb4:	781b      	ldrb	r3, [r3, #0]
 8010eb6:	2b00      	cmp	r3, #0
 8010eb8:	d104      	bne.n	8010ec4 <adressing_recoverAddressTable+0x194>
	{
		return nOfStoredPeripherals;
 8010eba:	230c      	movs	r3, #12
 8010ebc:	18fb      	adds	r3, r7, r3
 8010ebe:	781b      	ldrb	r3, [r3, #0]
 8010ec0:	b25b      	sxtb	r3, r3
 8010ec2:	e001      	b.n	8010ec8 <adressing_recoverAddressTable+0x198>
	}

	return -1;
 8010ec4:	2301      	movs	r3, #1
 8010ec6:	425b      	negs	r3, r3
}
 8010ec8:	0018      	movs	r0, r3
 8010eca:	46bd      	mov	sp, r7
 8010ecc:	b005      	add	sp, #20
 8010ece:	bdf0      	pop	{r4, r5, r6, r7, pc}
 8010ed0:	0801208c 	.word	0x0801208c
 8010ed4:	200028c8 	.word	0x200028c8
 8010ed8:	20002a44 	.word	0x20002a44

08010edc <addressing_storeAddressTableInMemory>:

/**
 * Store address in memory
 */
ILB_HAL_StatusTypeDef addressing_storeAddressTableInMemory(uint8_t numberOfPeripherals)
{
 8010edc:	b5f0      	push	{r4, r5, r6, r7, lr}
 8010ede:	b085      	sub	sp, #20
 8010ee0:	af00      	add	r7, sp, #0
 8010ee2:	0002      	movs	r2, r0
 8010ee4:	1dfb      	adds	r3, r7, #7
 8010ee6:	701a      	strb	r2, [r3, #0]
	// write the complete address table to eeprom memory

	// store number of entries
	uint32_t tmp = numberOfPeripherals;
 8010ee8:	1dfb      	adds	r3, r7, #7
 8010eea:	781b      	ldrb	r3, [r3, #0]
 8010eec:	60bb      	str	r3, [r7, #8]
	ILB_HAL_StatusTypeDef status = bsw_EEPROMInterface(EEPROM_VAR_WRITE | EEPROM_VAR_BYTE, EEPROM_NUMBER_OF_PERIPHERALS_BYTE_POS, &tmp);
 8010eee:	4b5f      	ldr	r3, [pc, #380]	; (801106c <addressing_storeAddressTableInMemory+0x190>)
 8010ef0:	681b      	ldr	r3, [r3, #0]
 8010ef2:	220f      	movs	r2, #15
 8010ef4:	18bc      	adds	r4, r7, r2
 8010ef6:	2208      	movs	r2, #8
 8010ef8:	18ba      	adds	r2, r7, r2
 8010efa:	2100      	movs	r1, #0
 8010efc:	2081      	movs	r0, #129	; 0x81
 8010efe:	4798      	blx	r3
 8010f00:	0003      	movs	r3, r0
 8010f02:	7023      	strb	r3, [r4, #0]

	// iterate through entries
	for (uint8_t i=0; i<numberOfPeripherals; i++)
 8010f04:	230e      	movs	r3, #14
 8010f06:	18fb      	adds	r3, r7, r3
 8010f08:	2200      	movs	r2, #0
 8010f0a:	701a      	strb	r2, [r3, #0]
 8010f0c:	e09e      	b.n	801104c <addressing_storeAddressTableInMemory+0x170>
	{
		// note that when we use bytes, we don't need to align to words
		tmp = (uint32_t)coreAddressLookupTable[i].address;
 8010f0e:	250e      	movs	r5, #14
 8010f10:	197b      	adds	r3, r7, r5
 8010f12:	781a      	ldrb	r2, [r3, #0]
 8010f14:	4b56      	ldr	r3, [pc, #344]	; (8011070 <addressing_storeAddressTableInMemory+0x194>)
 8010f16:	00d2      	lsls	r2, r2, #3
 8010f18:	5cd3      	ldrb	r3, [r2, r3]
 8010f1a:	60bb      	str	r3, [r7, #8]
		status |= bsw_EEPROMInterface(EEPROM_VAR_WRITE | EEPROM_VAR_BYTE, EEPROM_ADDRESS_TABLE_START_POS + i*CORE_BYTES_PER_LOOKUP_TABLE_ELEMENTS, &tmp);
 8010f1c:	4b53      	ldr	r3, [pc, #332]	; (801106c <addressing_storeAddressTableInMemory+0x190>)
 8010f1e:	681c      	ldr	r4, [r3, #0]
 8010f20:	197b      	adds	r3, r7, r5
 8010f22:	781a      	ldrb	r2, [r3, #0]
 8010f24:	0013      	movs	r3, r2
 8010f26:	009b      	lsls	r3, r3, #2
 8010f28:	189b      	adds	r3, r3, r2
 8010f2a:	3301      	adds	r3, #1
 8010f2c:	0019      	movs	r1, r3
 8010f2e:	2308      	movs	r3, #8
 8010f30:	18fb      	adds	r3, r7, r3
 8010f32:	001a      	movs	r2, r3
 8010f34:	2081      	movs	r0, #129	; 0x81
 8010f36:	47a0      	blx	r4
 8010f38:	0003      	movs	r3, r0
 8010f3a:	0019      	movs	r1, r3
 8010f3c:	260f      	movs	r6, #15
 8010f3e:	19bb      	adds	r3, r7, r6
 8010f40:	19ba      	adds	r2, r7, r6
 8010f42:	7812      	ldrb	r2, [r2, #0]
 8010f44:	430a      	orrs	r2, r1
 8010f46:	701a      	strb	r2, [r3, #0]
		tmp = ((coreAddressLookupTable[i].UID >> 24) & 0xFF);
 8010f48:	197b      	adds	r3, r7, r5
 8010f4a:	781b      	ldrb	r3, [r3, #0]
 8010f4c:	4a48      	ldr	r2, [pc, #288]	; (8011070 <addressing_storeAddressTableInMemory+0x194>)
 8010f4e:	00db      	lsls	r3, r3, #3
 8010f50:	18d3      	adds	r3, r2, r3
 8010f52:	3304      	adds	r3, #4
 8010f54:	681b      	ldr	r3, [r3, #0]
 8010f56:	0e1b      	lsrs	r3, r3, #24
 8010f58:	60bb      	str	r3, [r7, #8]
		status |= bsw_EEPROMInterface(EEPROM_VAR_WRITE | EEPROM_VAR_BYTE, EEPROM_ADDRESS_TABLE_START_POS + 1+ i*CORE_BYTES_PER_LOOKUP_TABLE_ELEMENTS, &tmp);
 8010f5a:	4b44      	ldr	r3, [pc, #272]	; (801106c <addressing_storeAddressTableInMemory+0x190>)
 8010f5c:	681c      	ldr	r4, [r3, #0]
 8010f5e:	197b      	adds	r3, r7, r5
 8010f60:	781a      	ldrb	r2, [r3, #0]
 8010f62:	0013      	movs	r3, r2
 8010f64:	009b      	lsls	r3, r3, #2
 8010f66:	189b      	adds	r3, r3, r2
 8010f68:	3302      	adds	r3, #2
 8010f6a:	0019      	movs	r1, r3
 8010f6c:	2308      	movs	r3, #8
 8010f6e:	18fb      	adds	r3, r7, r3
 8010f70:	001a      	movs	r2, r3
 8010f72:	2081      	movs	r0, #129	; 0x81
 8010f74:	47a0      	blx	r4
 8010f76:	0003      	movs	r3, r0
 8010f78:	0019      	movs	r1, r3
 8010f7a:	19bb      	adds	r3, r7, r6
 8010f7c:	19ba      	adds	r2, r7, r6
 8010f7e:	7812      	ldrb	r2, [r2, #0]
 8010f80:	430a      	orrs	r2, r1
 8010f82:	701a      	strb	r2, [r3, #0]
		tmp = ((coreAddressLookupTable[i].UID >> 16) & 0xFF);
 8010f84:	197b      	adds	r3, r7, r5
 8010f86:	781b      	ldrb	r3, [r3, #0]
 8010f88:	4a39      	ldr	r2, [pc, #228]	; (8011070 <addressing_storeAddressTableInMemory+0x194>)
 8010f8a:	00db      	lsls	r3, r3, #3
 8010f8c:	18d3      	adds	r3, r2, r3
 8010f8e:	3304      	adds	r3, #4
 8010f90:	681b      	ldr	r3, [r3, #0]
 8010f92:	0c1b      	lsrs	r3, r3, #16
 8010f94:	22ff      	movs	r2, #255	; 0xff
 8010f96:	4013      	ands	r3, r2
 8010f98:	60bb      	str	r3, [r7, #8]
		status |= bsw_EEPROMInterface(EEPROM_VAR_WRITE | EEPROM_VAR_BYTE, EEPROM_ADDRESS_TABLE_START_POS + 2 + i*CORE_BYTES_PER_LOOKUP_TABLE_ELEMENTS, &tmp);
 8010f9a:	4b34      	ldr	r3, [pc, #208]	; (801106c <addressing_storeAddressTableInMemory+0x190>)
 8010f9c:	681c      	ldr	r4, [r3, #0]
 8010f9e:	197b      	adds	r3, r7, r5
 8010fa0:	781a      	ldrb	r2, [r3, #0]
 8010fa2:	0013      	movs	r3, r2
 8010fa4:	009b      	lsls	r3, r3, #2
 8010fa6:	189b      	adds	r3, r3, r2
 8010fa8:	3303      	adds	r3, #3
 8010faa:	0019      	movs	r1, r3
 8010fac:	2308      	movs	r3, #8
 8010fae:	18fb      	adds	r3, r7, r3
 8010fb0:	001a      	movs	r2, r3
 8010fb2:	2081      	movs	r0, #129	; 0x81
 8010fb4:	47a0      	blx	r4
 8010fb6:	0003      	movs	r3, r0
 8010fb8:	0019      	movs	r1, r3
 8010fba:	19bb      	adds	r3, r7, r6
 8010fbc:	19ba      	adds	r2, r7, r6
 8010fbe:	7812      	ldrb	r2, [r2, #0]
 8010fc0:	430a      	orrs	r2, r1
 8010fc2:	701a      	strb	r2, [r3, #0]
		tmp = ((coreAddressLookupTable[i].UID >> 8) & 0xFF);
 8010fc4:	197b      	adds	r3, r7, r5
 8010fc6:	781b      	ldrb	r3, [r3, #0]
 8010fc8:	4a29      	ldr	r2, [pc, #164]	; (8011070 <addressing_storeAddressTableInMemory+0x194>)
 8010fca:	00db      	lsls	r3, r3, #3
 8010fcc:	18d3      	adds	r3, r2, r3
 8010fce:	3304      	adds	r3, #4
 8010fd0:	681b      	ldr	r3, [r3, #0]
 8010fd2:	0a1b      	lsrs	r3, r3, #8
 8010fd4:	22ff      	movs	r2, #255	; 0xff
 8010fd6:	4013      	ands	r3, r2
 8010fd8:	60bb      	str	r3, [r7, #8]
		status |= bsw_EEPROMInterface(EEPROM_VAR_WRITE | EEPROM_VAR_BYTE, EEPROM_ADDRESS_TABLE_START_POS + 3 + i*CORE_BYTES_PER_LOOKUP_TABLE_ELEMENTS, &tmp);
 8010fda:	4b24      	ldr	r3, [pc, #144]	; (801106c <addressing_storeAddressTableInMemory+0x190>)
 8010fdc:	681c      	ldr	r4, [r3, #0]
 8010fde:	197b      	adds	r3, r7, r5
 8010fe0:	781a      	ldrb	r2, [r3, #0]
 8010fe2:	0013      	movs	r3, r2
 8010fe4:	009b      	lsls	r3, r3, #2
 8010fe6:	189b      	adds	r3, r3, r2
 8010fe8:	3304      	adds	r3, #4
 8010fea:	0019      	movs	r1, r3
 8010fec:	2308      	movs	r3, #8
 8010fee:	18fb      	adds	r3, r7, r3
 8010ff0:	001a      	movs	r2, r3
 8010ff2:	2081      	movs	r0, #129	; 0x81
 8010ff4:	47a0      	blx	r4
 8010ff6:	0003      	movs	r3, r0
 8010ff8:	0019      	movs	r1, r3
 8010ffa:	19bb      	adds	r3, r7, r6
 8010ffc:	19ba      	adds	r2, r7, r6
 8010ffe:	7812      	ldrb	r2, [r2, #0]
 8011000:	430a      	orrs	r2, r1
 8011002:	701a      	strb	r2, [r3, #0]
		tmp = (coreAddressLookupTable[i].UID & 0xFF);
 8011004:	197b      	adds	r3, r7, r5
 8011006:	781b      	ldrb	r3, [r3, #0]
 8011008:	4a19      	ldr	r2, [pc, #100]	; (8011070 <addressing_storeAddressTableInMemory+0x194>)
 801100a:	00db      	lsls	r3, r3, #3
 801100c:	18d3      	adds	r3, r2, r3
 801100e:	3304      	adds	r3, #4
 8011010:	681b      	ldr	r3, [r3, #0]
 8011012:	22ff      	movs	r2, #255	; 0xff
 8011014:	4013      	ands	r3, r2
 8011016:	60bb      	str	r3, [r7, #8]
		status |= bsw_EEPROMInterface(EEPROM_VAR_WRITE | EEPROM_VAR_BYTE, EEPROM_ADDRESS_TABLE_START_POS + 4 + i*CORE_BYTES_PER_LOOKUP_TABLE_ELEMENTS, &tmp);
 8011018:	4b14      	ldr	r3, [pc, #80]	; (801106c <addressing_storeAddressTableInMemory+0x190>)
 801101a:	681c      	ldr	r4, [r3, #0]
 801101c:	197b      	adds	r3, r7, r5
 801101e:	781b      	ldrb	r3, [r3, #0]
 8011020:	1c5a      	adds	r2, r3, #1
 8011022:	0013      	movs	r3, r2
 8011024:	009b      	lsls	r3, r3, #2
 8011026:	189b      	adds	r3, r3, r2
 8011028:	0019      	movs	r1, r3
 801102a:	2308      	movs	r3, #8
 801102c:	18fb      	adds	r3, r7, r3
 801102e:	001a      	movs	r2, r3
 8011030:	2081      	movs	r0, #129	; 0x81
 8011032:	47a0      	blx	r4
 8011034:	0003      	movs	r3, r0
 8011036:	0019      	movs	r1, r3
 8011038:	19bb      	adds	r3, r7, r6
 801103a:	19ba      	adds	r2, r7, r6
 801103c:	7812      	ldrb	r2, [r2, #0]
 801103e:	430a      	orrs	r2, r1
 8011040:	701a      	strb	r2, [r3, #0]
	for (uint8_t i=0; i<numberOfPeripherals; i++)
 8011042:	197b      	adds	r3, r7, r5
 8011044:	781a      	ldrb	r2, [r3, #0]
 8011046:	197b      	adds	r3, r7, r5
 8011048:	3201      	adds	r2, #1
 801104a:	701a      	strb	r2, [r3, #0]
 801104c:	230e      	movs	r3, #14
 801104e:	18fa      	adds	r2, r7, r3
 8011050:	1dfb      	adds	r3, r7, #7
 8011052:	7812      	ldrb	r2, [r2, #0]
 8011054:	781b      	ldrb	r3, [r3, #0]
 8011056:	429a      	cmp	r2, r3
 8011058:	d200      	bcs.n	801105c <addressing_storeAddressTableInMemory+0x180>
 801105a:	e758      	b.n	8010f0e <addressing_storeAddressTableInMemory+0x32>
	}

	return status;
 801105c:	230f      	movs	r3, #15
 801105e:	18fb      	adds	r3, r7, r3
 8011060:	781b      	ldrb	r3, [r3, #0]
}
 8011062:	0018      	movs	r0, r3
 8011064:	46bd      	mov	sp, r7
 8011066:	b005      	add	sp, #20
 8011068:	bdf0      	pop	{r4, r5, r6, r7, pc}
 801106a:	46c0      	nop			; (mov r8, r8)
 801106c:	20002a44 	.word	0x20002a44
 8011070:	200028c8 	.word	0x200028c8

08011074 <addressing_getAddressTableEntry>:
 *
 * @param index
 * @return
 */
PeripheralAddressEntry_t* addressing_getAddressTableEntry(uint8_t index)
{
 8011074:	b580      	push	{r7, lr}
 8011076:	b082      	sub	sp, #8
 8011078:	af00      	add	r7, sp, #0
 801107a:	0002      	movs	r2, r0
 801107c:	1dfb      	adds	r3, r7, #7
 801107e:	701a      	strb	r2, [r3, #0]
	if (index >= logic_networkLayout.totalNumberOfPeripherals)
 8011080:	4b08      	ldr	r3, [pc, #32]	; (80110a4 <addressing_getAddressTableEntry+0x30>)
 8011082:	781b      	ldrb	r3, [r3, #0]
 8011084:	1dfa      	adds	r2, r7, #7
 8011086:	7812      	ldrb	r2, [r2, #0]
 8011088:	429a      	cmp	r2, r3
 801108a:	d301      	bcc.n	8011090 <addressing_getAddressTableEntry+0x1c>
	{
		return NULL;
 801108c:	2300      	movs	r3, #0
 801108e:	e004      	b.n	801109a <addressing_getAddressTableEntry+0x26>
	}
	return &coreAddressLookupTable[index];
 8011090:	1dfb      	adds	r3, r7, #7
 8011092:	781b      	ldrb	r3, [r3, #0]
 8011094:	00da      	lsls	r2, r3, #3
 8011096:	4b04      	ldr	r3, [pc, #16]	; (80110a8 <addressing_getAddressTableEntry+0x34>)
 8011098:	18d3      	adds	r3, r2, r3
}
 801109a:	0018      	movs	r0, r3
 801109c:	46bd      	mov	sp, r7
 801109e:	b002      	add	sp, #8
 80110a0:	bd80      	pop	{r7, pc}
 80110a2:	46c0      	nop			; (mov r8, r8)
 80110a4:	0801208c 	.word	0x0801208c
 80110a8:	200028c8 	.word	0x200028c8

080110ac <addressing_getIndexOfAddress>:
 * Accessor for index of address
 * @param address
 * @return
 */
uint8_t addressing_getIndexOfAddress(uint8_t address)
{
 80110ac:	b580      	push	{r7, lr}
 80110ae:	b084      	sub	sp, #16
 80110b0:	af00      	add	r7, sp, #0
 80110b2:	0002      	movs	r2, r0
 80110b4:	1dfb      	adds	r3, r7, #7
 80110b6:	701a      	strb	r2, [r3, #0]
	for(uint8_t i=0; i<logic_networkLayout.totalNumberOfPeripherals; i++)
 80110b8:	230f      	movs	r3, #15
 80110ba:	18fb      	adds	r3, r7, r3
 80110bc:	2200      	movs	r2, #0
 80110be:	701a      	strb	r2, [r3, #0]
 80110c0:	e00f      	b.n	80110e2 <addressing_getIndexOfAddress+0x36>
	{
		if (coreAddressLookupTable->address == address)
 80110c2:	4b0e      	ldr	r3, [pc, #56]	; (80110fc <addressing_getIndexOfAddress+0x50>)
 80110c4:	781b      	ldrb	r3, [r3, #0]
 80110c6:	1dfa      	adds	r2, r7, #7
 80110c8:	7812      	ldrb	r2, [r2, #0]
 80110ca:	429a      	cmp	r2, r3
 80110cc:	d103      	bne.n	80110d6 <addressing_getIndexOfAddress+0x2a>
		{
			return i;
 80110ce:	230f      	movs	r3, #15
 80110d0:	18fb      	adds	r3, r7, r3
 80110d2:	781b      	ldrb	r3, [r3, #0]
 80110d4:	e00d      	b.n	80110f2 <addressing_getIndexOfAddress+0x46>
	for(uint8_t i=0; i<logic_networkLayout.totalNumberOfPeripherals; i++)
 80110d6:	210f      	movs	r1, #15
 80110d8:	187b      	adds	r3, r7, r1
 80110da:	781a      	ldrb	r2, [r3, #0]
 80110dc:	187b      	adds	r3, r7, r1
 80110de:	3201      	adds	r2, #1
 80110e0:	701a      	strb	r2, [r3, #0]
 80110e2:	4b07      	ldr	r3, [pc, #28]	; (8011100 <addressing_getIndexOfAddress+0x54>)
 80110e4:	781b      	ldrb	r3, [r3, #0]
 80110e6:	220f      	movs	r2, #15
 80110e8:	18ba      	adds	r2, r7, r2
 80110ea:	7812      	ldrb	r2, [r2, #0]
 80110ec:	429a      	cmp	r2, r3
 80110ee:	d3e8      	bcc.n	80110c2 <addressing_getIndexOfAddress+0x16>
		}
	}
	return 0xFF;
 80110f0:	23ff      	movs	r3, #255	; 0xff
}
 80110f2:	0018      	movs	r0, r3
 80110f4:	46bd      	mov	sp, r7
 80110f6:	b004      	add	sp, #16
 80110f8:	bd80      	pop	{r7, pc}
 80110fa:	46c0      	nop			; (mov r8, r8)
 80110fc:	200028c8 	.word	0x200028c8
 8011100:	0801208c 	.word	0x0801208c

08011104 <addressing_getAddressForIndex>:
 * Accessor to address via index
 * @param index
 * @return
 */
uint8_t addressing_getAddressForIndex(uint8_t index)
{
 8011104:	b580      	push	{r7, lr}
 8011106:	b082      	sub	sp, #8
 8011108:	af00      	add	r7, sp, #0
 801110a:	0002      	movs	r2, r0
 801110c:	1dfb      	adds	r3, r7, #7
 801110e:	701a      	strb	r2, [r3, #0]
	if (index < logic_networkLayout.totalNumberOfPeripherals)
 8011110:	4b08      	ldr	r3, [pc, #32]	; (8011134 <addressing_getAddressForIndex+0x30>)
 8011112:	781b      	ldrb	r3, [r3, #0]
 8011114:	1dfa      	adds	r2, r7, #7
 8011116:	7812      	ldrb	r2, [r2, #0]
 8011118:	429a      	cmp	r2, r3
 801111a:	d205      	bcs.n	8011128 <addressing_getAddressForIndex+0x24>
	{
		return coreAddressLookupTable[index].address;
 801111c:	1dfb      	adds	r3, r7, #7
 801111e:	781a      	ldrb	r2, [r3, #0]
 8011120:	4b05      	ldr	r3, [pc, #20]	; (8011138 <addressing_getAddressForIndex+0x34>)
 8011122:	00d2      	lsls	r2, r2, #3
 8011124:	5cd3      	ldrb	r3, [r2, r3]
 8011126:	e000      	b.n	801112a <addressing_getAddressForIndex+0x26>
	}
	return 0xFF;
 8011128:	23ff      	movs	r3, #255	; 0xff
}
 801112a:	0018      	movs	r0, r3
 801112c:	46bd      	mov	sp, r7
 801112e:	b002      	add	sp, #8
 8011130:	bd80      	pop	{r7, pc}
 8011132:	46c0      	nop			; (mov r8, r8)
 8011134:	0801208c 	.word	0x0801208c
 8011138:	200028c8 	.word	0x200028c8

0801113c <addressing_assingTrackerValueToAddress>:
 * @param index in ::coreAddressLookupTable
 *
 * @retval 8bit tracker variable
 */
uint8_t addressing_assingTrackerValueToAddress(uint8_t addressIndex)
{
 801113c:	b580      	push	{r7, lr}
 801113e:	b084      	sub	sp, #16
 8011140:	af00      	add	r7, sp, #0
 8011142:	0002      	movs	r2, r0
 8011144:	1dfb      	adds	r3, r7, #7
 8011146:	701a      	strb	r2, [r3, #0]
	if (addressIndex > logic_networkLayout.totalNumberOfPeripherals) {
 8011148:	4b1b      	ldr	r3, [pc, #108]	; (80111b8 <addressing_assingTrackerValueToAddress+0x7c>)
 801114a:	781b      	ldrb	r3, [r3, #0]
 801114c:	1dfa      	adds	r2, r7, #7
 801114e:	7812      	ldrb	r2, [r2, #0]
 8011150:	429a      	cmp	r2, r3
 8011152:	d901      	bls.n	8011158 <addressing_assingTrackerValueToAddress+0x1c>
		return 0;
 8011154:	2300      	movs	r3, #0
 8011156:	e02a      	b.n	80111ae <addressing_assingTrackerValueToAddress+0x72>
	} else {
		uint32_t now = bsw_getTick();
 8011158:	4b18      	ldr	r3, [pc, #96]	; (80111bc <addressing_assingTrackerValueToAddress+0x80>)
 801115a:	681b      	ldr	r3, [r3, #0]
 801115c:	4798      	blx	r3
 801115e:	0003      	movs	r3, r0
 8011160:	60fb      	str	r3, [r7, #12]
		coreAddressLookupTable[addressIndex].tracker = (((coreAddressLookupTable[addressIndex].UID >> 8) & 0xFF) ^ (coreAddressLookupTable[addressIndex].UID & 0xFF) ^ (now & 0xFF));
 8011162:	1dfb      	adds	r3, r7, #7
 8011164:	781b      	ldrb	r3, [r3, #0]
 8011166:	4a16      	ldr	r2, [pc, #88]	; (80111c0 <addressing_assingTrackerValueToAddress+0x84>)
 8011168:	00db      	lsls	r3, r3, #3
 801116a:	18d3      	adds	r3, r2, r3
 801116c:	3304      	adds	r3, #4
 801116e:	681b      	ldr	r3, [r3, #0]
 8011170:	0a1b      	lsrs	r3, r3, #8
 8011172:	b2da      	uxtb	r2, r3
 8011174:	1dfb      	adds	r3, r7, #7
 8011176:	781b      	ldrb	r3, [r3, #0]
 8011178:	4911      	ldr	r1, [pc, #68]	; (80111c0 <addressing_assingTrackerValueToAddress+0x84>)
 801117a:	00db      	lsls	r3, r3, #3
 801117c:	18cb      	adds	r3, r1, r3
 801117e:	3304      	adds	r3, #4
 8011180:	681b      	ldr	r3, [r3, #0]
 8011182:	b2db      	uxtb	r3, r3
 8011184:	4053      	eors	r3, r2
 8011186:	b2d9      	uxtb	r1, r3
 8011188:	68fb      	ldr	r3, [r7, #12]
 801118a:	b2da      	uxtb	r2, r3
 801118c:	1dfb      	adds	r3, r7, #7
 801118e:	781b      	ldrb	r3, [r3, #0]
 8011190:	404a      	eors	r2, r1
 8011192:	b2d1      	uxtb	r1, r2
 8011194:	4a0a      	ldr	r2, [pc, #40]	; (80111c0 <addressing_assingTrackerValueToAddress+0x84>)
 8011196:	00db      	lsls	r3, r3, #3
 8011198:	18d3      	adds	r3, r2, r3
 801119a:	3301      	adds	r3, #1
 801119c:	1c0a      	adds	r2, r1, #0
 801119e:	701a      	strb	r2, [r3, #0]
		return coreAddressLookupTable[addressIndex].tracker;
 80111a0:	1dfb      	adds	r3, r7, #7
 80111a2:	781b      	ldrb	r3, [r3, #0]
 80111a4:	4a06      	ldr	r2, [pc, #24]	; (80111c0 <addressing_assingTrackerValueToAddress+0x84>)
 80111a6:	00db      	lsls	r3, r3, #3
 80111a8:	18d3      	adds	r3, r2, r3
 80111aa:	3301      	adds	r3, #1
 80111ac:	781b      	ldrb	r3, [r3, #0]
	}
}
 80111ae:	0018      	movs	r0, r3
 80111b0:	46bd      	mov	sp, r7
 80111b2:	b004      	add	sp, #16
 80111b4:	bd80      	pop	{r7, pc}
 80111b6:	46c0      	nop			; (mov r8, r8)
 80111b8:	0801208c 	.word	0x0801208c
 80111bc:	20002a48 	.word	0x20002a48
 80111c0:	200028c8 	.word	0x200028c8

080111c4 <addressing_getAddressForPeripheral>:
 * @param index of lookup table
 *
 * @retval address of peripehral. If out of range, return 0xFF (0x00 not good, because it is equivalent to a broadcast address)
 */
uint8_t addressing_getAddressForPeripheral(uint8_t index)
{
 80111c4:	b580      	push	{r7, lr}
 80111c6:	b082      	sub	sp, #8
 80111c8:	af00      	add	r7, sp, #0
 80111ca:	0002      	movs	r2, r0
 80111cc:	1dfb      	adds	r3, r7, #7
 80111ce:	701a      	strb	r2, [r3, #0]
	if (index > logic_networkLayout.totalNumberOfPeripherals) {
 80111d0:	4b08      	ldr	r3, [pc, #32]	; (80111f4 <addressing_getAddressForPeripheral+0x30>)
 80111d2:	781b      	ldrb	r3, [r3, #0]
 80111d4:	1dfa      	adds	r2, r7, #7
 80111d6:	7812      	ldrb	r2, [r2, #0]
 80111d8:	429a      	cmp	r2, r3
 80111da:	d901      	bls.n	80111e0 <addressing_getAddressForPeripheral+0x1c>
		return 0xFF;
 80111dc:	23ff      	movs	r3, #255	; 0xff
 80111de:	e004      	b.n	80111ea <addressing_getAddressForPeripheral+0x26>
	}
	return coreAddressLookupTable[index].address;
 80111e0:	1dfb      	adds	r3, r7, #7
 80111e2:	781a      	ldrb	r2, [r3, #0]
 80111e4:	4b04      	ldr	r3, [pc, #16]	; (80111f8 <addressing_getAddressForPeripheral+0x34>)
 80111e6:	00d2      	lsls	r2, r2, #3
 80111e8:	5cd3      	ldrb	r3, [r2, r3]
}
 80111ea:	0018      	movs	r0, r3
 80111ec:	46bd      	mov	sp, r7
 80111ee:	b002      	add	sp, #8
 80111f0:	bd80      	pop	{r7, pc}
 80111f2:	46c0      	nop			; (mov r8, r8)
 80111f4:	0801208c 	.word	0x0801208c
 80111f8:	200028c8 	.word	0x200028c8

080111fc <broadcast_startBroadcastMessages>:

/**
 * Start periodic broadcast messagses
 */
void broadcast_startBroadcastMessages(void)
{
 80111fc:	b580      	push	{r7, lr}
 80111fe:	af00      	add	r7, sp, #0
	// set status
	broadcastActive = BROADCAST_WAITING;
 8011200:	4b05      	ldr	r3, [pc, #20]	; (8011218 <broadcast_startBroadcastMessages+0x1c>)
 8011202:	2201      	movs	r2, #1
 8011204:	701a      	strb	r2, [r3, #0]
	// trigger timer
	timer_startBroadcastTimer(armBroadcast, SETTINGS_BROADCAST_INTERVAL_S);
 8011206:	4b05      	ldr	r3, [pc, #20]	; (801121c <broadcast_startBroadcastMessages+0x20>)
 8011208:	211e      	movs	r1, #30
 801120a:	0018      	movs	r0, r3
 801120c:	f7ff fd68 	bl	8010ce0 <timer_startBroadcastTimer>
}
 8011210:	46c0      	nop			; (mov r8, r8)
 8011212:	46bd      	mov	sp, r7
 8011214:	bd80      	pop	{r7, pc}
 8011216:	46c0      	nop			; (mov r8, r8)
 8011218:	20002968 	.word	0x20002968
 801121c:	080112cd 	.word	0x080112cd

08011220 <broadcast_handle>:

/**
 * Handle broadcast messages that may need to be send
 */
void broadcast_handle(void)
{
 8011220:	b5b0      	push	{r4, r5, r7, lr}
 8011222:	b092      	sub	sp, #72	; 0x48
 8011224:	af00      	add	r7, sp, #0
	if (broadcastActive == BROADCAST_ARMED)
 8011226:	4b20      	ldr	r3, [pc, #128]	; (80112a8 <broadcast_handle+0x88>)
 8011228:	781b      	ldrb	r3, [r3, #0]
 801122a:	2b02      	cmp	r3, #2
 801122c:	d137      	bne.n	801129e <broadcast_handle+0x7e>
	{
		// send out the message
		ILBMessageStruct broadcastMessage;
		broadcastMessage.address = ILB_MESSAGE_BROADCAST_ADDRESS;
 801122e:	003b      	movs	r3, r7
 8011230:	2200      	movs	r2, #0
 8011232:	701a      	strb	r2, [r3, #0]
		broadcastMessage.identifier = ILB_GENERATE_IDENTIFIER;
 8011234:	003b      	movs	r3, r7
 8011236:	22ff      	movs	r2, #255	; 0xff
 8011238:	709a      	strb	r2, [r3, #2]
		broadcastMessage.messageType = ILB_MESSAGE_COMMAND;
 801123a:	003b      	movs	r3, r7
 801123c:	22c0      	movs	r2, #192	; 0xc0
 801123e:	705a      	strb	r2, [r3, #1]
		broadcastMessage.payloadSize = 6;
 8011240:	003b      	movs	r3, r7
 8011242:	2206      	movs	r2, #6
 8011244:	70da      	strb	r2, [r3, #3]
		broadcastMessage.payload[0] = ILB_BROADCAST_INFO;
 8011246:	003b      	movs	r3, r7
 8011248:	2209      	movs	r2, #9
 801124a:	711a      	strb	r2, [r3, #4]
		// get information from light engines
		lightEngine_getBroadcastInformation(&broadcastMessage.payload[1]);
 801124c:	003b      	movs	r3, r7
 801124e:	3305      	adds	r3, #5
 8011250:	0018      	movs	r0, r3
 8011252:	f000 fdb7 	bl	8011dc4 <lightEngine_getBroadcastInformation>

		// check if the core is in an error state
		CoreStatus_t coreStatus = core_getStatus();
 8011256:	2547      	movs	r5, #71	; 0x47
 8011258:	197c      	adds	r4, r7, r5
 801125a:	f7ff f951 	bl	8010500 <core_getStatus>
 801125e:	0003      	movs	r3, r0
 8011260:	7023      	strb	r3, [r4, #0]
		if (((0x01 << coreStatus) & CORE_ERROR_STATES_DEF) != 0)
 8011262:	197b      	adds	r3, r7, r5
 8011264:	781b      	ldrb	r3, [r3, #0]
 8011266:	4a11      	ldr	r2, [pc, #68]	; (80112ac <broadcast_handle+0x8c>)
 8011268:	411a      	asrs	r2, r3
 801126a:	0013      	movs	r3, r2
 801126c:	2201      	movs	r2, #1
 801126e:	4013      	ands	r3, r2
 8011270:	d006      	beq.n	8011280 <broadcast_handle+0x60>
		{
			// core is in an error state. Set the system error flag
			broadcastMessage.payload[1] |= BROADCAST_FLAG_SYSTEM_FAILURE;
 8011272:	003b      	movs	r3, r7
 8011274:	795b      	ldrb	r3, [r3, #5]
 8011276:	2201      	movs	r2, #1
 8011278:	4313      	orrs	r3, r2
 801127a:	b2da      	uxtb	r2, r3
 801127c:	003b      	movs	r3, r7
 801127e:	715a      	strb	r2, [r3, #5]
		}

		// send
		bsw_messaging_sendMessage(&broadcastMessage, NULL, 0, NULL);
 8011280:	4b0b      	ldr	r3, [pc, #44]	; (80112b0 <broadcast_handle+0x90>)
 8011282:	681c      	ldr	r4, [r3, #0]
 8011284:	0038      	movs	r0, r7
 8011286:	2300      	movs	r3, #0
 8011288:	2200      	movs	r2, #0
 801128a:	2100      	movs	r1, #0
 801128c:	47a0      	blx	r4

		// re-trigger broadcast
		timer_startBroadcastTimer(armBroadcast, SETTINGS_BROADCAST_INTERVAL_S);
 801128e:	4b09      	ldr	r3, [pc, #36]	; (80112b4 <broadcast_handle+0x94>)
 8011290:	211e      	movs	r1, #30
 8011292:	0018      	movs	r0, r3
 8011294:	f7ff fd24 	bl	8010ce0 <timer_startBroadcastTimer>

		// send to waiting
		broadcastActive = BROADCAST_WAITING;
 8011298:	4b03      	ldr	r3, [pc, #12]	; (80112a8 <broadcast_handle+0x88>)
 801129a:	2201      	movs	r2, #1
 801129c:	701a      	strb	r2, [r3, #0]
	}
}
 801129e:	46c0      	nop			; (mov r8, r8)
 80112a0:	46bd      	mov	sp, r7
 80112a2:	b012      	add	sp, #72	; 0x48
 80112a4:	bdb0      	pop	{r4, r5, r7, pc}
 80112a6:	46c0      	nop			; (mov r8, r8)
 80112a8:	20002968 	.word	0x20002968
 80112ac:	0007fe00 	.word	0x0007fe00
 80112b0:	20002a2c 	.word	0x20002a2c
 80112b4:	080112cd 	.word	0x080112cd

080112b8 <broadcast_queueBroadcastMessage>:
 * Arm the broadcast system to send a message at the next possible time
 *
 * To be called from logic
 */
void broadcast_queueBroadcastMessage(void)
{
 80112b8:	b580      	push	{r7, lr}
 80112ba:	af00      	add	r7, sp, #0
	broadcastActive = BROADCAST_ARMED;
 80112bc:	4b02      	ldr	r3, [pc, #8]	; (80112c8 <broadcast_queueBroadcastMessage+0x10>)
 80112be:	2202      	movs	r2, #2
 80112c0:	701a      	strb	r2, [r3, #0]
}
 80112c2:	46c0      	nop			; (mov r8, r8)
 80112c4:	46bd      	mov	sp, r7
 80112c6:	bd80      	pop	{r7, pc}
 80112c8:	20002968 	.word	0x20002968

080112cc <armBroadcast>:

/**
 * Callback to arm the broadcast via a timer
 */
void armBroadcast(void)
{
 80112cc:	b580      	push	{r7, lr}
 80112ce:	af00      	add	r7, sp, #0
	if (broadcastActive != BROADCAST_DISABLED)
 80112d0:	4b04      	ldr	r3, [pc, #16]	; (80112e4 <armBroadcast+0x18>)
 80112d2:	781b      	ldrb	r3, [r3, #0]
 80112d4:	2b00      	cmp	r3, #0
 80112d6:	d002      	beq.n	80112de <armBroadcast+0x12>
	{
		broadcastActive = BROADCAST_ARMED;
 80112d8:	4b02      	ldr	r3, [pc, #8]	; (80112e4 <armBroadcast+0x18>)
 80112da:	2202      	movs	r2, #2
 80112dc:	701a      	strb	r2, [r3, #0]
	}
}
 80112de:	46c0      	nop			; (mov r8, r8)
 80112e0:	46bd      	mov	sp, r7
 80112e2:	bd80      	pop	{r7, pc}
 80112e4:	20002968 	.word	0x20002968

080112e8 <discovery_startNetworkDiscovery>:

/**
 * Start the network discvovery procedure
 */
void discovery_startNetworkDiscovery(void)
{
 80112e8:	b590      	push	{r4, r7, lr}
 80112ea:	b093      	sub	sp, #76	; 0x4c
 80112ec:	af00      	add	r7, sp, #0
	// prepare working variables
	nOfKnownPeripherals = 0;
 80112ee:	4b1c      	ldr	r3, [pc, #112]	; (8011360 <discovery_startNetworkDiscovery+0x78>)
 80112f0:	2200      	movs	r2, #0
 80112f2:	701a      	strb	r2, [r3, #0]
//	nOfFoundPeripheralsInGroups = malloc(sizeof(*nOfFoundPeripheralsInGroups) * logic_networkLayout.numberOfGroups);
	for (uint8_t i=0; i<logic_networkLayout.numberOfGroups; i++)
 80112f4:	2347      	movs	r3, #71	; 0x47
 80112f6:	18fb      	adds	r3, r7, r3
 80112f8:	2200      	movs	r2, #0
 80112fa:	701a      	strb	r2, [r3, #0]
 80112fc:	e00a      	b.n	8011314 <discovery_startNetworkDiscovery+0x2c>
	{
		nOfFoundPeripheralsInGroups[i] = 0;
 80112fe:	2047      	movs	r0, #71	; 0x47
 8011300:	183b      	adds	r3, r7, r0
 8011302:	781b      	ldrb	r3, [r3, #0]
 8011304:	4a17      	ldr	r2, [pc, #92]	; (8011364 <discovery_startNetworkDiscovery+0x7c>)
 8011306:	2100      	movs	r1, #0
 8011308:	54d1      	strb	r1, [r2, r3]
	for (uint8_t i=0; i<logic_networkLayout.numberOfGroups; i++)
 801130a:	183b      	adds	r3, r7, r0
 801130c:	781a      	ldrb	r2, [r3, #0]
 801130e:	183b      	adds	r3, r7, r0
 8011310:	3201      	adds	r2, #1
 8011312:	701a      	strb	r2, [r3, #0]
 8011314:	4b14      	ldr	r3, [pc, #80]	; (8011368 <discovery_startNetworkDiscovery+0x80>)
 8011316:	7a1b      	ldrb	r3, [r3, #8]
 8011318:	2247      	movs	r2, #71	; 0x47
 801131a:	18ba      	adds	r2, r7, r2
 801131c:	7812      	ldrb	r2, [r2, #0]
 801131e:	429a      	cmp	r2, r3
 8011320:	d3ed      	bcc.n	80112fe <discovery_startNetworkDiscovery+0x16>
	}

	// send the discovery message into the network
	ILBMessageStruct msg;
	msg.address = ILB_MESSAGE_BROADCAST_ADDRESS;
 8011322:	003b      	movs	r3, r7
 8011324:	2200      	movs	r2, #0
 8011326:	701a      	strb	r2, [r3, #0]
	msg.identifier = ILB_GENERATE_IDENTIFIER;
 8011328:	003b      	movs	r3, r7
 801132a:	22ff      	movs	r2, #255	; 0xff
 801132c:	709a      	strb	r2, [r3, #2]
	msg.messageType = ILB_MESSAGE_COMMAND;
 801132e:	003b      	movs	r3, r7
 8011330:	22c0      	movs	r2, #192	; 0xc0
 8011332:	705a      	strb	r2, [r3, #1]
	msg.payloadSize = 1;
 8011334:	003b      	movs	r3, r7
 8011336:	2201      	movs	r2, #1
 8011338:	70da      	strb	r2, [r3, #3]
	msg.payload[0] = ILB_REPORT_UID;
 801133a:	003b      	movs	r3, r7
 801133c:	2201      	movs	r2, #1
 801133e:	711a      	strb	r2, [r3, #4]

	// send discovery message
	bsw_messaging_sendMessage(&msg, discoveryCallback, SETTING_NETWORK_DISCOVERY_TIMEOUT_MS, discovery_comissioningWindowHasExpired);
 8011340:	4b0a      	ldr	r3, [pc, #40]	; (801136c <discovery_startNetworkDiscovery+0x84>)
 8011342:	681c      	ldr	r4, [r3, #0]
 8011344:	4b0a      	ldr	r3, [pc, #40]	; (8011370 <discovery_startNetworkDiscovery+0x88>)
 8011346:	22fa      	movs	r2, #250	; 0xfa
 8011348:	0052      	lsls	r2, r2, #1
 801134a:	490a      	ldr	r1, [pc, #40]	; (8011374 <discovery_startNetworkDiscovery+0x8c>)
 801134c:	0038      	movs	r0, r7
 801134e:	47a0      	blx	r4

	// set the state
	configState = CONFIGURATION_WAITING;
 8011350:	4b09      	ldr	r3, [pc, #36]	; (8011378 <discovery_startNetworkDiscovery+0x90>)
 8011352:	2201      	movs	r2, #1
 8011354:	701a      	strb	r2, [r3, #0]
}
 8011356:	46c0      	nop			; (mov r8, r8)
 8011358:	46bd      	mov	sp, r7
 801135a:	b013      	add	sp, #76	; 0x4c
 801135c:	bd90      	pop	{r4, r7, pc}
 801135e:	46c0      	nop			; (mov r8, r8)
 8011360:	2000296a 	.word	0x2000296a
 8011364:	20002970 	.word	0x20002970
 8011368:	0801208c 	.word	0x0801208c
 801136c:	20002a2c 	.word	0x20002a2c
 8011370:	08011515 	.word	0x08011515
 8011374:	080113b1 	.word	0x080113b1
 8011378:	20002969 	.word	0x20002969

0801137c <discovery_getState>:
 * Return the state of the discovery process
 *
 * @return
 */
ILB_HAL_StatusTypeDef discovery_getState(void)
{
 801137c:	b580      	push	{r7, lr}
 801137e:	af00      	add	r7, sp, #0
	if (configState == CONFIGURATION_DONE)
 8011380:	4b0a      	ldr	r3, [pc, #40]	; (80113ac <discovery_getState+0x30>)
 8011382:	781b      	ldrb	r3, [r3, #0]
 8011384:	2b02      	cmp	r3, #2
 8011386:	d101      	bne.n	801138c <discovery_getState+0x10>
	{
		return ILB_HAL_OK;
 8011388:	2300      	movs	r3, #0
 801138a:	e00c      	b.n	80113a6 <discovery_getState+0x2a>
	} else if (configState == CONFIGURATION_ERROR)
 801138c:	4b07      	ldr	r3, [pc, #28]	; (80113ac <discovery_getState+0x30>)
 801138e:	781b      	ldrb	r3, [r3, #0]
 8011390:	2b03      	cmp	r3, #3
 8011392:	d101      	bne.n	8011398 <discovery_getState+0x1c>
	{
		return ILB_HAL_ERROR;
 8011394:	2301      	movs	r3, #1
 8011396:	e006      	b.n	80113a6 <discovery_getState+0x2a>
	} else if (configState == CONFIGURATION_INVALID)
 8011398:	4b04      	ldr	r3, [pc, #16]	; (80113ac <discovery_getState+0x30>)
 801139a:	781b      	ldrb	r3, [r3, #0]
 801139c:	2b04      	cmp	r3, #4
 801139e:	d101      	bne.n	80113a4 <discovery_getState+0x28>
	{
		return ILB_HAL_INVALID;
 80113a0:	2304      	movs	r3, #4
 80113a2:	e000      	b.n	80113a6 <discovery_getState+0x2a>
	}
	return ILB_HAL_BUSY;
 80113a4:	2302      	movs	r3, #2
}
 80113a6:	0018      	movs	r0, r3
 80113a8:	46bd      	mov	sp, r7
 80113aa:	bd80      	pop	{r7, pc}
 80113ac:	20002969 	.word	0x20002969

080113b0 <discoveryCallback>:
 * address should go to which index. It is imperative that we obey these numbers.
 *
 * @param msg
 */
void discoveryCallback(ILBMessageStruct* message)
{
 80113b0:	b590      	push	{r4, r7, lr}
 80113b2:	b087      	sub	sp, #28
 80113b4:	af00      	add	r7, sp, #0
 80113b6:	6078      	str	r0, [r7, #4]
	// check if the answer is the answer to a query UID message
	if (message->identifier == ILB_MESSAGE_IDENTIFIER_MIN &&
 80113b8:	687b      	ldr	r3, [r7, #4]
 80113ba:	789b      	ldrb	r3, [r3, #2]
 80113bc:	2b01      	cmp	r3, #1
 80113be:	d000      	beq.n	80113c2 <discoveryCallback+0x12>
 80113c0:	e097      	b.n	80114f2 <discoveryCallback+0x142>
		message->payloadSize == 4) {
 80113c2:	687b      	ldr	r3, [r7, #4]
 80113c4:	78db      	ldrb	r3, [r3, #3]
	if (message->identifier == ILB_MESSAGE_IDENTIFIER_MIN &&
 80113c6:	2b04      	cmp	r3, #4
 80113c8:	d000      	beq.n	80113cc <discoveryCallback+0x1c>
 80113ca:	e092      	b.n	80114f2 <discoveryCallback+0x142>

		// count up number of known peripherals
		nOfKnownPeripherals++;
 80113cc:	4b4a      	ldr	r3, [pc, #296]	; (80114f8 <discoveryCallback+0x148>)
 80113ce:	781b      	ldrb	r3, [r3, #0]
 80113d0:	3301      	adds	r3, #1
 80113d2:	b2da      	uxtb	r2, r3
 80113d4:	4b48      	ldr	r3, [pc, #288]	; (80114f8 <discoveryCallback+0x148>)
 80113d6:	701a      	strb	r2, [r3, #0]

		// the address of the message contains the identifier. Check if this identifier exists in the lists of expected group IDs
		for (uint8_t i=0; i<logic_networkLayout.numberOfGroups; i++)
 80113d8:	2317      	movs	r3, #23
 80113da:	18fb      	adds	r3, r7, r3
 80113dc:	2200      	movs	r2, #0
 80113de:	701a      	strb	r2, [r3, #0]
 80113e0:	e075      	b.n	80114ce <discoveryCallback+0x11e>
		{
			// check for match
			if (logic_networkLayout.groups[i]->groupID == message->address)
 80113e2:	4b46      	ldr	r3, [pc, #280]	; (80114fc <discoveryCallback+0x14c>)
 80113e4:	68da      	ldr	r2, [r3, #12]
 80113e6:	2117      	movs	r1, #23
 80113e8:	187b      	adds	r3, r7, r1
 80113ea:	781b      	ldrb	r3, [r3, #0]
 80113ec:	009b      	lsls	r3, r3, #2
 80113ee:	18d3      	adds	r3, r2, r3
 80113f0:	681b      	ldr	r3, [r3, #0]
 80113f2:	781a      	ldrb	r2, [r3, #0]
 80113f4:	687b      	ldr	r3, [r7, #4]
 80113f6:	781b      	ldrb	r3, [r3, #0]
 80113f8:	429a      	cmp	r2, r3
 80113fa:	d162      	bne.n	80114c2 <discoveryCallback+0x112>
			{
				// match found. Store at the UID at the  appropriate index

				//layout->groups[i]->nOfFound++;
				nOfFoundPeripheralsInGroups[i] += 1;
 80113fc:	187b      	adds	r3, r7, r1
 80113fe:	781b      	ldrb	r3, [r3, #0]
 8011400:	4a3f      	ldr	r2, [pc, #252]	; (8011500 <discoveryCallback+0x150>)
 8011402:	5cd2      	ldrb	r2, [r2, r3]
 8011404:	0008      	movs	r0, r1
 8011406:	187b      	adds	r3, r7, r1
 8011408:	781b      	ldrb	r3, [r3, #0]
 801140a:	3201      	adds	r2, #1
 801140c:	b2d1      	uxtb	r1, r2
 801140e:	4a3c      	ldr	r2, [pc, #240]	; (8011500 <discoveryCallback+0x150>)
 8011410:	54d1      	strb	r1, [r2, r3]

				// check if we exceed the number
				if (nOfFoundPeripheralsInGroups[i] > logic_networkLayout.groups[i]->nOfExpected)
 8011412:	183b      	adds	r3, r7, r0
 8011414:	781b      	ldrb	r3, [r3, #0]
 8011416:	4a3a      	ldr	r2, [pc, #232]	; (8011500 <discoveryCallback+0x150>)
 8011418:	5cd2      	ldrb	r2, [r2, r3]
 801141a:	4b38      	ldr	r3, [pc, #224]	; (80114fc <discoveryCallback+0x14c>)
 801141c:	68d9      	ldr	r1, [r3, #12]
 801141e:	183b      	adds	r3, r7, r0
 8011420:	781b      	ldrb	r3, [r3, #0]
 8011422:	009b      	lsls	r3, r3, #2
 8011424:	18cb      	adds	r3, r1, r3
 8011426:	681b      	ldr	r3, [r3, #0]
 8011428:	785b      	ldrb	r3, [r3, #1]
 801142a:	429a      	cmp	r2, r3
 801142c:	d903      	bls.n	8011436 <discoveryCallback+0x86>
				{
					configState = CONFIGURATION_INVALID;
 801142e:	4b35      	ldr	r3, [pc, #212]	; (8011504 <discoveryCallback+0x154>)
 8011430:	2204      	movs	r2, #4
 8011432:	701a      	strb	r2, [r3, #0]
					return;
 8011434:	e05d      	b.n	80114f2 <discoveryCallback+0x142>
				}

				// the peripheral is a candidate. Extract the UID
				uint32_t tmpUID = 0;
 8011436:	2300      	movs	r3, #0
 8011438:	613b      	str	r3, [r7, #16]
				for (uint8_t i=0; i<4; i++) {
 801143a:	230f      	movs	r3, #15
 801143c:	18fb      	adds	r3, r7, r3
 801143e:	2200      	movs	r2, #0
 8011440:	701a      	strb	r2, [r3, #0]
 8011442:	e016      	b.n	8011472 <discoveryCallback+0xc2>
					tmpUID += (message->payload[i] << ((3-i)*8));
 8011444:	200f      	movs	r0, #15
 8011446:	183b      	adds	r3, r7, r0
 8011448:	781b      	ldrb	r3, [r3, #0]
 801144a:	687a      	ldr	r2, [r7, #4]
 801144c:	18d3      	adds	r3, r2, r3
 801144e:	791b      	ldrb	r3, [r3, #4]
 8011450:	0019      	movs	r1, r3
 8011452:	183b      	adds	r3, r7, r0
 8011454:	781b      	ldrb	r3, [r3, #0]
 8011456:	2203      	movs	r2, #3
 8011458:	1ad3      	subs	r3, r2, r3
 801145a:	00db      	lsls	r3, r3, #3
 801145c:	4099      	lsls	r1, r3
 801145e:	000b      	movs	r3, r1
 8011460:	001a      	movs	r2, r3
 8011462:	693b      	ldr	r3, [r7, #16]
 8011464:	189b      	adds	r3, r3, r2
 8011466:	613b      	str	r3, [r7, #16]
				for (uint8_t i=0; i<4; i++) {
 8011468:	183b      	adds	r3, r7, r0
 801146a:	781a      	ldrb	r2, [r3, #0]
 801146c:	183b      	adds	r3, r7, r0
 801146e:	3201      	adds	r2, #1
 8011470:	701a      	strb	r2, [r3, #0]
 8011472:	230f      	movs	r3, #15
 8011474:	18fb      	adds	r3, r7, r3
 8011476:	781b      	ldrb	r3, [r3, #0]
 8011478:	2b03      	cmp	r3, #3
 801147a:	d9e3      	bls.n	8011444 <discoveryCallback+0x94>
				}

				// store the UID in the address table for later address assignment.
				// the index matches the specified index for the logic
				PeripheralAddressEntry_t* entry = addressing_getAddressTableEntry(logic_networkLayout.groups[i]->addressIndexList[nOfFoundPeripheralsInGroups[i]-1]);
 801147c:	4b1f      	ldr	r3, [pc, #124]	; (80114fc <discoveryCallback+0x14c>)
 801147e:	68da      	ldr	r2, [r3, #12]
 8011480:	2117      	movs	r1, #23
 8011482:	187b      	adds	r3, r7, r1
 8011484:	781b      	ldrb	r3, [r3, #0]
 8011486:	009b      	lsls	r3, r3, #2
 8011488:	18d3      	adds	r3, r2, r3
 801148a:	681b      	ldr	r3, [r3, #0]
 801148c:	685a      	ldr	r2, [r3, #4]
 801148e:	187b      	adds	r3, r7, r1
 8011490:	781b      	ldrb	r3, [r3, #0]
 8011492:	491b      	ldr	r1, [pc, #108]	; (8011500 <discoveryCallback+0x150>)
 8011494:	5ccb      	ldrb	r3, [r1, r3]
 8011496:	3b01      	subs	r3, #1
 8011498:	18d3      	adds	r3, r2, r3
 801149a:	781b      	ldrb	r3, [r3, #0]
 801149c:	0018      	movs	r0, r3
 801149e:	f7ff fde9 	bl	8011074 <addressing_getAddressTableEntry>
 80114a2:	0003      	movs	r3, r0
 80114a4:	60bb      	str	r3, [r7, #8]
				if (entry == NULL)
 80114a6:	68bb      	ldr	r3, [r7, #8]
 80114a8:	2b00      	cmp	r3, #0
 80114aa:	d103      	bne.n	80114b4 <discoveryCallback+0x104>
				{
					configState = CONFIGURATION_ERROR;
 80114ac:	4b15      	ldr	r3, [pc, #84]	; (8011504 <discoveryCallback+0x154>)
 80114ae:	2203      	movs	r2, #3
 80114b0:	701a      	strb	r2, [r3, #0]
					return;
 80114b2:	e01e      	b.n	80114f2 <discoveryCallback+0x142>
				}
				entry->UID = tmpUID;
 80114b4:	68bb      	ldr	r3, [r7, #8]
 80114b6:	693a      	ldr	r2, [r7, #16]
 80114b8:	605a      	str	r2, [r3, #4]
				entry->address = message->address;		// this is the peripheral class for the moment.
 80114ba:	687b      	ldr	r3, [r7, #4]
 80114bc:	781a      	ldrb	r2, [r3, #0]
 80114be:	68bb      	ldr	r3, [r7, #8]
 80114c0:	701a      	strb	r2, [r3, #0]
		for (uint8_t i=0; i<logic_networkLayout.numberOfGroups; i++)
 80114c2:	2117      	movs	r1, #23
 80114c4:	187b      	adds	r3, r7, r1
 80114c6:	781a      	ldrb	r2, [r3, #0]
 80114c8:	187b      	adds	r3, r7, r1
 80114ca:	3201      	adds	r2, #1
 80114cc:	701a      	strb	r2, [r3, #0]
 80114ce:	4b0b      	ldr	r3, [pc, #44]	; (80114fc <discoveryCallback+0x14c>)
 80114d0:	7a1b      	ldrb	r3, [r3, #8]
 80114d2:	2217      	movs	r2, #23
 80114d4:	18ba      	adds	r2, r7, r2
 80114d6:	7812      	ldrb	r2, [r2, #0]
 80114d8:	429a      	cmp	r2, r3
 80114da:	d382      	bcc.n	80113e2 <discoveryCallback+0x32>
			}
		}
		// register this function again so that other peripherals can register
		message->messageType = ILB_MESSAGE_HANDLER_ONLY;
 80114dc:	687b      	ldr	r3, [r7, #4]
 80114de:	22aa      	movs	r2, #170	; 0xaa
 80114e0:	705a      	strb	r2, [r3, #1]
		bsw_messaging_sendMessage(message, discoveryCallback, SETTING_NETWORK_DISCOVERY_TIMEOUT_MS, discovery_comissioningWindowHasExpired);
 80114e2:	4b09      	ldr	r3, [pc, #36]	; (8011508 <discoveryCallback+0x158>)
 80114e4:	681c      	ldr	r4, [r3, #0]
 80114e6:	4b09      	ldr	r3, [pc, #36]	; (801150c <discoveryCallback+0x15c>)
 80114e8:	22fa      	movs	r2, #250	; 0xfa
 80114ea:	0052      	lsls	r2, r2, #1
 80114ec:	4908      	ldr	r1, [pc, #32]	; (8011510 <discoveryCallback+0x160>)
 80114ee:	6878      	ldr	r0, [r7, #4]
 80114f0:	47a0      	blx	r4
	}
}
 80114f2:	46bd      	mov	sp, r7
 80114f4:	b007      	add	sp, #28
 80114f6:	bd90      	pop	{r4, r7, pc}
 80114f8:	2000296a 	.word	0x2000296a
 80114fc:	0801208c 	.word	0x0801208c
 8011500:	20002970 	.word	0x20002970
 8011504:	20002969 	.word	0x20002969
 8011508:	20002a2c 	.word	0x20002a2c
 801150c:	08011515 	.word	0x08011515
 8011510:	080113b1 	.word	0x080113b1

08011514 <discovery_comissioningWindowHasExpired>:
 * is handled in assignAddressCallback() and assignAddressTimeoutCallback() with a timeout of ::CORE_ADDRESS_NEGOTIATION_TIME_MS.
 * Said functions will change the initialization status of the core and instruct it to proceed with the configuration of the network.
 *
 */
void discovery_comissioningWindowHasExpired(void)
{
 8011514:	b5f0      	push	{r4, r5, r6, r7, lr}
 8011516:	b09b      	sub	sp, #108	; 0x6c
 8011518:	af00      	add	r7, sp, #0
	CoreStatus_t status = core_getStatus();
 801151a:	2562      	movs	r5, #98	; 0x62
 801151c:	197c      	adds	r4, r7, r5
 801151e:	f7fe ffef 	bl	8010500 <core_getStatus>
 8011522:	0003      	movs	r3, r0
 8011524:	7023      	strb	r3, [r4, #0]
	switch(status) {
 8011526:	197b      	adds	r3, r7, r5
 8011528:	781b      	ldrb	r3, [r3, #0]
 801152a:	2b04      	cmp	r3, #4
 801152c:	d000      	beq.n	8011530 <discovery_comissioningWindowHasExpired+0x1c>
 801152e:	e0de      	b.n	80116ee <discovery_comissioningWindowHasExpired+0x1da>
	case CORE_WAITING_FOR_PERIPHERAL_UID:
		// the core was waiting for the peripherals. Check if the found network satisfies the requirements
		// check for total number of peripherals
		if (nOfKnownPeripherals != logic_networkLayout.totalNumberOfPeripherals) {
 8011530:	4b71      	ldr	r3, [pc, #452]	; (80116f8 <discovery_comissioningWindowHasExpired+0x1e4>)
 8011532:	781a      	ldrb	r2, [r3, #0]
 8011534:	4b71      	ldr	r3, [pc, #452]	; (80116fc <discovery_comissioningWindowHasExpired+0x1e8>)
 8011536:	781b      	ldrb	r3, [r3, #0]
 8011538:	429a      	cmp	r2, r3
 801153a:	d003      	beq.n	8011544 <discovery_comissioningWindowHasExpired+0x30>
			// set error status
			configState = CONFIGURATION_INVALID;
 801153c:	4b70      	ldr	r3, [pc, #448]	; (8011700 <discovery_comissioningWindowHasExpired+0x1ec>)
 801153e:	2204      	movs	r2, #4
 8011540:	701a      	strb	r2, [r3, #0]
			return;
 8011542:	e0d5      	b.n	80116f0 <discovery_comissioningWindowHasExpired+0x1dc>
		}
		// check for matching individual numbers
		for (uint8_t i=0; i<logic_networkLayout.numberOfGroups; i++) {
 8011544:	2367      	movs	r3, #103	; 0x67
 8011546:	18fb      	adds	r3, r7, r3
 8011548:	2200      	movs	r2, #0
 801154a:	701a      	strb	r2, [r3, #0]
 801154c:	e018      	b.n	8011580 <discovery_comissioningWindowHasExpired+0x6c>
			if (nOfFoundPeripheralsInGroups[i] != logic_networkLayout.groups[i]->nOfExpected) {
 801154e:	2067      	movs	r0, #103	; 0x67
 8011550:	183b      	adds	r3, r7, r0
 8011552:	781b      	ldrb	r3, [r3, #0]
 8011554:	4a6b      	ldr	r2, [pc, #428]	; (8011704 <discovery_comissioningWindowHasExpired+0x1f0>)
 8011556:	5cd2      	ldrb	r2, [r2, r3]
 8011558:	4b67      	ldr	r3, [pc, #412]	; (80116f8 <discovery_comissioningWindowHasExpired+0x1e4>)
 801155a:	68d9      	ldr	r1, [r3, #12]
 801155c:	183b      	adds	r3, r7, r0
 801155e:	781b      	ldrb	r3, [r3, #0]
 8011560:	009b      	lsls	r3, r3, #2
 8011562:	18cb      	adds	r3, r1, r3
 8011564:	681b      	ldr	r3, [r3, #0]
 8011566:	785b      	ldrb	r3, [r3, #1]
 8011568:	429a      	cmp	r2, r3
 801156a:	d003      	beq.n	8011574 <discovery_comissioningWindowHasExpired+0x60>
				configState = CONFIGURATION_INVALID;
 801156c:	4b64      	ldr	r3, [pc, #400]	; (8011700 <discovery_comissioningWindowHasExpired+0x1ec>)
 801156e:	2204      	movs	r2, #4
 8011570:	701a      	strb	r2, [r3, #0]
				return;
 8011572:	e0bd      	b.n	80116f0 <discovery_comissioningWindowHasExpired+0x1dc>
		for (uint8_t i=0; i<logic_networkLayout.numberOfGroups; i++) {
 8011574:	2167      	movs	r1, #103	; 0x67
 8011576:	187b      	adds	r3, r7, r1
 8011578:	781a      	ldrb	r2, [r3, #0]
 801157a:	187b      	adds	r3, r7, r1
 801157c:	3201      	adds	r2, #1
 801157e:	701a      	strb	r2, [r3, #0]
 8011580:	4b5d      	ldr	r3, [pc, #372]	; (80116f8 <discovery_comissioningWindowHasExpired+0x1e4>)
 8011582:	7a1b      	ldrb	r3, [r3, #8]
 8011584:	2267      	movs	r2, #103	; 0x67
 8011586:	18ba      	adds	r2, r7, r2
 8011588:	7812      	ldrb	r2, [r2, #0]
 801158a:	429a      	cmp	r2, r3
 801158c:	d3df      	bcc.n	801154e <discovery_comissioningWindowHasExpired+0x3a>
			}
		}
		// generate list of addresses for peripherals
		if (SETTING_PERIPHERAL_ADDRESS_MAX-SETTING_PERIPHERAL_ADDRESS_MIN < nOfKnownPeripherals) {
 801158e:	4b5b      	ldr	r3, [pc, #364]	; (80116fc <discovery_comissioningWindowHasExpired+0x1e8>)
 8011590:	781b      	ldrb	r3, [r3, #0]
 8011592:	2bfc      	cmp	r3, #252	; 0xfc
 8011594:	d903      	bls.n	801159e <discovery_comissioningWindowHasExpired+0x8a>
			// this is an error state. Not enough addresses available
			configState = CONFIGURATION_ERROR;
 8011596:	4b5a      	ldr	r3, [pc, #360]	; (8011700 <discovery_comissioningWindowHasExpired+0x1ec>)
 8011598:	2203      	movs	r2, #3
 801159a:	701a      	strb	r2, [r3, #0]
			return;
 801159c:	e0a8      	b.n	80116f0 <discovery_comissioningWindowHasExpired+0x1dc>
		}

		// create a list of random addresses
		uint8_t addressList[SETTING_MAXIMAL_NUMBER_OF_PERIPHERALS] = {0};
 801159e:	2344      	movs	r3, #68	; 0x44
 80115a0:	18fb      	adds	r3, r7, r3
 80115a2:	2200      	movs	r2, #0
 80115a4:	601a      	str	r2, [r3, #0]
 80115a6:	3304      	adds	r3, #4
 80115a8:	2210      	movs	r2, #16
 80115aa:	2100      	movs	r1, #0
 80115ac:	0018      	movs	r0, r3
 80115ae:	f000 fcf6 	bl	8011f9e <memset>
		uint8_t nOfFoundAddresses = 0;
 80115b2:	2366      	movs	r3, #102	; 0x66
 80115b4:	18fb      	adds	r3, r7, r3
 80115b6:	2200      	movs	r2, #0
 80115b8:	701a      	strb	r2, [r3, #0]
		while(nOfFoundAddresses < logic_networkLayout.totalNumberOfPeripherals) {
 80115ba:	e03c      	b.n	8011636 <discovery_comissioningWindowHasExpired+0x122>
			uint8_t alreadyInList = 0;
 80115bc:	2365      	movs	r3, #101	; 0x65
 80115be:	18fb      	adds	r3, r7, r3
 80115c0:	2200      	movs	r2, #0
 80115c2:	701a      	strb	r2, [r3, #0]
			generateRandomAddress(&addressList[nOfFoundAddresses]);
 80115c4:	2366      	movs	r3, #102	; 0x66
 80115c6:	18fb      	adds	r3, r7, r3
 80115c8:	781b      	ldrb	r3, [r3, #0]
 80115ca:	2244      	movs	r2, #68	; 0x44
 80115cc:	18ba      	adds	r2, r7, r2
 80115ce:	18d3      	adds	r3, r2, r3
 80115d0:	0018      	movs	r0, r3
 80115d2:	f000 fa49 	bl	8011a68 <generateRandomAddress>
			// check if address is already in the list
			for (uint8_t i=0; i<nOfFoundAddresses; i++) {
 80115d6:	2364      	movs	r3, #100	; 0x64
 80115d8:	18fb      	adds	r3, r7, r3
 80115da:	2200      	movs	r2, #0
 80115dc:	701a      	strb	r2, [r3, #0]
 80115de:	e016      	b.n	801160e <discovery_comissioningWindowHasExpired+0xfa>
				if (addressList[nOfFoundAddresses] == addressList[i]) {
 80115e0:	2366      	movs	r3, #102	; 0x66
 80115e2:	18fb      	adds	r3, r7, r3
 80115e4:	781b      	ldrb	r3, [r3, #0]
 80115e6:	2144      	movs	r1, #68	; 0x44
 80115e8:	187a      	adds	r2, r7, r1
 80115ea:	5cd2      	ldrb	r2, [r2, r3]
 80115ec:	2364      	movs	r3, #100	; 0x64
 80115ee:	18fb      	adds	r3, r7, r3
 80115f0:	781b      	ldrb	r3, [r3, #0]
 80115f2:	1879      	adds	r1, r7, r1
 80115f4:	5ccb      	ldrb	r3, [r1, r3]
 80115f6:	429a      	cmp	r2, r3
 80115f8:	d103      	bne.n	8011602 <discovery_comissioningWindowHasExpired+0xee>
					// try again
					alreadyInList = 1;
 80115fa:	2365      	movs	r3, #101	; 0x65
 80115fc:	18fb      	adds	r3, r7, r3
 80115fe:	2201      	movs	r2, #1
 8011600:	701a      	strb	r2, [r3, #0]
			for (uint8_t i=0; i<nOfFoundAddresses; i++) {
 8011602:	2164      	movs	r1, #100	; 0x64
 8011604:	187b      	adds	r3, r7, r1
 8011606:	781a      	ldrb	r2, [r3, #0]
 8011608:	187b      	adds	r3, r7, r1
 801160a:	3201      	adds	r2, #1
 801160c:	701a      	strb	r2, [r3, #0]
 801160e:	2364      	movs	r3, #100	; 0x64
 8011610:	18fa      	adds	r2, r7, r3
 8011612:	2366      	movs	r3, #102	; 0x66
 8011614:	18fb      	adds	r3, r7, r3
 8011616:	7812      	ldrb	r2, [r2, #0]
 8011618:	781b      	ldrb	r3, [r3, #0]
 801161a:	429a      	cmp	r2, r3
 801161c:	d3e0      	bcc.n	80115e0 <discovery_comissioningWindowHasExpired+0xcc>
				}
			}
			// do we need to try again
			if (alreadyInList) {
 801161e:	2365      	movs	r3, #101	; 0x65
 8011620:	18fb      	adds	r3, r7, r3
 8011622:	781b      	ldrb	r3, [r3, #0]
 8011624:	2b00      	cmp	r3, #0
 8011626:	d000      	beq.n	801162a <discovery_comissioningWindowHasExpired+0x116>
				continue;
 8011628:	e005      	b.n	8011636 <discovery_comissioningWindowHasExpired+0x122>
			}
			// store in list
			nOfFoundAddresses++;
 801162a:	2166      	movs	r1, #102	; 0x66
 801162c:	187b      	adds	r3, r7, r1
 801162e:	781a      	ldrb	r2, [r3, #0]
 8011630:	187b      	adds	r3, r7, r1
 8011632:	3201      	adds	r2, #1
 8011634:	701a      	strb	r2, [r3, #0]
		while(nOfFoundAddresses < logic_networkLayout.totalNumberOfPeripherals) {
 8011636:	4b30      	ldr	r3, [pc, #192]	; (80116f8 <discovery_comissioningWindowHasExpired+0x1e4>)
 8011638:	781b      	ldrb	r3, [r3, #0]
 801163a:	2266      	movs	r2, #102	; 0x66
 801163c:	18ba      	adds	r2, r7, r2
 801163e:	7812      	ldrb	r2, [r2, #0]
 8011640:	429a      	cmp	r2, r3
 8011642:	d3bb      	bcc.n	80115bc <discovery_comissioningWindowHasExpired+0xa8>

		// if we reached here, the total number of peripherals and individual number of peripherals is valid.
		// iterate through the peripherals and assign them addresses. The order of the address lookup table
		// must be the same as defined in the enum. The order is stored in the network layout structure.

		for (uint8_t i=0; i<nOfKnownPeripherals; i++) {
 8011644:	2363      	movs	r3, #99	; 0x63
 8011646:	18fb      	adds	r3, r7, r3
 8011648:	2200      	movs	r2, #0
 801164a:	701a      	strb	r2, [r3, #0]
 801164c:	e047      	b.n	80116de <discovery_comissioningWindowHasExpired+0x1ca>
			PeripheralAddressEntry_t* handledEntry;
			handledEntry = addressing_getAddressTableEntry(i);
 801164e:	2463      	movs	r4, #99	; 0x63
 8011650:	193b      	adds	r3, r7, r4
 8011652:	781b      	ldrb	r3, [r3, #0]
 8011654:	0018      	movs	r0, r3
 8011656:	f7ff fd0d 	bl	8011074 <addressing_getAddressTableEntry>
 801165a:	0003      	movs	r3, r0
 801165c:	65fb      	str	r3, [r7, #92]	; 0x5c
			uint32_t UID = handledEntry->UID;
 801165e:	6dfb      	ldr	r3, [r7, #92]	; 0x5c
 8011660:	685b      	ldr	r3, [r3, #4]
 8011662:	65bb      	str	r3, [r7, #88]	; 0x58

			// prepare and send message
			ILBMessageStruct msg;
			msg.address = ILB_MESSAGE_BROADCAST_ADDRESS;
 8011664:	003b      	movs	r3, r7
 8011666:	2200      	movs	r2, #0
 8011668:	701a      	strb	r2, [r3, #0]
			msg.identifier = ILB_GENERATE_IDENTIFIER;
 801166a:	003b      	movs	r3, r7
 801166c:	22ff      	movs	r2, #255	; 0xff
 801166e:	709a      	strb	r2, [r3, #2]
			msg.messageType = ILB_MESSAGE_COMMAND;
 8011670:	003b      	movs	r3, r7
 8011672:	22c0      	movs	r2, #192	; 0xc0
 8011674:	705a      	strb	r2, [r3, #1]
			msg.payloadSize = 6;
 8011676:	003b      	movs	r3, r7
 8011678:	2206      	movs	r2, #6
 801167a:	70da      	strb	r2, [r3, #3]
			msg.payload[0] = ILB_CHANGE_ADDRESS;
 801167c:	003b      	movs	r3, r7
 801167e:	2202      	movs	r2, #2
 8011680:	711a      	strb	r2, [r3, #4]
			msg.payload[1] = (UID >> 24) & 0xFF;   // UID
 8011682:	6dbb      	ldr	r3, [r7, #88]	; 0x58
 8011684:	0e1b      	lsrs	r3, r3, #24
 8011686:	b2da      	uxtb	r2, r3
 8011688:	003b      	movs	r3, r7
 801168a:	715a      	strb	r2, [r3, #5]
			msg.payload[2] = (UID >> 16) & 0xFF;
 801168c:	6dbb      	ldr	r3, [r7, #88]	; 0x58
 801168e:	0c1b      	lsrs	r3, r3, #16
 8011690:	b2da      	uxtb	r2, r3
 8011692:	003b      	movs	r3, r7
 8011694:	719a      	strb	r2, [r3, #6]
			msg.payload[3] = (UID >> 8) & 0xFF;
 8011696:	6dbb      	ldr	r3, [r7, #88]	; 0x58
 8011698:	0a1b      	lsrs	r3, r3, #8
 801169a:	b2da      	uxtb	r2, r3
 801169c:	003b      	movs	r3, r7
 801169e:	71da      	strb	r2, [r3, #7]
			msg.payload[4] = (UID & 0xFF);
 80116a0:	6dbb      	ldr	r3, [r7, #88]	; 0x58
 80116a2:	b2da      	uxtb	r2, r3
 80116a4:	003b      	movs	r3, r7
 80116a6:	721a      	strb	r2, [r3, #8]
			msg.payload[5] = addressList[i];       // address to take
 80116a8:	0025      	movs	r5, r4
 80116aa:	193b      	adds	r3, r7, r4
 80116ac:	781b      	ldrb	r3, [r3, #0]
 80116ae:	2644      	movs	r6, #68	; 0x44
 80116b0:	19ba      	adds	r2, r7, r6
 80116b2:	5cd2      	ldrb	r2, [r2, r3]
 80116b4:	003b      	movs	r3, r7
 80116b6:	725a      	strb	r2, [r3, #9]

			bsw_messaging_sendMessage(&msg, &assignAddressCallback, SETTING_NETWORK_DISCOVERY_TIMEOUT_MS, assignAddressTimeoutCallback);
 80116b8:	4b13      	ldr	r3, [pc, #76]	; (8011708 <discovery_comissioningWindowHasExpired+0x1f4>)
 80116ba:	681c      	ldr	r4, [r3, #0]
 80116bc:	4b13      	ldr	r3, [pc, #76]	; (801170c <discovery_comissioningWindowHasExpired+0x1f8>)
 80116be:	22fa      	movs	r2, #250	; 0xfa
 80116c0:	0052      	lsls	r2, r2, #1
 80116c2:	4913      	ldr	r1, [pc, #76]	; (8011710 <discovery_comissioningWindowHasExpired+0x1fc>)
 80116c4:	0038      	movs	r0, r7
 80116c6:	47a0      	blx	r4

			// store in table
			handledEntry->address = addressList[i];
 80116c8:	197b      	adds	r3, r7, r5
 80116ca:	781b      	ldrb	r3, [r3, #0]
 80116cc:	19ba      	adds	r2, r7, r6
 80116ce:	5cd2      	ldrb	r2, [r2, r3]
 80116d0:	6dfb      	ldr	r3, [r7, #92]	; 0x5c
 80116d2:	701a      	strb	r2, [r3, #0]
		for (uint8_t i=0; i<nOfKnownPeripherals; i++) {
 80116d4:	197b      	adds	r3, r7, r5
 80116d6:	781a      	ldrb	r2, [r3, #0]
 80116d8:	197b      	adds	r3, r7, r5
 80116da:	3201      	adds	r2, #1
 80116dc:	701a      	strb	r2, [r3, #0]
 80116de:	4b07      	ldr	r3, [pc, #28]	; (80116fc <discovery_comissioningWindowHasExpired+0x1e8>)
 80116e0:	781b      	ldrb	r3, [r3, #0]
 80116e2:	2263      	movs	r2, #99	; 0x63
 80116e4:	18ba      	adds	r2, r7, r2
 80116e6:	7812      	ldrb	r2, [r2, #0]
 80116e8:	429a      	cmp	r2, r3
 80116ea:	d3b0      	bcc.n	801164e <discovery_comissioningWindowHasExpired+0x13a>
		}
		// change of initialisation state will be handled in callback when all peripherals have an assigned address

		// free the memory used previously
		//free(addressList);
		break;
 80116ec:	e000      	b.n	80116f0 <discovery_comissioningWindowHasExpired+0x1dc>
	default:
		break;
 80116ee:	46c0      	nop			; (mov r8, r8)
	}
}
 80116f0:	46bd      	mov	sp, r7
 80116f2:	b01b      	add	sp, #108	; 0x6c
 80116f4:	bdf0      	pop	{r4, r5, r6, r7, pc}
 80116f6:	46c0      	nop			; (mov r8, r8)
 80116f8:	0801208c 	.word	0x0801208c
 80116fc:	2000296a 	.word	0x2000296a
 8011700:	20002969 	.word	0x20002969
 8011704:	20002970 	.word	0x20002970
 8011708:	20002a2c 	.word	0x20002a2c
 801170c:	08011771 	.word	0x08011771
 8011710:	08011715 	.word	0x08011715

08011714 <assignAddressCallback>:

/**
 * Callback function to assign addresses
 */
void assignAddressCallback(ILBMessageStruct* message)
{
 8011714:	b580      	push	{r7, lr}
 8011716:	b082      	sub	sp, #8
 8011718:	af00      	add	r7, sp, #0
 801171a:	6078      	str	r0, [r7, #4]
	// check if the device returned an ILB ok
	if (!(message->messageType == ILB_MESSAGE_ACHKNOWLEDGE &&
 801171c:	687b      	ldr	r3, [r7, #4]
 801171e:	785b      	ldrb	r3, [r3, #1]
 8011720:	2b80      	cmp	r3, #128	; 0x80
 8011722:	d107      	bne.n	8011734 <assignAddressCallback+0x20>
		  message->payload[0] == ILB_OK &&
 8011724:	687b      	ldr	r3, [r7, #4]
 8011726:	791b      	ldrb	r3, [r3, #4]
	if (!(message->messageType == ILB_MESSAGE_ACHKNOWLEDGE &&
 8011728:	2b00      	cmp	r3, #0
 801172a:	d103      	bne.n	8011734 <assignAddressCallback+0x20>
		  message->payloadSize == 1)) {
 801172c:	687b      	ldr	r3, [r7, #4]
 801172e:	78db      	ldrb	r3, [r3, #3]
	if (!(message->messageType == ILB_MESSAGE_ACHKNOWLEDGE &&
 8011730:	2b01      	cmp	r3, #1
 8011732:	d002      	beq.n	801173a <assignAddressCallback+0x26>
		// indicate error while trying to assign the addresses
		configState = CONFIGURATION_ERROR;
 8011734:	4b0b      	ldr	r3, [pc, #44]	; (8011764 <assignAddressCallback+0x50>)
 8011736:	2203      	movs	r2, #3
 8011738:	701a      	strb	r2, [r3, #0]
	}
	// track number of peripherals that have acknowledged
	nOfConfiguredPeripherals++;
 801173a:	4b0b      	ldr	r3, [pc, #44]	; (8011768 <assignAddressCallback+0x54>)
 801173c:	881b      	ldrh	r3, [r3, #0]
 801173e:	3301      	adds	r3, #1
 8011740:	b29a      	uxth	r2, r3
 8011742:	4b09      	ldr	r3, [pc, #36]	; (8011768 <assignAddressCallback+0x54>)
 8011744:	801a      	strh	r2, [r3, #0]
	if (nOfConfiguredPeripherals == logic_networkLayout.totalNumberOfPeripherals) {
 8011746:	4b09      	ldr	r3, [pc, #36]	; (801176c <assignAddressCallback+0x58>)
 8011748:	781b      	ldrb	r3, [r3, #0]
 801174a:	b29a      	uxth	r2, r3
 801174c:	4b06      	ldr	r3, [pc, #24]	; (8011768 <assignAddressCallback+0x54>)
 801174e:	881b      	ldrh	r3, [r3, #0]
 8011750:	429a      	cmp	r2, r3
 8011752:	d102      	bne.n	801175a <assignAddressCallback+0x46>
		// we have assigned addresses to all peripherals. Proceed to configuration
		configState = CONFIGURATION_DONE;
 8011754:	4b03      	ldr	r3, [pc, #12]	; (8011764 <assignAddressCallback+0x50>)
 8011756:	2202      	movs	r2, #2
 8011758:	701a      	strb	r2, [r3, #0]
	}
}
 801175a:	46c0      	nop			; (mov r8, r8)
 801175c:	46bd      	mov	sp, r7
 801175e:	b002      	add	sp, #8
 8011760:	bd80      	pop	{r7, pc}
 8011762:	46c0      	nop			; (mov r8, r8)
 8011764:	20002969 	.word	0x20002969
 8011768:	2000296c 	.word	0x2000296c
 801176c:	0801208c 	.word	0x0801208c

08011770 <assignAddressTimeoutCallback>:

/**
 * Timeout function to assign addresses
 */
void assignAddressTimeoutCallback(void)
{
 8011770:	b580      	push	{r7, lr}
 8011772:	af00      	add	r7, sp, #0
	// we ran into a timout. The addresses could not be assigned in time
	configState = CONFIGURATION_ERROR;
 8011774:	4b02      	ldr	r3, [pc, #8]	; (8011780 <assignAddressTimeoutCallback+0x10>)
 8011776:	2203      	movs	r2, #3
 8011778:	701a      	strb	r2, [r3, #0]
}
 801177a:	46c0      	nop			; (mov r8, r8)
 801177c:	46bd      	mov	sp, r7
 801177e:	bd80      	pop	{r7, pc}
 8011780:	20002969 	.word	0x20002969

08011784 <discovery_startPeripheralCofiguration>:
 * Start the network configuration, the transmission of settings and writing of tracker bytes.
 *
 * This function only serves as the starter. The actual work is done by the re-entrant function discovery_configurePeripherals.
 */
void discovery_startPeripheralCofiguration(void)
{
 8011784:	b580      	push	{r7, lr}
 8011786:	af00      	add	r7, sp, #0
	currentConfigurationIndex = 0;
 8011788:	4b04      	ldr	r3, [pc, #16]	; (801179c <discovery_startPeripheralCofiguration+0x18>)
 801178a:	2200      	movs	r2, #0
 801178c:	701a      	strb	r2, [r3, #0]
	configState = CONFIGURATION_RUNNING;
 801178e:	4b04      	ldr	r3, [pc, #16]	; (80117a0 <discovery_startPeripheralCofiguration+0x1c>)
 8011790:	2200      	movs	r2, #0
 8011792:	701a      	strb	r2, [r3, #0]
}
 8011794:	46c0      	nop			; (mov r8, r8)
 8011796:	46bd      	mov	sp, r7
 8011798:	bd80      	pop	{r7, pc}
 801179a:	46c0      	nop			; (mov r8, r8)
 801179c:	2000296e 	.word	0x2000296e
 80117a0:	20002969 	.word	0x20002969

080117a4 <discovery_configurePeripherals>:
 * \todo This function should be moved to core.c. How should the variables be organised? Especially the link to the addresses?
 *
 * \retval 0 on success and full configuration. 1 if a re-entry is necessary
 */
ILB_HAL_StatusTypeDef discovery_configurePeripherals(void)
{
 80117a4:	b590      	push	{r4, r7, lr}
 80117a6:	b093      	sub	sp, #76	; 0x4c
 80117a8:	af00      	add	r7, sp, #0

	if (configState == CONFIGURATION_DONE)
 80117aa:	4b92      	ldr	r3, [pc, #584]	; (80119f4 <discovery_configurePeripherals+0x250>)
 80117ac:	781b      	ldrb	r3, [r3, #0]
 80117ae:	2b02      	cmp	r3, #2
 80117b0:	d101      	bne.n	80117b6 <discovery_configurePeripherals+0x12>
	{
		// signal all ok
		return ILB_HAL_OK;
 80117b2:	2300      	movs	r3, #0
 80117b4:	e119      	b.n	80119ea <discovery_configurePeripherals+0x246>
	} else if (configState == CONFIGURATION_ERROR)
 80117b6:	4b8f      	ldr	r3, [pc, #572]	; (80119f4 <discovery_configurePeripherals+0x250>)
 80117b8:	781b      	ldrb	r3, [r3, #0]
 80117ba:	2b03      	cmp	r3, #3
 80117bc:	d101      	bne.n	80117c2 <discovery_configurePeripherals+0x1e>
	{
		// signal that something went wrong
		return ILB_HAL_OK;
 80117be:	2300      	movs	r3, #0
 80117c0:	e113      	b.n	80119ea <discovery_configurePeripherals+0x246>
	} else if (configState == CONFIGURATION_WAITING)
 80117c2:	4b8c      	ldr	r3, [pc, #560]	; (80119f4 <discovery_configurePeripherals+0x250>)
 80117c4:	781b      	ldrb	r3, [r3, #0]
 80117c6:	2b01      	cmp	r3, #1
 80117c8:	d101      	bne.n	80117ce <discovery_configurePeripherals+0x2a>
	{
		return ILB_HAL_BUSY;
 80117ca:	2302      	movs	r3, #2
 80117cc:	e10d      	b.n	80119ea <discovery_configurePeripherals+0x246>

	//
	//
	//
	// the core can send the next configuration message
	if (currentConfigurationIndex < logic_configurationInstructionSet.totalNumberOfConfigurationMessages) {
 80117ce:	4b8a      	ldr	r3, [pc, #552]	; (80119f8 <discovery_configurePeripherals+0x254>)
 80117d0:	781b      	ldrb	r3, [r3, #0]
 80117d2:	b29a      	uxth	r2, r3
 80117d4:	4b89      	ldr	r3, [pc, #548]	; (80119fc <discovery_configurePeripherals+0x258>)
 80117d6:	881b      	ldrh	r3, [r3, #0]
 80117d8:	429a      	cmp	r2, r3
 80117da:	d300      	bcc.n	80117de <discovery_configurePeripherals+0x3a>
 80117dc:	e0a6      	b.n	801192c <discovery_configurePeripherals+0x188>
		// prepare message the next message.
		// we need to iterate through the structure to find the next
		uint8_t counter = 0;
 80117de:	2347      	movs	r3, #71	; 0x47
 80117e0:	18fb      	adds	r3, r7, r3
 80117e2:	2200      	movs	r2, #0
 80117e4:	701a      	strb	r2, [r3, #0]
		for (uint8_t setIndex = 0; setIndex < logic_configurationInstructionSet.numberOfConfigurationSets; setIndex++)
 80117e6:	2346      	movs	r3, #70	; 0x46
 80117e8:	18fb      	adds	r3, r7, r3
 80117ea:	2200      	movs	r2, #0
 80117ec:	701a      	strb	r2, [r3, #0]
 80117ee:	e094      	b.n	801191a <discovery_configurePeripherals+0x176>
		{
			for (uint8_t instructionIndex = 0; instructionIndex < logic_configurationInstructionSet.instructionSets[setIndex].numberOfInstructsionInSet; instructionIndex++)
 80117f0:	2345      	movs	r3, #69	; 0x45
 80117f2:	18fb      	adds	r3, r7, r3
 80117f4:	2200      	movs	r2, #0
 80117f6:	701a      	strb	r2, [r3, #0]
 80117f8:	e07b      	b.n	80118f2 <discovery_configurePeripherals+0x14e>
			{
				if (counter == currentConfigurationIndex)
 80117fa:	4b7f      	ldr	r3, [pc, #508]	; (80119f8 <discovery_configurePeripherals+0x254>)
 80117fc:	781b      	ldrb	r3, [r3, #0]
 80117fe:	2247      	movs	r2, #71	; 0x47
 8011800:	18ba      	adds	r2, r7, r2
 8011802:	7812      	ldrb	r2, [r2, #0]
 8011804:	429a      	cmp	r2, r3
 8011806:	d168      	bne.n	80118da <discovery_configurePeripherals+0x136>
				{
					// prepare message
					ILBMessageStruct configurationMessage;
					configurationMessage.address = addressing_getAddressForIndex(logic_configurationInstructionSet.instructionSets[setIndex].targetAddressIndex);
 8011808:	4b7c      	ldr	r3, [pc, #496]	; (80119fc <discovery_configurePeripherals+0x258>)
 801180a:	685a      	ldr	r2, [r3, #4]
 801180c:	2346      	movs	r3, #70	; 0x46
 801180e:	18fb      	adds	r3, r7, r3
 8011810:	781b      	ldrb	r3, [r3, #0]
 8011812:	00db      	lsls	r3, r3, #3
 8011814:	18d3      	adds	r3, r2, r3
 8011816:	785b      	ldrb	r3, [r3, #1]
 8011818:	0018      	movs	r0, r3
 801181a:	f7ff fc73 	bl	8011104 <addressing_getAddressForIndex>
 801181e:	0003      	movs	r3, r0
 8011820:	001a      	movs	r2, r3
 8011822:	003b      	movs	r3, r7
 8011824:	701a      	strb	r2, [r3, #0]
					configurationMessage.identifier = ILB_GENERATE_IDENTIFIER;
 8011826:	003b      	movs	r3, r7
 8011828:	22ff      	movs	r2, #255	; 0xff
 801182a:	709a      	strb	r2, [r3, #2]
					configurationMessage.messageType = ILB_MESSAGE_WRITE;
 801182c:	003b      	movs	r3, r7
 801182e:	2240      	movs	r2, #64	; 0x40
 8011830:	705a      	strb	r2, [r3, #1]
					configurationMessage.payloadSize = 0;
 8011832:	003b      	movs	r3, r7
 8011834:	2200      	movs	r2, #0
 8011836:	70da      	strb	r2, [r3, #3]
					// we found the current message
					for (uint8_t i=0; i<logic_configurationInstructionSet.instructionSets[setIndex].instructionList[instructionIndex].numberOfBytesInInstruction; i++)
 8011838:	2344      	movs	r3, #68	; 0x44
 801183a:	18fb      	adds	r3, r7, r3
 801183c:	2200      	movs	r2, #0
 801183e:	701a      	strb	r2, [r3, #0]
 8011840:	e023      	b.n	801188a <discovery_configurePeripherals+0xe6>
					{
						configurationMessage.payload[i] = logic_configurationInstructionSet.instructionSets[setIndex].instructionList[instructionIndex].instruction[i];
 8011842:	4b6e      	ldr	r3, [pc, #440]	; (80119fc <discovery_configurePeripherals+0x258>)
 8011844:	685a      	ldr	r2, [r3, #4]
 8011846:	2346      	movs	r3, #70	; 0x46
 8011848:	18fb      	adds	r3, r7, r3
 801184a:	781b      	ldrb	r3, [r3, #0]
 801184c:	00db      	lsls	r3, r3, #3
 801184e:	18d3      	adds	r3, r2, r3
 8011850:	685a      	ldr	r2, [r3, #4]
 8011852:	2345      	movs	r3, #69	; 0x45
 8011854:	18fb      	adds	r3, r7, r3
 8011856:	781b      	ldrb	r3, [r3, #0]
 8011858:	00db      	lsls	r3, r3, #3
 801185a:	18d3      	adds	r3, r2, r3
 801185c:	685a      	ldr	r2, [r3, #4]
 801185e:	2044      	movs	r0, #68	; 0x44
 8011860:	183b      	adds	r3, r7, r0
 8011862:	781b      	ldrb	r3, [r3, #0]
 8011864:	18d2      	adds	r2, r2, r3
 8011866:	183b      	adds	r3, r7, r0
 8011868:	781b      	ldrb	r3, [r3, #0]
 801186a:	7811      	ldrb	r1, [r2, #0]
 801186c:	003a      	movs	r2, r7
 801186e:	18d3      	adds	r3, r2, r3
 8011870:	1c0a      	adds	r2, r1, #0
 8011872:	711a      	strb	r2, [r3, #4]
						configurationMessage.payloadSize++;
 8011874:	003b      	movs	r3, r7
 8011876:	78db      	ldrb	r3, [r3, #3]
 8011878:	3301      	adds	r3, #1
 801187a:	b2da      	uxtb	r2, r3
 801187c:	003b      	movs	r3, r7
 801187e:	70da      	strb	r2, [r3, #3]
					for (uint8_t i=0; i<logic_configurationInstructionSet.instructionSets[setIndex].instructionList[instructionIndex].numberOfBytesInInstruction; i++)
 8011880:	183b      	adds	r3, r7, r0
 8011882:	781a      	ldrb	r2, [r3, #0]
 8011884:	183b      	adds	r3, r7, r0
 8011886:	3201      	adds	r2, #1
 8011888:	701a      	strb	r2, [r3, #0]
 801188a:	4b5c      	ldr	r3, [pc, #368]	; (80119fc <discovery_configurePeripherals+0x258>)
 801188c:	685a      	ldr	r2, [r3, #4]
 801188e:	2346      	movs	r3, #70	; 0x46
 8011890:	18fb      	adds	r3, r7, r3
 8011892:	781b      	ldrb	r3, [r3, #0]
 8011894:	00db      	lsls	r3, r3, #3
 8011896:	18d3      	adds	r3, r2, r3
 8011898:	685a      	ldr	r2, [r3, #4]
 801189a:	2345      	movs	r3, #69	; 0x45
 801189c:	18fb      	adds	r3, r7, r3
 801189e:	781b      	ldrb	r3, [r3, #0]
 80118a0:	00db      	lsls	r3, r3, #3
 80118a2:	18d3      	adds	r3, r2, r3
 80118a4:	781b      	ldrb	r3, [r3, #0]
 80118a6:	2244      	movs	r2, #68	; 0x44
 80118a8:	18ba      	adds	r2, r7, r2
 80118aa:	7812      	ldrb	r2, [r2, #0]
 80118ac:	429a      	cmp	r2, r3
 80118ae:	d3c8      	bcc.n	8011842 <discovery_configurePeripherals+0x9e>
					}
					core_setStatus(CORE_WAITING_FOR_PERIPHERAL_CONFIG);
 80118b0:	2006      	movs	r0, #6
 80118b2:	f7fe fd85 	bl	80103c0 <core_setStatus>

					// send message
					bsw_messaging_sendMessage(&configurationMessage, discovery_handleConfigurationFeedback, SETTING_NETWORK_APPLY_SETTING_TIMEOUT_MS, discovery_configurationWindowHasExpired);
 80118b6:	4b52      	ldr	r3, [pc, #328]	; (8011a00 <discovery_configurePeripherals+0x25c>)
 80118b8:	681c      	ldr	r4, [r3, #0]
 80118ba:	4b52      	ldr	r3, [pc, #328]	; (8011a04 <discovery_configurePeripherals+0x260>)
 80118bc:	2296      	movs	r2, #150	; 0x96
 80118be:	0052      	lsls	r2, r2, #1
 80118c0:	4951      	ldr	r1, [pc, #324]	; (8011a08 <discovery_configurePeripherals+0x264>)
 80118c2:	0038      	movs	r0, r7
 80118c4:	47a0      	blx	r4

					// proceed to next message
					currentConfigurationIndex++;
 80118c6:	4b4c      	ldr	r3, [pc, #304]	; (80119f8 <discovery_configurePeripherals+0x254>)
 80118c8:	781b      	ldrb	r3, [r3, #0]
 80118ca:	3301      	adds	r3, #1
 80118cc:	b2da      	uxtb	r2, r3
 80118ce:	4b4a      	ldr	r3, [pc, #296]	; (80119f8 <discovery_configurePeripherals+0x254>)
 80118d0:	701a      	strb	r2, [r3, #0]
					// indicate that we are waiting for an anwer
					configState = CONFIGURATION_WAITING;
 80118d2:	4b48      	ldr	r3, [pc, #288]	; (80119f4 <discovery_configurePeripherals+0x250>)
 80118d4:	2201      	movs	r2, #1
 80118d6:	701a      	strb	r2, [r3, #0]
					break;
 80118d8:	e019      	b.n	801190e <discovery_configurePeripherals+0x16a>
				}
				counter++;
 80118da:	2147      	movs	r1, #71	; 0x47
 80118dc:	187b      	adds	r3, r7, r1
 80118de:	781a      	ldrb	r2, [r3, #0]
 80118e0:	187b      	adds	r3, r7, r1
 80118e2:	3201      	adds	r2, #1
 80118e4:	701a      	strb	r2, [r3, #0]
			for (uint8_t instructionIndex = 0; instructionIndex < logic_configurationInstructionSet.instructionSets[setIndex].numberOfInstructsionInSet; instructionIndex++)
 80118e6:	2145      	movs	r1, #69	; 0x45
 80118e8:	187b      	adds	r3, r7, r1
 80118ea:	781a      	ldrb	r2, [r3, #0]
 80118ec:	187b      	adds	r3, r7, r1
 80118ee:	3201      	adds	r2, #1
 80118f0:	701a      	strb	r2, [r3, #0]
 80118f2:	4b42      	ldr	r3, [pc, #264]	; (80119fc <discovery_configurePeripherals+0x258>)
 80118f4:	685a      	ldr	r2, [r3, #4]
 80118f6:	2346      	movs	r3, #70	; 0x46
 80118f8:	18fb      	adds	r3, r7, r3
 80118fa:	781b      	ldrb	r3, [r3, #0]
 80118fc:	00db      	lsls	r3, r3, #3
 80118fe:	18d3      	adds	r3, r2, r3
 8011900:	781b      	ldrb	r3, [r3, #0]
 8011902:	2245      	movs	r2, #69	; 0x45
 8011904:	18ba      	adds	r2, r7, r2
 8011906:	7812      	ldrb	r2, [r2, #0]
 8011908:	429a      	cmp	r2, r3
 801190a:	d200      	bcs.n	801190e <discovery_configurePeripherals+0x16a>
 801190c:	e775      	b.n	80117fa <discovery_configurePeripherals+0x56>
		for (uint8_t setIndex = 0; setIndex < logic_configurationInstructionSet.numberOfConfigurationSets; setIndex++)
 801190e:	2146      	movs	r1, #70	; 0x46
 8011910:	187b      	adds	r3, r7, r1
 8011912:	781a      	ldrb	r2, [r3, #0]
 8011914:	187b      	adds	r3, r7, r1
 8011916:	3201      	adds	r2, #1
 8011918:	701a      	strb	r2, [r3, #0]
 801191a:	4b38      	ldr	r3, [pc, #224]	; (80119fc <discovery_configurePeripherals+0x258>)
 801191c:	789b      	ldrb	r3, [r3, #2]
 801191e:	2246      	movs	r2, #70	; 0x46
 8011920:	18ba      	adds	r2, r7, r2
 8011922:	7812      	ldrb	r2, [r2, #0]
 8011924:	429a      	cmp	r2, r3
 8011926:	d200      	bcs.n	801192a <discovery_configurePeripherals+0x186>
 8011928:	e762      	b.n	80117f0 <discovery_configurePeripherals+0x4c>
 801192a:	e05d      	b.n	80119e8 <discovery_configurePeripherals+0x244>
			}
		}
	} else if (currentConfigurationIndex < logic_configurationInstructionSet.totalNumberOfConfigurationMessages + nOfConfiguredPeripherals) {
 801192c:	4b32      	ldr	r3, [pc, #200]	; (80119f8 <discovery_configurePeripherals+0x254>)
 801192e:	781b      	ldrb	r3, [r3, #0]
 8011930:	001a      	movs	r2, r3
 8011932:	4b32      	ldr	r3, [pc, #200]	; (80119fc <discovery_configurePeripherals+0x258>)
 8011934:	881b      	ldrh	r3, [r3, #0]
 8011936:	0019      	movs	r1, r3
 8011938:	4b34      	ldr	r3, [pc, #208]	; (8011a0c <discovery_configurePeripherals+0x268>)
 801193a:	881b      	ldrh	r3, [r3, #0]
 801193c:	18cb      	adds	r3, r1, r3
 801193e:	429a      	cmp	r2, r3
 8011940:	da3f      	bge.n	80119c2 <discovery_configurePeripherals+0x21e>
		// write the initial tracker to the peripheral
		core_setStatus(CORE_WAITING_FOR_PERIPHERAL_CONFIG);
 8011942:	2006      	movs	r0, #6
 8011944:	f7fe fd3c 	bl	80103c0 <core_setStatus>
		// prepare message
		ILBMessageStruct trackerWriteMessage;
		trackerWriteMessage.address = addressing_getAddressTableEntry(currentConfigurationIndex - logic_configurationInstructionSet.totalNumberOfConfigurationMessages)->address;
 8011948:	4b2b      	ldr	r3, [pc, #172]	; (80119f8 <discovery_configurePeripherals+0x254>)
 801194a:	781a      	ldrb	r2, [r3, #0]
 801194c:	4b2b      	ldr	r3, [pc, #172]	; (80119fc <discovery_configurePeripherals+0x258>)
 801194e:	881b      	ldrh	r3, [r3, #0]
 8011950:	b2db      	uxtb	r3, r3
 8011952:	1ad3      	subs	r3, r2, r3
 8011954:	b2db      	uxtb	r3, r3
 8011956:	0018      	movs	r0, r3
 8011958:	f7ff fb8c 	bl	8011074 <addressing_getAddressTableEntry>
 801195c:	0003      	movs	r3, r0
 801195e:	781a      	ldrb	r2, [r3, #0]
 8011960:	003b      	movs	r3, r7
 8011962:	701a      	strb	r2, [r3, #0]
		trackerWriteMessage.messageType = ILB_MESSAGE_WRITE;
 8011964:	003b      	movs	r3, r7
 8011966:	2240      	movs	r2, #64	; 0x40
 8011968:	705a      	strb	r2, [r3, #1]
		trackerWriteMessage.identifier = ILB_GENERATE_IDENTIFIER;
 801196a:	003b      	movs	r3, r7
 801196c:	22ff      	movs	r2, #255	; 0xff
 801196e:	709a      	strb	r2, [r3, #2]
		trackerWriteMessage.payload[0] = ILB_PERIPHERAL_STATUS_BASE_ADDRESS;
 8011970:	003b      	movs	r3, r7
 8011972:	2201      	movs	r2, #1
 8011974:	711a      	strb	r2, [r3, #4]
		trackerWriteMessage.payload[1] = ILB_TRACKER_SUB_ADDRESS;
 8011976:	003b      	movs	r3, r7
 8011978:	2200      	movs	r2, #0
 801197a:	715a      	strb	r2, [r3, #5]
		trackerWriteMessage.payload[2] = addressing_assingTrackerValueToAddress(currentConfigurationIndex - logic_configurationInstructionSet.totalNumberOfConfigurationMessages);
 801197c:	4b1e      	ldr	r3, [pc, #120]	; (80119f8 <discovery_configurePeripherals+0x254>)
 801197e:	781a      	ldrb	r2, [r3, #0]
 8011980:	4b1e      	ldr	r3, [pc, #120]	; (80119fc <discovery_configurePeripherals+0x258>)
 8011982:	881b      	ldrh	r3, [r3, #0]
 8011984:	b2db      	uxtb	r3, r3
 8011986:	1ad3      	subs	r3, r2, r3
 8011988:	b2db      	uxtb	r3, r3
 801198a:	0018      	movs	r0, r3
 801198c:	f7ff fbd6 	bl	801113c <addressing_assingTrackerValueToAddress>
 8011990:	0003      	movs	r3, r0
 8011992:	001a      	movs	r2, r3
 8011994:	003b      	movs	r3, r7
 8011996:	719a      	strb	r2, [r3, #6]
		trackerWriteMessage.payloadSize = 3;
 8011998:	003b      	movs	r3, r7
 801199a:	2203      	movs	r2, #3
 801199c:	70da      	strb	r2, [r3, #3]

		// send message
		bsw_messaging_sendMessage(&trackerWriteMessage, discovery_handleConfigurationFeedback, SETTING_NETWORK_APPLY_SETTING_TIMEOUT_MS, discovery_configurationWindowHasExpired);
 801199e:	4b18      	ldr	r3, [pc, #96]	; (8011a00 <discovery_configurePeripherals+0x25c>)
 80119a0:	681c      	ldr	r4, [r3, #0]
 80119a2:	4b18      	ldr	r3, [pc, #96]	; (8011a04 <discovery_configurePeripherals+0x260>)
 80119a4:	2296      	movs	r2, #150	; 0x96
 80119a6:	0052      	lsls	r2, r2, #1
 80119a8:	4917      	ldr	r1, [pc, #92]	; (8011a08 <discovery_configurePeripherals+0x264>)
 80119aa:	0038      	movs	r0, r7
 80119ac:	47a0      	blx	r4

		// count up the configuration index
		currentConfigurationIndex++;
 80119ae:	4b12      	ldr	r3, [pc, #72]	; (80119f8 <discovery_configurePeripherals+0x254>)
 80119b0:	781b      	ldrb	r3, [r3, #0]
 80119b2:	3301      	adds	r3, #1
 80119b4:	b2da      	uxtb	r2, r3
 80119b6:	4b10      	ldr	r3, [pc, #64]	; (80119f8 <discovery_configurePeripherals+0x254>)
 80119b8:	701a      	strb	r2, [r3, #0]
		// indicate that we are waiting for an answer
		configState = CONFIGURATION_WAITING;
 80119ba:	4b0e      	ldr	r3, [pc, #56]	; (80119f4 <discovery_configurePeripherals+0x250>)
 80119bc:	2201      	movs	r2, #1
 80119be:	701a      	strb	r2, [r3, #0]
 80119c0:	e012      	b.n	80119e8 <discovery_configurePeripherals+0x244>
	} else if (currentConfigurationIndex < logic_configurationInstructionSet.totalNumberOfConfigurationMessages + 2*nOfKnownPeripherals){
 80119c2:	4b0d      	ldr	r3, [pc, #52]	; (80119f8 <discovery_configurePeripherals+0x254>)
 80119c4:	781b      	ldrb	r3, [r3, #0]
 80119c6:	001a      	movs	r2, r3
 80119c8:	4b0c      	ldr	r3, [pc, #48]	; (80119fc <discovery_configurePeripherals+0x258>)
 80119ca:	881b      	ldrh	r3, [r3, #0]
 80119cc:	0019      	movs	r1, r3
 80119ce:	4b10      	ldr	r3, [pc, #64]	; (8011a10 <discovery_configurePeripherals+0x26c>)
 80119d0:	781b      	ldrb	r3, [r3, #0]
 80119d2:	005b      	lsls	r3, r3, #1
 80119d4:	18cb      	adds	r3, r1, r3
 80119d6:	429a      	cmp	r2, r3
 80119d8:	da03      	bge.n	80119e2 <discovery_configurePeripherals+0x23e>
		// signal success
		configState = CONFIGURATION_DONE;
 80119da:	4b06      	ldr	r3, [pc, #24]	; (80119f4 <discovery_configurePeripherals+0x250>)
 80119dc:	2202      	movs	r2, #2
 80119de:	701a      	strb	r2, [r3, #0]
 80119e0:	e002      	b.n	80119e8 <discovery_configurePeripherals+0x244>

	} else {
		// all done
		configState = CONFIGURATION_DONE;
 80119e2:	4b04      	ldr	r3, [pc, #16]	; (80119f4 <discovery_configurePeripherals+0x250>)
 80119e4:	2202      	movs	r2, #2
 80119e6:	701a      	strb	r2, [r3, #0]
	}
	return ILB_HAL_BUSY;
 80119e8:	2302      	movs	r3, #2
}
 80119ea:	0018      	movs	r0, r3
 80119ec:	46bd      	mov	sp, r7
 80119ee:	b013      	add	sp, #76	; 0x4c
 80119f0:	bd90      	pop	{r4, r7, pc}
 80119f2:	46c0      	nop			; (mov r8, r8)
 80119f4:	20002969 	.word	0x20002969
 80119f8:	2000296e 	.word	0x2000296e
 80119fc:	0801207c 	.word	0x0801207c
 8011a00:	20002a2c 	.word	0x20002a2c
 8011a04:	08011a55 	.word	0x08011a55
 8011a08:	08011a15 	.word	0x08011a15
 8011a0c:	2000296c 	.word	0x2000296c
 8011a10:	2000296a 	.word	0x2000296a

08011a14 <discovery_handleConfigurationFeedback>:

/**
 * A configuration message has been received and the peripheral has answered
 */
void discovery_handleConfigurationFeedback(ILBMessageStruct* message)
{
 8011a14:	b580      	push	{r7, lr}
 8011a16:	b082      	sub	sp, #8
 8011a18:	af00      	add	r7, sp, #0
 8011a1a:	6078      	str	r0, [r7, #4]
	// if the tracker currentConfiguration runs up to the total number of configuration messages plus the number of peripherals
	// If it is larger than the number of configuration messages but smaller than this value plus the number of peripherals,
	// then the logic is writing tracker values to the peripherals

	// general check. See if the configuration messages are processed properly
	if (message->payloadSize == 1 && message->payload[0] != ILB_OK) {
 8011a1c:	687b      	ldr	r3, [r7, #4]
 8011a1e:	78db      	ldrb	r3, [r3, #3]
 8011a20:	2b01      	cmp	r3, #1
 8011a22:	d107      	bne.n	8011a34 <discovery_handleConfigurationFeedback+0x20>
 8011a24:	687b      	ldr	r3, [r7, #4]
 8011a26:	791b      	ldrb	r3, [r3, #4]
 8011a28:	2b00      	cmp	r3, #0
 8011a2a:	d003      	beq.n	8011a34 <discovery_handleConfigurationFeedback+0x20>
		// error occured
		configState = CONFIGURATION_ERROR;
 8011a2c:	4b07      	ldr	r3, [pc, #28]	; (8011a4c <discovery_handleConfigurationFeedback+0x38>)
 8011a2e:	2203      	movs	r2, #3
 8011a30:	701a      	strb	r2, [r3, #0]
		return;
 8011a32:	e008      	b.n	8011a46 <discovery_handleConfigurationFeedback+0x32>
		// special handling
	}

	// we are processing

	configState = CONFIGURATION_RUNNING;		// indicate that the next message can be sent
 8011a34:	4b05      	ldr	r3, [pc, #20]	; (8011a4c <discovery_handleConfigurationFeedback+0x38>)
 8011a36:	2200      	movs	r2, #0
 8011a38:	701a      	strb	r2, [r3, #0]
	// count up the tracker
	successfullConfigurationMessages++;
 8011a3a:	4b05      	ldr	r3, [pc, #20]	; (8011a50 <discovery_handleConfigurationFeedback+0x3c>)
 8011a3c:	781b      	ldrb	r3, [r3, #0]
 8011a3e:	3301      	adds	r3, #1
 8011a40:	b2da      	uxtb	r2, r3
 8011a42:	4b03      	ldr	r3, [pc, #12]	; (8011a50 <discovery_handleConfigurationFeedback+0x3c>)
 8011a44:	701a      	strb	r2, [r3, #0]
}
 8011a46:	46bd      	mov	sp, r7
 8011a48:	b002      	add	sp, #8
 8011a4a:	bd80      	pop	{r7, pc}
 8011a4c:	20002969 	.word	0x20002969
 8011a50:	2000296f 	.word	0x2000296f

08011a54 <discovery_configurationWindowHasExpired>:

/**
 * A configuration command has not been acknowledged by the peripehral i time
 */
void discovery_configurationWindowHasExpired(void)
{
 8011a54:	b580      	push	{r7, lr}
 8011a56:	af00      	add	r7, sp, #0
	// report error to core logic
	configState = CONFIGURATION_ERROR;
 8011a58:	4b02      	ldr	r3, [pc, #8]	; (8011a64 <discovery_configurationWindowHasExpired+0x10>)
 8011a5a:	2203      	movs	r2, #3
 8011a5c:	701a      	strb	r2, [r3, #0]
}
 8011a5e:	46c0      	nop			; (mov r8, r8)
 8011a60:	46bd      	mov	sp, r7
 8011a62:	bd80      	pop	{r7, pc}
 8011a64:	20002969 	.word	0x20002969

08011a68 <generateRandomAddress>:
 * Get a random address that complies with the address range
 *
 * @param address of target variable
 */
void generateRandomAddress(uint8_t *targetVariable)
{
 8011a68:	b580      	push	{r7, lr}
 8011a6a:	b084      	sub	sp, #16
 8011a6c:	af00      	add	r7, sp, #0
 8011a6e:	6078      	str	r0, [r7, #4]
	// get a random number
	uint32_t randomNumber = 0;
 8011a70:	2300      	movs	r3, #0
 8011a72:	60bb      	str	r3, [r7, #8]
	uint8_t newAddress = SETTING_PERIPHERAL_ADDRESS_MIN;			//!< fallback solution. Start low
 8011a74:	230f      	movs	r3, #15
 8011a76:	18fb      	adds	r3, r7, r3
 8011a78:	2202      	movs	r2, #2
 8011a7a:	701a      	strb	r2, [r3, #0]
	// loop in case the address already exists
	while (1) {
		if (bsw_getRandomNumber(&randomNumber) == ILB_HAL_OK) {
 8011a7c:	4b13      	ldr	r3, [pc, #76]	; (8011acc <generateRandomAddress+0x64>)
 8011a7e:	681b      	ldr	r3, [r3, #0]
 8011a80:	2208      	movs	r2, #8
 8011a82:	18ba      	adds	r2, r7, r2
 8011a84:	0010      	movs	r0, r2
 8011a86:	4798      	blx	r3
 8011a88:	1e03      	subs	r3, r0, #0
 8011a8a:	d104      	bne.n	8011a96 <generateRandomAddress+0x2e>
			// we generated a random number. Push it in the 8 bit format
			newAddress = (randomNumber & 0xFF);
 8011a8c:	68ba      	ldr	r2, [r7, #8]
 8011a8e:	230f      	movs	r3, #15
 8011a90:	18fb      	adds	r3, r7, r3
 8011a92:	701a      	strb	r2, [r3, #0]
 8011a94:	e005      	b.n	8011aa2 <generateRandomAddress+0x3a>
		} else {
			// fallback. Random number generator is not working. Count up from base address
			newAddress++;
 8011a96:	210f      	movs	r1, #15
 8011a98:	187b      	adds	r3, r7, r1
 8011a9a:	781a      	ldrb	r2, [r3, #0]
 8011a9c:	187b      	adds	r3, r7, r1
 8011a9e:	3201      	adds	r2, #1
 8011aa0:	701a      	strb	r2, [r3, #0]
		}
		// check if the address complies with the boundaries
		if (newAddress < SETTING_PERIPHERAL_ADDRESS_MIN || newAddress > SETTING_PERIPHERAL_ADDRESS_MAX) {
 8011aa2:	220f      	movs	r2, #15
 8011aa4:	18bb      	adds	r3, r7, r2
 8011aa6:	781b      	ldrb	r3, [r3, #0]
 8011aa8:	2b01      	cmp	r3, #1
 8011aaa:	d9e7      	bls.n	8011a7c <generateRandomAddress+0x14>
 8011aac:	18bb      	adds	r3, r7, r2
 8011aae:	781b      	ldrb	r3, [r3, #0]
 8011ab0:	2bff      	cmp	r3, #255	; 0xff
 8011ab2:	d100      	bne.n	8011ab6 <generateRandomAddress+0x4e>
		if (bsw_getRandomNumber(&randomNumber) == ILB_HAL_OK) {
 8011ab4:	e7e2      	b.n	8011a7c <generateRandomAddress+0x14>
			// try again
			continue;
		}
		// the address does not exist. Break
		break;
 8011ab6:	46c0      	nop			; (mov r8, r8)
	}
	// assign value to address
	*targetVariable = newAddress;
 8011ab8:	687b      	ldr	r3, [r7, #4]
 8011aba:	220f      	movs	r2, #15
 8011abc:	18ba      	adds	r2, r7, r2
 8011abe:	7812      	ldrb	r2, [r2, #0]
 8011ac0:	701a      	strb	r2, [r3, #0]
}
 8011ac2:	46c0      	nop			; (mov r8, r8)
 8011ac4:	46bd      	mov	sp, r7
 8011ac6:	b004      	add	sp, #16
 8011ac8:	bd80      	pop	{r7, pc}
 8011aca:	46c0      	nop			; (mov r8, r8)
 8011acc:	20002a50 	.word	0x20002a50

08011ad0 <lightEngine_initManager>:

//
//	Initialisation routine
//
ILB_HAL_StatusTypeDef lightEngine_initManager(void)
{
 8011ad0:	b590      	push	{r4, r7, lr}
 8011ad2:	b083      	sub	sp, #12
 8011ad4:	af00      	add	r7, sp, #0
	// intialise the structure
	if (logic_networkLayout.numberOfLightEngines > SETTING_MAXIMAL_NUMBER_OF_PERIPHERALS)
 8011ad6:	4b1e      	ldr	r3, [pc, #120]	; (8011b50 <lightEngine_initManager+0x80>)
 8011ad8:	789b      	ldrb	r3, [r3, #2]
 8011ada:	2b14      	cmp	r3, #20
 8011adc:	d901      	bls.n	8011ae2 <lightEngine_initManager+0x12>
	{
		return ILB_HAL_ERROR;
 8011ade:	2301      	movs	r3, #1
 8011ae0:	e032      	b.n	8011b48 <lightEngine_initManager+0x78>
	}
	updateLightEngineStatus(LOGIC_LIGHT_ENGINE_ATTACHED_MARKER);
 8011ae2:	20ff      	movs	r0, #255	; 0xff
 8011ae4:	f000 f952 	bl	8011d8c <updateLightEngineStatus>
	for(uint8_t i=1; i<logic_networkLayout.numberOfLightEngines; i++)
 8011ae8:	1dfb      	adds	r3, r7, #7
 8011aea:	2201      	movs	r2, #1
 8011aec:	701a      	strb	r2, [r3, #0]
 8011aee:	e024      	b.n	8011b3a <lightEngine_initManager+0x6a>
	{
		// store address
		lightEnginesStatus[i].address = addressing_getAddressForIndex(logic_networkLayout.lightEngineList[i]);
 8011af0:	4b17      	ldr	r3, [pc, #92]	; (8011b50 <lightEngine_initManager+0x80>)
 8011af2:	685a      	ldr	r2, [r3, #4]
 8011af4:	1dfb      	adds	r3, r7, #7
 8011af6:	781b      	ldrb	r3, [r3, #0]
 8011af8:	18d3      	adds	r3, r2, r3
 8011afa:	781a      	ldrb	r2, [r3, #0]
 8011afc:	1dfb      	adds	r3, r7, #7
 8011afe:	781c      	ldrb	r4, [r3, #0]
 8011b00:	0010      	movs	r0, r2
 8011b02:	f7ff faff 	bl	8011104 <addressing_getAddressForIndex>
 8011b06:	0003      	movs	r3, r0
 8011b08:	0019      	movs	r1, r3
 8011b0a:	4b12      	ldr	r3, [pc, #72]	; (8011b54 <lightEngine_initManager+0x84>)
 8011b0c:	00e2      	lsls	r2, r4, #3
 8011b0e:	54d1      	strb	r1, [r2, r3]
		lightEnginesStatus[i].failedCommunications = 0;
 8011b10:	1dfb      	adds	r3, r7, #7
 8011b12:	781b      	ldrb	r3, [r3, #0]
 8011b14:	4a0f      	ldr	r2, [pc, #60]	; (8011b54 <lightEngine_initManager+0x84>)
 8011b16:	00db      	lsls	r3, r3, #3
 8011b18:	18d3      	adds	r3, r2, r3
 8011b1a:	3306      	adds	r3, #6
 8011b1c:	2200      	movs	r2, #0
 8011b1e:	701a      	strb	r2, [r3, #0]
		// update the list
		updateLightEngineStatus(lightEnginesStatus[i].address);
 8011b20:	1dfb      	adds	r3, r7, #7
 8011b22:	781a      	ldrb	r2, [r3, #0]
 8011b24:	4b0b      	ldr	r3, [pc, #44]	; (8011b54 <lightEngine_initManager+0x84>)
 8011b26:	00d2      	lsls	r2, r2, #3
 8011b28:	5cd3      	ldrb	r3, [r2, r3]
 8011b2a:	0018      	movs	r0, r3
 8011b2c:	f000 f92e 	bl	8011d8c <updateLightEngineStatus>
	for(uint8_t i=1; i<logic_networkLayout.numberOfLightEngines; i++)
 8011b30:	1dfb      	adds	r3, r7, #7
 8011b32:	781a      	ldrb	r2, [r3, #0]
 8011b34:	1dfb      	adds	r3, r7, #7
 8011b36:	3201      	adds	r2, #1
 8011b38:	701a      	strb	r2, [r3, #0]
 8011b3a:	4b05      	ldr	r3, [pc, #20]	; (8011b50 <lightEngine_initManager+0x80>)
 8011b3c:	789b      	ldrb	r3, [r3, #2]
 8011b3e:	1dfa      	adds	r2, r7, #7
 8011b40:	7812      	ldrb	r2, [r2, #0]
 8011b42:	429a      	cmp	r2, r3
 8011b44:	d3d4      	bcc.n	8011af0 <lightEngine_initManager+0x20>
	}
	return ILB_HAL_OK;
 8011b46:	2300      	movs	r3, #0
}
 8011b48:	0018      	movs	r0, r3
 8011b4a:	46bd      	mov	sp, r7
 8011b4c:	b003      	add	sp, #12
 8011b4e:	bd90      	pop	{r4, r7, pc}
 8011b50:	0801208c 	.word	0x0801208c
 8011b54:	20002988 	.word	0x20002988

08011b58 <coreLib_setLightEngine>:
 * @param level
 * @param mired
 * @param fadeTimeMS
 */
void coreLib_setLightEngine(uint8_t LEIndex, uint8_t level, uint16_t mired, uint32_t fadeTimeMS, IntensityLookup_t intensityLookup)
{
 8011b58:	b5b0      	push	{r4, r5, r7, lr}
 8011b5a:	b094      	sub	sp, #80	; 0x50
 8011b5c:	af00      	add	r7, sp, #0
 8011b5e:	0004      	movs	r4, r0
 8011b60:	0008      	movs	r0, r1
 8011b62:	0011      	movs	r1, r2
 8011b64:	603b      	str	r3, [r7, #0]
 8011b66:	1dfb      	adds	r3, r7, #7
 8011b68:	1c22      	adds	r2, r4, #0
 8011b6a:	701a      	strb	r2, [r3, #0]
 8011b6c:	1dbb      	adds	r3, r7, #6
 8011b6e:	1c02      	adds	r2, r0, #0
 8011b70:	701a      	strb	r2, [r3, #0]
 8011b72:	1d3b      	adds	r3, r7, #4
 8011b74:	1c0a      	adds	r2, r1, #0
 8011b76:	801a      	strh	r2, [r3, #0]
	if (LEIndex > logic_networkLayout.numberOfLightEngines)
 8011b78:	4b32      	ldr	r3, [pc, #200]	; (8011c44 <coreLib_setLightEngine+0xec>)
 8011b7a:	789b      	ldrb	r3, [r3, #2]
 8011b7c:	1dfa      	adds	r2, r7, #7
 8011b7e:	7812      	ldrb	r2, [r2, #0]
 8011b80:	429a      	cmp	r2, r3
 8011b82:	d85b      	bhi.n	8011c3c <coreLib_setLightEngine+0xe4>
	{
		return;
	}

	// do we need to set the attached light engine?
	if (lightEnginesStatus[LEIndex].address == ATTACHED_LIGHT_ENGINE_INDEX)
 8011b84:	1dfb      	adds	r3, r7, #7
 8011b86:	781a      	ldrb	r2, [r3, #0]
 8011b88:	4b2f      	ldr	r3, [pc, #188]	; (8011c48 <coreLib_setLightEngine+0xf0>)
 8011b8a:	00d2      	lsls	r2, r2, #3
 8011b8c:	5cd3      	ldrb	r3, [r2, r3]
 8011b8e:	2b00      	cmp	r3, #0
 8011b90:	d11e      	bne.n	8011bd0 <coreLib_setLightEngine+0x78>
	{
		bsw_lightEngine_startFade(level, mired, fadeTimeMS, intensityLookup);
 8011b92:	4b2e      	ldr	r3, [pc, #184]	; (8011c4c <coreLib_setLightEngine+0xf4>)
 8011b94:	681c      	ldr	r4, [r3, #0]
 8011b96:	2360      	movs	r3, #96	; 0x60
 8011b98:	18fb      	adds	r3, r7, r3
 8011b9a:	781d      	ldrb	r5, [r3, #0]
 8011b9c:	683a      	ldr	r2, [r7, #0]
 8011b9e:	1d3b      	adds	r3, r7, #4
 8011ba0:	8819      	ldrh	r1, [r3, #0]
 8011ba2:	1dbb      	adds	r3, r7, #6
 8011ba4:	7818      	ldrb	r0, [r3, #0]
 8011ba6:	002b      	movs	r3, r5
 8011ba8:	47a0      	blx	r4
		// update status
		lightEnginesStatus[ATTACHED_LIGHT_ENGINE_INDEX].status |= LIGHT_ENGINE_FADING;
 8011baa:	4b27      	ldr	r3, [pc, #156]	; (8011c48 <coreLib_setLightEngine+0xf0>)
 8011bac:	785b      	ldrb	r3, [r3, #1]
 8011bae:	2210      	movs	r2, #16
 8011bb0:	4313      	orrs	r3, r2
 8011bb2:	b2da      	uxtb	r2, r3
 8011bb4:	4b24      	ldr	r3, [pc, #144]	; (8011c48 <coreLib_setLightEngine+0xf0>)
 8011bb6:	705a      	strb	r2, [r3, #1]
		// publish information
		broadcast_queueBroadcastMessage();
 8011bb8:	f7ff fb7e 	bl	80112b8 <broadcast_queueBroadcastMessage>
		// track fade
		// check on the progress of the attached light engine
		bsw_timer_scheduleTask(checkAttachedLightEngineProgress, fadeTimeMS + ATTACHED_LIGHT_ENGINE_RETRY_MS);
 8011bbc:	4b24      	ldr	r3, [pc, #144]	; (8011c50 <coreLib_setLightEngine+0xf8>)
 8011bbe:	681b      	ldr	r3, [r3, #0]
 8011bc0:	683a      	ldr	r2, [r7, #0]
 8011bc2:	b292      	uxth	r2, r2
 8011bc4:	320a      	adds	r2, #10
 8011bc6:	b291      	uxth	r1, r2
 8011bc8:	4a22      	ldr	r2, [pc, #136]	; (8011c54 <coreLib_setLightEngine+0xfc>)
 8011bca:	0010      	movs	r0, r2
